{
  "_format": "hh-sol-artifact-1",
  "contractName": "Aggregator",
  "sourceName": "contracts/Aggregator.sol",
  "abi": [
    {
      "inputs": [],
      "stateMutability": "nonpayable",
      "type": "constructor"
    },
    {
      "anonymous": false,
      "inputs": [
        {
          "indexed": false,
          "internalType": "address",
          "name": "user",
          "type": "address"
        },
        {
          "indexed": false,
          "internalType": "address",
          "name": "tokenGive",
          "type": "address"
        },
        {
          "indexed": false,
          "internalType": "uint256",
          "name": "tokenGiveAmount",
          "type": "uint256"
        },
        {
          "indexed": false,
          "internalType": "address",
          "name": "tokenGet",
          "type": "address"
        },
        {
          "indexed": false,
          "internalType": "uint256",
          "name": "tokenGetAmount",
          "type": "uint256"
        },
        {
          "indexed": false,
          "internalType": "uint256",
          "name": "token1Balance",
          "type": "uint256"
        },
        {
          "indexed": false,
          "internalType": "uint256",
          "name": "token2Balance",
          "type": "uint256"
        },
        {
          "indexed": false,
          "internalType": "uint256",
          "name": "timestamp",
          "type": "uint256"
        }
      ],
      "name": "Swap",
      "type": "event"
    },
    {
      "inputs": [],
      "name": "K",
      "outputs": [
        {
          "internalType": "uint256",
          "name": "",
          "type": "uint256"
        }
      ],
      "stateMutability": "view",
      "type": "function"
    },
    {
      "inputs": [],
      "name": "K1",
      "outputs": [
        {
          "internalType": "uint256",
          "name": "",
          "type": "uint256"
        }
      ],
      "stateMutability": "view",
      "type": "function"
    },
    {
      "inputs": [],
      "name": "K2",
      "outputs": [
        {
          "internalType": "uint256",
          "name": "",
          "type": "uint256"
        }
      ],
      "stateMutability": "view",
      "type": "function"
    },
    {
      "inputs": [],
      "name": "K3",
      "outputs": [
        {
          "internalType": "uint256",
          "name": "",
          "type": "uint256"
        }
      ],
      "stateMutability": "view",
      "type": "function"
    },
    {
      "inputs": [
        {
          "internalType": "uint256",
          "name": "_token1Amount",
          "type": "uint256"
        }
      ],
      "name": "calculateDaiSwap",
      "outputs": [
        {
          "internalType": "uint256",
          "name": "token2Amount",
          "type": "uint256"
        }
      ],
      "stateMutability": "view",
      "type": "function"
    },
    {
      "inputs": [
        {
          "internalType": "uint256",
          "name": "_token1Amount",
          "type": "uint256"
        }
      ],
      "name": "calculateSushiDai",
      "outputs": [
        {
          "internalType": "uint256",
          "name": "token2Amount",
          "type": "uint256"
        }
      ],
      "stateMutability": "view",
      "type": "function"
    },
    {
      "inputs": [
        {
          "internalType": "uint256",
          "name": "_token2Amount",
          "type": "uint256"
        }
      ],
      "name": "calculateSushiWeth",
      "outputs": [
        {
          "internalType": "uint256",
          "name": "token1Amount",
          "type": "uint256"
        }
      ],
      "stateMutability": "view",
      "type": "function"
    },
    {
      "inputs": [
        {
          "internalType": "uint256",
          "name": "_token2Amount",
          "type": "uint256"
        }
      ],
      "name": "calculateWethSwap",
      "outputs": [
        {
          "internalType": "uint256",
          "name": "token1Amount",
          "type": "uint256"
        }
      ],
      "stateMutability": "view",
      "type": "function"
    },
    {
      "inputs": [],
      "name": "dai",
      "outputs": [
        {
          "internalType": "contract IWETH",
          "name": "",
          "type": "address"
        }
      ],
      "stateMutability": "view",
      "type": "function"
    },
    {
      "inputs": [],
      "name": "daiAddress",
      "outputs": [
        {
          "internalType": "address",
          "name": "",
          "type": "address"
        }
      ],
      "stateMutability": "view",
      "type": "function"
    },
    {
      "inputs": [],
      "name": "daiWETHpool",
      "outputs": [
        {
          "internalType": "address",
          "name": "",
          "type": "address"
        }
      ],
      "stateMutability": "view",
      "type": "function"
    },
    {
      "inputs": [],
      "name": "owner",
      "outputs": [
        {
          "internalType": "address",
          "name": "",
          "type": "address"
        }
      ],
      "stateMutability": "view",
      "type": "function"
    },
    {
      "inputs": [],
      "name": "pool1daiBalance",
      "outputs": [
        {
          "internalType": "uint256",
          "name": "",
          "type": "uint256"
        }
      ],
      "stateMutability": "view",
      "type": "function"
    },
    {
      "inputs": [],
      "name": "pool1wethBalance",
      "outputs": [
        {
          "internalType": "uint256",
          "name": "",
          "type": "uint256"
        }
      ],
      "stateMutability": "view",
      "type": "function"
    },
    {
      "inputs": [],
      "name": "pool2daiBalance",
      "outputs": [
        {
          "internalType": "uint256",
          "name": "",
          "type": "uint256"
        }
      ],
      "stateMutability": "view",
      "type": "function"
    },
    {
      "inputs": [],
      "name": "pool2wethBalance",
      "outputs": [
        {
          "internalType": "uint256",
          "name": "",
          "type": "uint256"
        }
      ],
      "stateMutability": "view",
      "type": "function"
    },
    {
      "inputs": [],
      "name": "pool3daiBalance",
      "outputs": [
        {
          "internalType": "uint256",
          "name": "",
          "type": "uint256"
        }
      ],
      "stateMutability": "view",
      "type": "function"
    },
    {
      "inputs": [],
      "name": "pool3wethBalance",
      "outputs": [
        {
          "internalType": "uint256",
          "name": "",
          "type": "uint256"
        }
      ],
      "stateMutability": "view",
      "type": "function"
    },
    {
      "inputs": [],
      "name": "pool4daiBalance",
      "outputs": [
        {
          "internalType": "uint256",
          "name": "",
          "type": "uint256"
        }
      ],
      "stateMutability": "view",
      "type": "function"
    },
    {
      "inputs": [],
      "name": "sRouter",
      "outputs": [
        {
          "internalType": "contract IUniswapV2Router02",
          "name": "",
          "type": "address"
        }
      ],
      "stateMutability": "view",
      "type": "function"
    },
    {
      "inputs": [
        {
          "internalType": "address",
          "name": "",
          "type": "address"
        }
      ],
      "name": "shares",
      "outputs": [
        {
          "internalType": "uint256",
          "name": "",
          "type": "uint256"
        }
      ],
      "stateMutability": "view",
      "type": "function"
    },
    {
      "inputs": [],
      "name": "sushiDaiWethPool",
      "outputs": [
        {
          "internalType": "address",
          "name": "",
          "type": "address"
        }
      ],
      "stateMutability": "view",
      "type": "function"
    },
    {
      "inputs": [
        {
          "internalType": "uint256",
          "name": "_token1Amount",
          "type": "uint256"
        }
      ],
      "name": "sushiswap1",
      "outputs": [
        {
          "internalType": "uint256",
          "name": "token2Amount",
          "type": "uint256"
        }
      ],
      "stateMutability": "nonpayable",
      "type": "function"
    },
    {
      "inputs": [
        {
          "internalType": "uint256",
          "name": "_token2Amount",
          "type": "uint256"
        }
      ],
      "name": "sushiswap2",
      "outputs": [
        {
          "internalType": "uint256",
          "name": "token1Amount",
          "type": "uint256"
        }
      ],
      "stateMutability": "nonpayable",
      "type": "function"
    },
    {
      "inputs": [],
      "name": "sushiswapV2Router",
      "outputs": [
        {
          "internalType": "address",
          "name": "",
          "type": "address"
        }
      ],
      "stateMutability": "view",
      "type": "function"
    },
    {
      "inputs": [],
      "name": "totalShares",
      "outputs": [
        {
          "internalType": "uint256",
          "name": "",
          "type": "uint256"
        }
      ],
      "stateMutability": "view",
      "type": "function"
    },
    {
      "inputs": [],
      "name": "uRouter",
      "outputs": [
        {
          "internalType": "contract IUniswapV2Router02",
          "name": "",
          "type": "address"
        }
      ],
      "stateMutability": "view",
      "type": "function"
    },
    {
      "inputs": [
        {
          "internalType": "uint256",
          "name": "_token1Amount",
          "type": "uint256"
        }
      ],
      "name": "uniswap1",
      "outputs": [
        {
          "internalType": "uint256",
          "name": "token2Amount",
          "type": "uint256"
        }
      ],
      "stateMutability": "nonpayable",
      "type": "function"
    },
    {
      "inputs": [
        {
          "internalType": "uint256",
          "name": "_token2Amount",
          "type": "uint256"
        }
      ],
      "name": "uniswap2",
      "outputs": [
        {
          "internalType": "uint256",
          "name": "token1Amount",
          "type": "uint256"
        }
      ],
      "stateMutability": "nonpayable",
      "type": "function"
    },
    {
      "inputs": [],
      "name": "uniswapV2Router",
      "outputs": [
        {
          "internalType": "address",
          "name": "",
          "type": "address"
        }
      ],
      "stateMutability": "view",
      "type": "function"
    },
    {
      "inputs": [],
      "name": "weth",
      "outputs": [
        {
          "internalType": "contract IWETH",
          "name": "",
          "type": "address"
        }
      ],
      "stateMutability": "view",
      "type": "function"
    },
    {
      "inputs": [],
      "name": "wethAddress",
      "outputs": [
        {
          "internalType": "address",
          "name": "",
          "type": "address"
        }
      ],
      "stateMutability": "view",
      "type": "function"
    },
    {
      "inputs": [],
      "name": "wethDAIpool",
      "outputs": [
        {
          "internalType": "address",
          "name": "",
          "type": "address"
        }
      ],
      "stateMutability": "view",
      "type": "function"
    }
  ],
  "bytecode": "0x60c06040523480156200001157600080fd5b50736b175474e89094c44da98b954eedeac495271d0f73ffffffffffffffffffffffffffffffffffffffff166370a0823173c2e9f25be6257c210d7adf0d4cd6e3e881ba25f86040518263ffffffff1660e01b8152600401620000759190620005e4565b60206040518083038186803b1580156200008e57600080fd5b505afa158015620000a3573d6000803e3d6000fd5b505050506040513d601f19601f82011682018060405250810190620000c9919062000641565b60038190555073c02aaa39b223fe8d0a0e5c4f27ead9083c756cc273ffffffffffffffffffffffffffffffffffffffff166370a0823173c2e9f25be6257c210d7adf0d4cd6e3e881ba25f86040518263ffffffff1660e01b8152600401620001329190620005e4565b60206040518083038186803b1580156200014b57600080fd5b505afa15801562000160573d6000803e3d6000fd5b505050506040513d601f19601f8201168201806040525081019062000186919062000641565b600481905550736b175474e89094c44da98b954eedeac495271d0f73ffffffffffffffffffffffffffffffffffffffff166370a0823173a478c2975ab1ea89e8196811f51a7b7ade33eb116040518263ffffffff1660e01b8152600401620001ef9190620005e4565b60206040518083038186803b1580156200020857600080fd5b505afa1580156200021d573d6000803e3d6000fd5b505050506040513d601f19601f8201168201806040525081019062000243919062000641565b60058190555073c02aaa39b223fe8d0a0e5c4f27ead9083c756cc273ffffffffffffffffffffffffffffffffffffffff166370a0823173a478c2975ab1ea89e8196811f51a7b7ade33eb116040518263ffffffff1660e01b8152600401620002ac9190620005e4565b60206040518083038186803b158015620002c557600080fd5b505afa158015620002da573d6000803e3d6000fd5b505050506040513d601f19601f8201168201806040525081019062000300919062000641565b600681905550600454600354620003189190620006a2565b600b81905550600654600554620003309190620006a2565b600c81905550736b175474e89094c44da98b954eedeac495271d0f73ffffffffffffffffffffffffffffffffffffffff166370a0823173c3d03e4f041fd4cd388c549ee2a29a9e5075882f6040518263ffffffff1660e01b8152600401620003999190620005e4565b60206040518083038186803b158015620003b257600080fd5b505afa158015620003c7573d6000803e3d6000fd5b505050506040513d601f19601f82011682018060405250810190620003ed919062000641565b60078190555073c02aaa39b223fe8d0a0e5c4f27ead9083c756cc273ffffffffffffffffffffffffffffffffffffffff166370a0823173c3d03e4f041fd4cd388c549ee2a29a9e5075882f6040518263ffffffff1660e01b8152600401620004569190620005e4565b60206040518083038186803b1580156200046f57600080fd5b505afa15801562000484573d6000803e3d6000fd5b505050506040513d601f19601f82011682018060405250810190620004aa919062000641565b600881905550600854600754620004c29190620006a2565b600d8190555033600260006101000a81548173ffffffffffffffffffffffffffffffffffffffff021916908373ffffffffffffffffffffffffffffffffffffffff160217905550737a250d5630b4cf539739df2c5dacb4c659f2488d73ffffffffffffffffffffffffffffffffffffffff1660808173ffffffffffffffffffffffffffffffffffffffff168152505073d9e1ce17f2641f24ae83637ab66a2cca9c378b9f73ffffffffffffffffffffffffffffffffffffffff1660a08173ffffffffffffffffffffffffffffffffffffffff168152505062000703565b600073ffffffffffffffffffffffffffffffffffffffff82169050919050565b6000620005cc826200059f565b9050919050565b620005de81620005bf565b82525050565b6000602082019050620005fb6000830184620005d3565b92915050565b600080fd5b6000819050919050565b6200061b8162000606565b81146200062757600080fd5b50565b6000815190506200063b8162000610565b92915050565b6000602082840312156200065a576200065962000601565b5b60006200066a848285016200062a565b91505092915050565b7f4e487b7100000000000000000000000000000000000000000000000000000000600052601160045260246000fd5b6000620006af8262000606565b9150620006bc8362000606565b9250817fffffffffffffffffffffffffffffffffffffffffffffffffffffffffffffffff0483118215151615620006f857620006f762000673565b5b828202905092915050565b60805160a05161264c6200074560003960008181610682015281816119990152611a69015260008181610c5501528181611b6b0152611c3b015261264c6000f3fe608060405234801561001057600080fd5b50600436106101fb5760003560e01c80635e05ba171161011a578063b8540eb3116100ad578063e89f8be71161007c578063e89f8be7146105c6578063ef5a814e146105e4578063f1f6acf314610614578063f2c815c714610632578063f4b9fa7514610662576101fb565b8063b8540eb31461052a578063bc13fbc71461055a578063bd4c4c1c14610578578063ce7c2ac214610596576101fb565b80638da5cb5b116100e95780638da5cb5b146104b2578063a3ec761d146104d0578063a932492f146104ee578063b36c6aab1461050c576101fb565b80635e05ba17146104165780636703f80a1461043457806387f3938e146104645780638a01ece914610494576101fb565b806338c6cdd5116101925780634328bfa2116101615780634328bfa21461038c5780634f0e0ef3146103bc5780635b3b06ae146103da5780635cf39049146103f8576101fb565b806338c6cdd5146103025780633a98ef39146103205780633aded1281461033e5780633fc8cef31461036e576101fb565b80632c387275116101ce5780632c387275146102785780632cd7edad146102965780633420b36d146102b4578063382d37df146102e4576101fb565b8063017c64b0146102005780631694505e1461021e5780631ca7d4b91461023c57806326a6a0661461025a575b600080fd5b610208610680565b6040516102159190611d83565b60405180910390f35b6102266106a4565b6040516102339190611dbf565b60405180910390f35b6102446106bc565b6040516102519190611df3565b60405180910390f35b6102626106c2565b60405161026f9190611dbf565b60405180910390f35b6102806106da565b60405161028d9190611dbf565b60405180910390f35b61029e6106f2565b6040516102ab9190611dbf565b60405180910390f35b6102ce60048036038101906102c99190611e4e565b61070a565b6040516102db9190611df3565b60405180910390f35b6102ec6107a3565b6040516102f99190611df3565b60405180910390f35b61030a6107a9565b6040516103179190611dbf565b60405180910390f35b6103286107c1565b6040516103359190611df3565b60405180910390f35b61035860048036038101906103539190611e4e565b6107c7565b6040516103659190611df3565b60405180910390f35b610376610b76565b6040516103839190611e9c565b60405180910390f35b6103a660048036038101906103a19190611e4e565b610b9c565b6040516103b39190611df3565b60405180910390f35b6103c4610c35565b6040516103d19190611dbf565b60405180910390f35b6103e2610c4d565b6040516103ef9190611df3565b60405180910390f35b610400610c53565b60405161040d9190611d83565b60405180910390f35b61041e610c77565b60405161042b9190611dbf565b60405180910390f35b61044e60048036038101906104499190611e4e565b610c8f565b60405161045b9190611df3565b60405180910390f35b61047e60048036038101906104799190611e4e565b610d28565b60405161048b9190611df3565b60405180910390f35b61049c610dc1565b6040516104a99190611df3565b60405180910390f35b6104ba610dc7565b6040516104c79190611dbf565b60405180910390f35b6104d8610ded565b6040516104e59190611df3565b60405180910390f35b6104f6610df3565b6040516105039190611df3565b60405180910390f35b610514610df9565b6040516105219190611df3565b60405180910390f35b610544600480360381019061053f9190611e4e565b610dff565b6040516105519190611df3565b60405180910390f35b6105626111ae565b60405161056f9190611df3565b60405180910390f35b6105806111b4565b60405161058d9190611df3565b60405180910390f35b6105b060048036038101906105ab9190611ee3565b6111ba565b6040516105bd9190611df3565b60405180910390f35b6105ce6111d2565b6040516105db9190611df3565b60405180910390f35b6105fe60048036038101906105f99190611e4e565b6111d8565b60405161060b9190611df3565b60405180910390f35b61061c611587565b6040516106299190611df3565b60405180910390f35b61064c60048036038101906106479190611e4e565b61158d565b6040516106599190611df3565b60405180910390f35b61066a61193c565b6040516106779190611e9c565b60405180910390f35b7f000000000000000000000000000000000000000000000000000000000000000081565b737a250d5630b4cf539739df2c5dacb4c659f2488d81565b60075481565b73c2e9f25be6257c210d7adf0d4cd6e3e881ba25f881565b736b175474e89094c44da98b954eedeac495271d0f81565b73a478c2975ab1ea89e8196811f51a7b7ade33eb1181565b6000808260075461071b9190611f3f565b9050600081600d5461072d9190611fc4565b90508060085461073d9190611ff5565b925060085483141561075857828061075490612029565b9350505b600854831061079c576040517f08c379a0000000000000000000000000000000000000000000000000000000008152600401610793906120b0565b60405180910390fd5b5050919050565b60045481565b73d9e1ce17f2641f24ae83637ab66a2cca9c378b9f81565b600e5481565b600080600267ffffffffffffffff8111156107e5576107e46120d0565b5b6040519080825280602002602001820160405280156108135781602001602082028036833780820191505090505b509050736b175474e89094c44da98b954eedeac495271d0f8160008151811061083f5761083e6120ff565b5b602002602001019073ffffffffffffffffffffffffffffffffffffffff16908173ffffffffffffffffffffffffffffffffffffffff168152505073c02aaa39b223fe8d0a0e5c4f27ead9083c756cc2816001815181106108a2576108a16120ff565b5b602002602001019073ffffffffffffffffffffffffffffffffffffffff16908173ffffffffffffffffffffffffffffffffffffffff1681525050736b175474e89094c44da98b954eedeac495271d0f73ffffffffffffffffffffffffffffffffffffffff166323b872dd3330866040518463ffffffff1660e01b815260040161092d9392919061212e565b602060405180830381600087803b15801561094757600080fd5b505af115801561095b573d6000803e3d6000fd5b505050506040513d601f19601f8201168201806040525081019061097f919061219d565b5061098c81846000611960565b73c02aaa39b223fe8d0a0e5c4f27ead9083c756cc273ffffffffffffffffffffffffffffffffffffffff166370a08231306040518263ffffffff1660e01b81526004016109d99190611dbf565b60206040518083038186803b1580156109f157600080fd5b505afa158015610a05573d6000803e3d6000fd5b505050506040513d601f19601f82011682018060405250810190610a2991906121df565b91508260076000828254610a3d9190611f3f565b925050819055508160086000828254610a569190611ff5565b9250508190555073c02aaa39b223fe8d0a0e5c4f27ead9083c756cc273ffffffffffffffffffffffffffffffffffffffff1663a9059cbb33846040518363ffffffff1660e01b8152600401610aac92919061220c565b602060405180830381600087803b158015610ac657600080fd5b505af1158015610ada573d6000803e3d6000fd5b505050506040513d601f19601f82011682018060405250810190610afe919061219d565b507f31c309ecd457dce7604a286d63a4b470e321337fb9877ce63c1109e1003c89f633736b175474e89094c44da98b954eedeac495271d0f8573c02aaa39b223fe8d0a0e5c4f27ead9083c756cc28660035460045442604051610b68989796959493929190612235565b60405180910390a150919050565b600160009054906101000a900473ffffffffffffffffffffffffffffffffffffffff1681565b60008082600654610bad9190611f3f565b9050600081600c54610bbf9190611fc4565b905080600554610bcf9190611ff5565b9250600554831415610bea578280610be690612029565b9350505b6005548310610c2e576040517f08c379a0000000000000000000000000000000000000000000000000000000008152600401610c25906120b0565b60405180910390fd5b5050919050565b73c02aaa39b223fe8d0a0e5c4f27ead9083c756cc281565b600c5481565b7f000000000000000000000000000000000000000000000000000000000000000081565b73c3d03e4f041fd4cd388c549ee2a29a9e5075882f81565b60008082600354610ca09190611f3f565b9050600081600b54610cb29190611fc4565b905080600454610cc29190611ff5565b9250600454831415610cdd578280610cd990612029565b9350505b6004548310610d21576040517f08c379a0000000000000000000000000000000000000000000000000000000008152600401610d18906120b0565b60405180910390fd5b5050919050565b60008082600854610d399190611f3f565b9050600081600d54610d4b9190611fc4565b905080600754610d5b9190611ff5565b9250600754831415610d76578280610d7290612029565b9350505b6007548310610dba576040517f08c379a0000000000000000000000000000000000000000000000000000000008152600401610db1906120b0565b60405180910390fd5b5050919050565b60065481565b600260009054906101000a900473ffffffffffffffffffffffffffffffffffffffff1681565b600d5481565b600a5481565b60055481565b600080600267ffffffffffffffff811115610e1d57610e1c6120d0565b5b604051908082528060200260200182016040528015610e4b5781602001602082028036833780820191505090505b50905073c02aaa39b223fe8d0a0e5c4f27ead9083c756cc281600081518110610e7757610e766120ff565b5b602002602001019073ffffffffffffffffffffffffffffffffffffffff16908173ffffffffffffffffffffffffffffffffffffffff1681525050736b175474e89094c44da98b954eedeac495271d0f81600181518110610eda57610ed96120ff565b5b602002602001019073ffffffffffffffffffffffffffffffffffffffff16908173ffffffffffffffffffffffffffffffffffffffff168152505073c02aaa39b223fe8d0a0e5c4f27ead9083c756cc273ffffffffffffffffffffffffffffffffffffffff166323b872dd3330866040518463ffffffff1660e01b8152600401610f659392919061212e565b602060405180830381600087803b158015610f7f57600080fd5b505af1158015610f93573d6000803e3d6000fd5b505050506040513d601f19601f82011682018060405250810190610fb7919061219d565b50610fc481846000611960565b736b175474e89094c44da98b954eedeac495271d0f73ffffffffffffffffffffffffffffffffffffffff166370a08231306040518263ffffffff1660e01b81526004016110119190611dbf565b60206040518083038186803b15801561102957600080fd5b505afa15801561103d573d6000803e3d6000fd5b505050506040513d601f19601f8201168201806040525081019061106191906121df565b915082600860008282546110759190611f3f565b92505081905550816007600082825461108e9190611ff5565b92505081905550736b175474e89094c44da98b954eedeac495271d0f73ffffffffffffffffffffffffffffffffffffffff1663a9059cbb33846040518363ffffffff1660e01b81526004016110e492919061220c565b602060405180830381600087803b1580156110fe57600080fd5b505af1158015611112573d6000803e3d6000fd5b505050506040513d601f19601f82011682018060405250810190611136919061219d565b507f31c309ecd457dce7604a286d63a4b470e321337fb9877ce63c1109e1003c89f63373c02aaa39b223fe8d0a0e5c4f27ead9083c756cc285736b175474e89094c44da98b954eedeac495271d0f86600554600654426040516111a0989796959493929190612235565b60405180910390a150919050565b60035481565b60095481565b600f6020528060005260406000206000915090505481565b600b5481565b600080600267ffffffffffffffff8111156111f6576111f56120d0565b5b6040519080825280602002602001820160405280156112245781602001602082028036833780820191505090505b50905073c02aaa39b223fe8d0a0e5c4f27ead9083c756cc2816000815181106112505761124f6120ff565b5b602002602001019073ffffffffffffffffffffffffffffffffffffffff16908173ffffffffffffffffffffffffffffffffffffffff1681525050736b175474e89094c44da98b954eedeac495271d0f816001815181106112b3576112b26120ff565b5b602002602001019073ffffffffffffffffffffffffffffffffffffffff16908173ffffffffffffffffffffffffffffffffffffffff168152505073c02aaa39b223fe8d0a0e5c4f27ead9083c756cc273ffffffffffffffffffffffffffffffffffffffff166323b872dd3330866040518463ffffffff1660e01b815260040161133e9392919061212e565b602060405180830381600087803b15801561135857600080fd5b505af115801561136c573d6000803e3d6000fd5b505050506040513d601f19601f82011682018060405250810190611390919061219d565b5061139d81846000611b32565b736b175474e89094c44da98b954eedeac495271d0f73ffffffffffffffffffffffffffffffffffffffff166370a08231306040518263ffffffff1660e01b81526004016113ea9190611dbf565b60206040518083038186803b15801561140257600080fd5b505afa158015611416573d6000803e3d6000fd5b505050506040513d601f19601f8201168201806040525081019061143a91906121df565b9150826006600082825461144e9190611f3f565b9250508190555081600560008282546114679190611ff5565b92505081905550736b175474e89094c44da98b954eedeac495271d0f73ffffffffffffffffffffffffffffffffffffffff1663a9059cbb33846040518363ffffffff1660e01b81526004016114bd92919061220c565b602060405180830381600087803b1580156114d757600080fd5b505af11580156114eb573d6000803e3d6000fd5b505050506040513d601f19601f8201168201806040525081019061150f919061219d565b507f31c309ecd457dce7604a286d63a4b470e321337fb9877ce63c1109e1003c89f63373c02aaa39b223fe8d0a0e5c4f27ead9083c756cc285736b175474e89094c44da98b954eedeac495271d0f8660055460065442604051611579989796959493929190612235565b60405180910390a150919050565b60085481565b600080600267ffffffffffffffff8111156115ab576115aa6120d0565b5b6040519080825280602002602001820160405280156115d95781602001602082028036833780820191505090505b509050736b175474e89094c44da98b954eedeac495271d0f81600081518110611605576116046120ff565b5b602002602001019073ffffffffffffffffffffffffffffffffffffffff16908173ffffffffffffffffffffffffffffffffffffffff168152505073c02aaa39b223fe8d0a0e5c4f27ead9083c756cc281600181518110611668576116676120ff565b5b602002602001019073ffffffffffffffffffffffffffffffffffffffff16908173ffffffffffffffffffffffffffffffffffffffff1681525050736b175474e89094c44da98b954eedeac495271d0f73ffffffffffffffffffffffffffffffffffffffff166323b872dd3330866040518463ffffffff1660e01b81526004016116f39392919061212e565b602060405180830381600087803b15801561170d57600080fd5b505af1158015611721573d6000803e3d6000fd5b505050506040513d601f19601f82011682018060405250810190611745919061219d565b5061175281846000611b32565b73c02aaa39b223fe8d0a0e5c4f27ead9083c756cc273ffffffffffffffffffffffffffffffffffffffff166370a08231306040518263ffffffff1660e01b815260040161179f9190611dbf565b60206040518083038186803b1580156117b757600080fd5b505afa1580156117cb573d6000803e3d6000fd5b505050506040513d601f19601f820116820180604052508101906117ef91906121df565b915082600360008282546118039190611f3f565b92505081905550816004600082825461181c9190611ff5565b9250508190555073c02aaa39b223fe8d0a0e5c4f27ead9083c756cc273ffffffffffffffffffffffffffffffffffffffff1663a9059cbb33846040518363ffffffff1660e01b815260040161187292919061220c565b602060405180830381600087803b15801561188c57600080fd5b505af11580156118a0573d6000803e3d6000fd5b505050506040513d601f19601f820116820180604052508101906118c4919061219d565b507f31c309ecd457dce7604a286d63a4b470e321337fb9877ce63c1109e1003c89f633736b175474e89094c44da98b954eedeac495271d0f8573c02aaa39b223fe8d0a0e5c4f27ead9083c756cc2866003546004544260405161192e989796959493929190612235565b60405180910390a150919050565b60008054906101000a900473ffffffffffffffffffffffffffffffffffffffff1681565b82600081518110611974576119736120ff565b5b602002602001015173ffffffffffffffffffffffffffffffffffffffff1663095ea7b37f0000000000000000000000000000000000000000000000000000000000000000846040518363ffffffff1660e01b81526004016119d692919061220c565b602060405180830381600087803b1580156119f057600080fd5b505af1158015611a04573d6000803e3d6000fd5b505050506040513d601f19601f82011682018060405250810190611a28919061219d565b611a67576040517f08c379a0000000000000000000000000000000000000000000000000000000008152600401611a5e906122ff565b60405180910390fd5b7f000000000000000000000000000000000000000000000000000000000000000073ffffffffffffffffffffffffffffffffffffffff166338ed1739838386306104b042611ab59190611f3f565b6040518663ffffffff1660e01b8152600401611ad59594939291906123dd565b600060405180830381600087803b158015611aef57600080fd5b505af1158015611b03573d6000803e3d6000fd5b505050506040513d6000823e3d601f19601f82011682018060405250810190611b2c9190612561565b50505050565b82600081518110611b4657611b456120ff565b5b602002602001015173ffffffffffffffffffffffffffffffffffffffff1663095ea7b37f0000000000000000000000000000000000000000000000000000000000000000846040518363ffffffff1660e01b8152600401611ba892919061220c565b602060405180830381600087803b158015611bc257600080fd5b505af1158015611bd6573d6000803e3d6000fd5b505050506040513d601f19601f82011682018060405250810190611bfa919061219d565b611c39576040517f08c379a0000000000000000000000000000000000000000000000000000000008152600401611c30906125f6565b60405180910390fd5b7f000000000000000000000000000000000000000000000000000000000000000073ffffffffffffffffffffffffffffffffffffffff166338ed1739838386306104b042611c879190611f3f565b6040518663ffffffff1660e01b8152600401611ca79594939291906123dd565b600060405180830381600087803b158015611cc157600080fd5b505af1158015611cd5573d6000803e3d6000fd5b505050506040513d6000823e3d601f19601f82011682018060405250810190611cfe9190612561565b50505050565b600073ffffffffffffffffffffffffffffffffffffffff82169050919050565b6000819050919050565b6000611d49611d44611d3f84611d04565b611d24565b611d04565b9050919050565b6000611d5b82611d2e565b9050919050565b6000611d6d82611d50565b9050919050565b611d7d81611d62565b82525050565b6000602082019050611d986000830184611d74565b92915050565b6000611da982611d04565b9050919050565b611db981611d9e565b82525050565b6000602082019050611dd46000830184611db0565b92915050565b6000819050919050565b611ded81611dda565b82525050565b6000602082019050611e086000830184611de4565b92915050565b6000604051905090565b600080fd5b600080fd5b611e2b81611dda565b8114611e3657600080fd5b50565b600081359050611e4881611e22565b92915050565b600060208284031215611e6457611e63611e18565b5b6000611e7284828501611e39565b91505092915050565b6000611e8682611d50565b9050919050565b611e9681611e7b565b82525050565b6000602082019050611eb16000830184611e8d565b92915050565b611ec081611d9e565b8114611ecb57600080fd5b50565b600081359050611edd81611eb7565b92915050565b600060208284031215611ef957611ef8611e18565b5b6000611f0784828501611ece565b91505092915050565b7f4e487b7100000000000000000000000000000000000000000000000000000000600052601160045260246000fd5b6000611f4a82611dda565b9150611f5583611dda565b9250827fffffffffffffffffffffffffffffffffffffffffffffffffffffffffffffffff03821115611f8a57611f89611f10565b5b828201905092915050565b7f4e487b7100000000000000000000000000000000000000000000000000000000600052601260045260246000fd5b6000611fcf82611dda565b9150611fda83611dda565b925082611fea57611fe9611f95565b5b828204905092915050565b600061200082611dda565b915061200b83611dda565b92508282101561201e5761201d611f10565b5b828203905092915050565b600061203482611dda565b9150600082141561204857612047611f10565b5b600182039050919050565b600082825260208201905092915050565b7f7377617020616d6f756e7420746f6f206c617267650000000000000000000000600082015250565b600061209a601583612053565b91506120a582612064565b602082019050919050565b600060208201905081810360008301526120c98161208d565b9050919050565b7f4e487b7100000000000000000000000000000000000000000000000000000000600052604160045260246000fd5b7f4e487b7100000000000000000000000000000000000000000000000000000000600052603260045260246000fd5b60006060820190506121436000830186611db0565b6121506020830185611db0565b61215d6040830184611de4565b949350505050565b60008115159050919050565b61217a81612165565b811461218557600080fd5b50565b60008151905061219781612171565b92915050565b6000602082840312156121b3576121b2611e18565b5b60006121c184828501612188565b91505092915050565b6000815190506121d981611e22565b92915050565b6000602082840312156121f5576121f4611e18565b5b6000612203848285016121ca565b91505092915050565b60006040820190506122216000830185611db0565b61222e6020830184611de4565b9392505050565b60006101008201905061224b600083018b611db0565b612258602083018a611db0565b6122656040830189611de4565b6122726060830188611db0565b61227f6080830187611de4565b61228c60a0830186611de4565b61229960c0830185611de4565b6122a660e0830184611de4565b9998505050505050505050565b7f53757368697377617020617070726f76616c206661696c65642e000000000000600082015250565b60006122e9601a83612053565b91506122f4826122b3565b602082019050919050565b60006020820190508181036000830152612318816122dc565b9050919050565b600081519050919050565b600082825260208201905092915050565b6000819050602082019050919050565b61235481611d9e565b82525050565b6000612366838361234b565b60208301905092915050565b6000602082019050919050565b600061238a8261231f565b612394818561232a565b935061239f8361233b565b8060005b838110156123d05781516123b7888261235a565b97506123c283612372565b9250506001810190506123a3565b5085935050505092915050565b600060a0820190506123f26000830188611de4565b6123ff6020830187611de4565b8181036040830152612411818661237f565b90506124206060830185611db0565b61242d6080830184611de4565b9695505050505050565b600080fd5b6000601f19601f8301169050919050565b6124568261243c565b810181811067ffffffffffffffff82111715612475576124746120d0565b5b80604052505050565b6000612488611e0e565b9050612494828261244d565b919050565b600067ffffffffffffffff8211156124b4576124b36120d0565b5b602082029050602081019050919050565b600080fd5b60006124dd6124d884612499565b61247e565b90508083825260208201905060208402830185811115612500576124ff6124c5565b5b835b81811015612529578061251588826121ca565b845260208401935050602081019050612502565b5050509392505050565b600082601f83011261254857612547612437565b5b81516125588482602086016124ca565b91505092915050565b60006020828403121561257757612576611e18565b5b600082015167ffffffffffffffff81111561259557612594611e1d565b5b6125a184828501612533565b91505092915050565b7f556e697377617020617070726f76616c206661696c65642e0000000000000000600082015250565b60006125e0601883612053565b91506125eb826125aa565b602082019050919050565b6000602082019050818103600083015261260f816125d3565b905091905056fea2646970667358221220ec4de15c440c4aa62979265acbe2b031538a493eeaca59a579c7e3de9f68482c64736f6c63430008090033",
  "linkReferences": {},
  "deployedLinkReferences": {}
}