{
  "_format": "hh-sol-artifact-1",
  "contractName": "Aggregator",
  "sourceName": "contracts/Aggregator.sol",
  "abi": [
    {
      "inputs": [],
      "stateMutability": "nonpayable",
      "type": "constructor"
    },
    {
      "anonymous": false,
      "inputs": [
        {
          "indexed": false,
          "internalType": "address",
          "name": "user",
          "type": "address"
        },
        {
          "indexed": false,
          "internalType": "address",
          "name": "tokenGive",
          "type": "address"
        },
        {
          "indexed": false,
          "internalType": "uint256",
          "name": "tokenGiveAmount",
          "type": "uint256"
        },
        {
          "indexed": false,
          "internalType": "address",
          "name": "tokenGet",
          "type": "address"
        },
        {
          "indexed": false,
          "internalType": "uint256",
          "name": "tokenGetAmount",
          "type": "uint256"
        },
        {
          "indexed": false,
          "internalType": "uint256",
          "name": "token1Balance",
          "type": "uint256"
        },
        {
          "indexed": false,
          "internalType": "uint256",
          "name": "token2Balance",
          "type": "uint256"
        },
        {
          "indexed": false,
          "internalType": "uint256",
          "name": "timestamp",
          "type": "uint256"
        }
      ],
      "name": "Swap",
      "type": "event"
    },
    {
      "inputs": [],
      "name": "K",
      "outputs": [
        {
          "internalType": "uint256",
          "name": "",
          "type": "uint256"
        }
      ],
      "stateMutability": "view",
      "type": "function"
    },
    {
      "inputs": [],
      "name": "K1",
      "outputs": [
        {
          "internalType": "uint256",
          "name": "",
          "type": "uint256"
        }
      ],
      "stateMutability": "view",
      "type": "function"
    },
    {
      "inputs": [],
      "name": "K2",
      "outputs": [
        {
          "internalType": "uint256",
          "name": "",
          "type": "uint256"
        }
      ],
      "stateMutability": "view",
      "type": "function"
    },
    {
      "inputs": [],
      "name": "K3",
      "outputs": [
        {
          "internalType": "uint256",
          "name": "",
          "type": "uint256"
        }
      ],
      "stateMutability": "view",
      "type": "function"
    },
    {
      "inputs": [],
      "name": "K4",
      "outputs": [
        {
          "internalType": "uint256",
          "name": "",
          "type": "uint256"
        }
      ],
      "stateMutability": "view",
      "type": "function"
    },
    {
      "inputs": [],
      "name": "USDC",
      "outputs": [
        {
          "internalType": "contract IWETH",
          "name": "",
          "type": "address"
        }
      ],
      "stateMutability": "view",
      "type": "function"
    },
    {
      "inputs": [],
      "name": "USDCAddress",
      "outputs": [
        {
          "internalType": "address",
          "name": "",
          "type": "address"
        }
      ],
      "stateMutability": "view",
      "type": "function"
    },
    {
      "inputs": [],
      "name": "USDT",
      "outputs": [
        {
          "internalType": "contract IWETH",
          "name": "",
          "type": "address"
        }
      ],
      "stateMutability": "view",
      "type": "function"
    },
    {
      "inputs": [],
      "name": "USDTAddress",
      "outputs": [
        {
          "internalType": "address",
          "name": "",
          "type": "address"
        }
      ],
      "stateMutability": "view",
      "type": "function"
    },
    {
      "inputs": [
        {
          "internalType": "uint256",
          "name": "_token1Amount",
          "type": "uint256"
        }
      ],
      "name": "calculateDaiSwap",
      "outputs": [
        {
          "internalType": "uint256",
          "name": "token2Amount",
          "type": "uint256"
        }
      ],
      "stateMutability": "view",
      "type": "function"
    },
    {
      "inputs": [
        {
          "internalType": "uint256",
          "name": "_token2Amount",
          "type": "uint256"
        }
      ],
      "name": "calculateWethSwap",
      "outputs": [
        {
          "internalType": "uint256",
          "name": "token1Amount",
          "type": "uint256"
        }
      ],
      "stateMutability": "view",
      "type": "function"
    },
    {
      "inputs": [],
      "name": "dai",
      "outputs": [
        {
          "internalType": "contract IWETH",
          "name": "",
          "type": "address"
        }
      ],
      "stateMutability": "view",
      "type": "function"
    },
    {
      "inputs": [],
      "name": "daiAddress",
      "outputs": [
        {
          "internalType": "address",
          "name": "",
          "type": "address"
        }
      ],
      "stateMutability": "view",
      "type": "function"
    },
    {
      "inputs": [],
      "name": "daiWETHpool",
      "outputs": [
        {
          "internalType": "address",
          "name": "",
          "type": "address"
        }
      ],
      "stateMutability": "view",
      "type": "function"
    },
    {
      "inputs": [],
      "name": "owner",
      "outputs": [
        {
          "internalType": "address",
          "name": "",
          "type": "address"
        }
      ],
      "stateMutability": "view",
      "type": "function"
    },
    {
      "inputs": [],
      "name": "pancakeDaiWeth",
      "outputs": [
        {
          "internalType": "address",
          "name": "",
          "type": "address"
        }
      ],
      "stateMutability": "view",
      "type": "function"
    },
    {
      "inputs": [],
      "name": "pancakeUSDCWeth",
      "outputs": [
        {
          "internalType": "address",
          "name": "",
          "type": "address"
        }
      ],
      "stateMutability": "view",
      "type": "function"
    },
    {
      "inputs": [],
      "name": "pool1daiBalance",
      "outputs": [
        {
          "internalType": "uint256",
          "name": "",
          "type": "uint256"
        }
      ],
      "stateMutability": "view",
      "type": "function"
    },
    {
      "inputs": [],
      "name": "pool1wethBalance",
      "outputs": [
        {
          "internalType": "uint256",
          "name": "",
          "type": "uint256"
        }
      ],
      "stateMutability": "view",
      "type": "function"
    },
    {
      "inputs": [],
      "name": "pool2daiBalance",
      "outputs": [
        {
          "internalType": "uint256",
          "name": "",
          "type": "uint256"
        }
      ],
      "stateMutability": "view",
      "type": "function"
    },
    {
      "inputs": [],
      "name": "pool2wethBalance",
      "outputs": [
        {
          "internalType": "uint256",
          "name": "",
          "type": "uint256"
        }
      ],
      "stateMutability": "view",
      "type": "function"
    },
    {
      "inputs": [],
      "name": "pool3daiBalance",
      "outputs": [
        {
          "internalType": "uint256",
          "name": "",
          "type": "uint256"
        }
      ],
      "stateMutability": "view",
      "type": "function"
    },
    {
      "inputs": [],
      "name": "pool3wethBalance",
      "outputs": [
        {
          "internalType": "uint256",
          "name": "",
          "type": "uint256"
        }
      ],
      "stateMutability": "view",
      "type": "function"
    },
    {
      "inputs": [],
      "name": "pool4daiBalance",
      "outputs": [
        {
          "internalType": "uint256",
          "name": "",
          "type": "uint256"
        }
      ],
      "stateMutability": "view",
      "type": "function"
    },
    {
      "inputs": [],
      "name": "pool4wethBalance",
      "outputs": [
        {
          "internalType": "uint256",
          "name": "",
          "type": "uint256"
        }
      ],
      "stateMutability": "view",
      "type": "function"
    },
    {
      "inputs": [],
      "name": "sRouter",
      "outputs": [
        {
          "internalType": "contract IUniswapV2Router02",
          "name": "",
          "type": "address"
        }
      ],
      "stateMutability": "view",
      "type": "function"
    },
    {
      "inputs": [
        {
          "internalType": "address",
          "name": "",
          "type": "address"
        }
      ],
      "name": "shares",
      "outputs": [
        {
          "internalType": "uint256",
          "name": "",
          "type": "uint256"
        }
      ],
      "stateMutability": "view",
      "type": "function"
    },
    {
      "inputs": [],
      "name": "sushiDaiWethPool",
      "outputs": [
        {
          "internalType": "address",
          "name": "",
          "type": "address"
        }
      ],
      "stateMutability": "view",
      "type": "function"
    },
    {
      "inputs": [],
      "name": "sushiWethDaiPool",
      "outputs": [
        {
          "internalType": "address",
          "name": "",
          "type": "address"
        }
      ],
      "stateMutability": "view",
      "type": "function"
    },
    {
      "inputs": [],
      "name": "sushiswapV2Router",
      "outputs": [
        {
          "internalType": "address",
          "name": "",
          "type": "address"
        }
      ],
      "stateMutability": "view",
      "type": "function"
    },
    {
      "inputs": [],
      "name": "totalShares",
      "outputs": [
        {
          "internalType": "uint256",
          "name": "",
          "type": "uint256"
        }
      ],
      "stateMutability": "view",
      "type": "function"
    },
    {
      "inputs": [],
      "name": "uRouter",
      "outputs": [
        {
          "internalType": "contract IUniswapV2Router02",
          "name": "",
          "type": "address"
        }
      ],
      "stateMutability": "view",
      "type": "function"
    },
    {
      "inputs": [
        {
          "internalType": "uint256",
          "name": "_token1Amount",
          "type": "uint256"
        }
      ],
      "name": "uniswap1",
      "outputs": [
        {
          "internalType": "uint256",
          "name": "token2Amount",
          "type": "uint256"
        }
      ],
      "stateMutability": "nonpayable",
      "type": "function"
    },
    {
      "inputs": [
        {
          "internalType": "uint256",
          "name": "_token2Amount",
          "type": "uint256"
        }
      ],
      "name": "uniswap2",
      "outputs": [
        {
          "internalType": "uint256",
          "name": "token1Amount",
          "type": "uint256"
        }
      ],
      "stateMutability": "nonpayable",
      "type": "function"
    },
    {
      "inputs": [],
      "name": "uniswapV2Router",
      "outputs": [
        {
          "internalType": "address",
          "name": "",
          "type": "address"
        }
      ],
      "stateMutability": "view",
      "type": "function"
    },
    {
      "inputs": [],
      "name": "weth",
      "outputs": [
        {
          "internalType": "contract IWETH",
          "name": "",
          "type": "address"
        }
      ],
      "stateMutability": "view",
      "type": "function"
    },
    {
      "inputs": [],
      "name": "wethAddress",
      "outputs": [
        {
          "internalType": "address",
          "name": "",
          "type": "address"
        }
      ],
      "stateMutability": "view",
      "type": "function"
    },
    {
      "inputs": [],
      "name": "wethDAIpool",
      "outputs": [
        {
          "internalType": "address",
          "name": "",
          "type": "address"
        }
      ],
      "stateMutability": "view",
      "type": "function"
    },
    {
      "inputs": [],
      "name": "wethUSDTpool",
      "outputs": [
        {
          "internalType": "address",
          "name": "",
          "type": "address"
        }
      ],
      "stateMutability": "view",
      "type": "function"
    }
  ],
  "bytecode": "0x60c06040523480156200001157600080fd5b50736b175474e89094c44da98b954eedeac495271d0f73ffffffffffffffffffffffffffffffffffffffff166370a0823173c2e9f25be6257c210d7adf0d4cd6e3e881ba25f86040518263ffffffff1660e01b815260040162000075919062000776565b60206040518083038186803b1580156200008e57600080fd5b505afa158015620000a3573d6000803e3d6000fd5b505050506040513d601f19601f82011682018060405250810190620000c99190620007d3565b60058190555073c02aaa39b223fe8d0a0e5c4f27ead9083c756cc273ffffffffffffffffffffffffffffffffffffffff166370a0823173c2e9f25be6257c210d7adf0d4cd6e3e881ba25f86040518263ffffffff1660e01b815260040162000132919062000776565b60206040518083038186803b1580156200014b57600080fd5b505afa15801562000160573d6000803e3d6000fd5b505050506040513d601f19601f82011682018060405250810190620001869190620007d3565b600681905550736b175474e89094c44da98b954eedeac495271d0f73ffffffffffffffffffffffffffffffffffffffff166370a0823173a478c2975ab1ea89e8196811f51a7b7ade33eb116040518263ffffffff1660e01b8152600401620001ef919062000776565b60206040518083038186803b1580156200020857600080fd5b505afa1580156200021d573d6000803e3d6000fd5b505050506040513d601f19601f82011682018060405250810190620002439190620007d3565b60078190555073c02aaa39b223fe8d0a0e5c4f27ead9083c756cc273ffffffffffffffffffffffffffffffffffffffff166370a0823173a478c2975ab1ea89e8196811f51a7b7ade33eb116040518263ffffffff1660e01b8152600401620002ac919062000776565b60206040518083038186803b158015620002c557600080fd5b505afa158015620002da573d6000803e3d6000fd5b505050506040513d601f19601f82011682018060405250810190620003009190620007d3565b60088190555060065460055462000318919062000834565b600e8190555060085460075462000330919062000834565b600f8190555073dac17f958d2ee523a2206206994597c13d831ec773ffffffffffffffffffffffffffffffffffffffff166370a08231730d4a11d5eeaac28ec3f61d100daf4d40471f18526040518263ffffffff1660e01b815260040162000399919062000776565b60206040518083038186803b158015620003b257600080fd5b505afa158015620003c7573d6000803e3d6000fd5b505050506040513d601f19601f82011682018060405250810190620003ed9190620007d3565b60098190555073c02aaa39b223fe8d0a0e5c4f27ead9083c756cc273ffffffffffffffffffffffffffffffffffffffff166370a08231730d4a11d5eeaac28ec3f61d100daf4d40471f18526040518263ffffffff1660e01b815260040162000456919062000776565b60206040518083038186803b1580156200046f57600080fd5b505afa15801562000484573d6000803e3d6000fd5b505050506040513d601f19601f82011682018060405250810190620004aa9190620007d3565b600a8190555073a0b86991c6218b36c1d19d4a2e9eb0ce3606eb4873ffffffffffffffffffffffffffffffffffffffff166370a08231732e8135be71230c6b1b4045696d41c09db04142266040518263ffffffff1660e01b815260040162000513919062000776565b60206040518083038186803b1580156200052c57600080fd5b505afa15801562000541573d6000803e3d6000fd5b505050506040513d601f19601f82011682018060405250810190620005679190620007d3565b600b8190555073c02aaa39b223fe8d0a0e5c4f27ead9083c756cc273ffffffffffffffffffffffffffffffffffffffff166370a08231732e8135be71230c6b1b4045696d41c09db04142266040518263ffffffff1660e01b8152600401620005d0919062000776565b60206040518083038186803b158015620005e957600080fd5b505afa158015620005fe573d6000803e3d6000fd5b505050506040513d601f19601f82011682018060405250810190620006249190620007d3565b600c81905550600a546009546200063c919062000834565b601081905550600c54600b5462000654919062000834565b60118190555033600460006101000a81548173ffffffffffffffffffffffffffffffffffffffff021916908373ffffffffffffffffffffffffffffffffffffffff160217905550737a250d5630b4cf539739df2c5dacb4c659f2488d73ffffffffffffffffffffffffffffffffffffffff1660808173ffffffffffffffffffffffffffffffffffffffff168152505073d9e1ce17f2641f24ae83637ab66a2cca9c378b9f73ffffffffffffffffffffffffffffffffffffffff1660a08173ffffffffffffffffffffffffffffffffffffffff168152505062000895565b600073ffffffffffffffffffffffffffffffffffffffff82169050919050565b60006200075e8262000731565b9050919050565b620007708162000751565b82525050565b60006020820190506200078d600083018462000765565b92915050565b600080fd5b6000819050919050565b620007ad8162000798565b8114620007b957600080fd5b50565b600081519050620007cd81620007a2565b92915050565b600060208284031215620007ec57620007eb62000793565b5b6000620007fc84828501620007bc565b91505092915050565b7f4e487b7100000000000000000000000000000000000000000000000000000000600052601160045260246000fd5b6000620008418262000798565b91506200084e8362000798565b9250817fffffffffffffffffffffffffffffffffffffffffffffffffffffffffffffffff04831182151516156200088a576200088962000805565b5b828202905092915050565b60805160a051611d14620008c960003960006107300152600081816108c10152818161129f015261136f0152611d146000f3fe608060405234801561001057600080fd5b506004361061023d5760003560e01c806389a302711161013b578063c54e44eb116100b8578063f1f6acf31161007c578063f1f6acf314610686578063f2c815c7146106a4578063f4b9fa75146106d4578063f77dd709146106f2578063ff920c74146107105761023d565b8063c54e44eb146105cc578063ce7c2ac2146105ea578063e89f8be71461061a578063e930320914610638578063ef5a814e146106565761023d565b8063a932492f116100ff578063a932492f14610536578063b36c6aab14610554578063bc13fbc714610572578063bd4c4c1c14610590578063c419657f146105ae5761023d565b806389a30271146104a05780638a01ece9146104be5780638da5cb5b146104dc57806393a35c91146104fa578063a3ec761d146105185761023d565b80633f32118f116101c95780635cf390491161018d5780635cf39049146103f85780635e05ba171461041657806361b47335146104345780636703f80a14610452578063761c282a146104825761023d565b80633f32118f146103505780633fc8cef31461036e5780634328bfa21461038c5780634f0e0ef3146103bc5780635b3b06ae146103da5761023d565b80632c387275116102105780632c387275146102ba5780632cd7edad146102d8578063382d37df146102f657806338c6cdd5146103145780633a98ef39146103325761023d565b8063017c64b0146102425780631694505e146102605780631ca7d4b91461027e57806326a6a0661461029c575b600080fd5b61024a61072e565b60405161025791906114b7565b60405180910390f35b610268610752565b60405161027591906114f3565b60405180910390f35b61028661076a565b6040516102939190611527565b60405180910390f35b6102a4610770565b6040516102b191906114f3565b60405180910390f35b6102c2610788565b6040516102cf91906114f3565b60405180910390f35b6102e06107a0565b6040516102ed91906114f3565b60405180910390f35b6102fe6107b8565b60405161030b9190611527565b60405180910390f35b61031c6107be565b60405161032991906114f3565b60405180910390f35b61033a6107d6565b6040516103479190611527565b60405180910390f35b6103586107dc565b6040516103659190611527565b60405180910390f35b6103766107e2565b6040516103839190611563565b60405180910390f35b6103a660048036038101906103a191906115be565b610808565b6040516103b39190611527565b60405180910390f35b6103c46108a1565b6040516103d191906114f3565b60405180910390f35b6103e26108b9565b6040516103ef9190611527565b60405180910390f35b6104006108bf565b60405161040d91906114b7565b60405180910390f35b61041e6108e3565b60405161042b91906114f3565b60405180910390f35b61043c6108fb565b6040516104499190611527565b60405180910390f35b61046c600480360381019061046791906115be565b610901565b6040516104799190611527565b60405180910390f35b61048a61099a565b60405161049791906114f3565b60405180910390f35b6104a86109b2565b6040516104b59190611563565b60405180910390f35b6104c66109d8565b6040516104d39190611527565b60405180910390f35b6104e46109de565b6040516104f191906114f3565b60405180910390f35b610502610a04565b60405161050f91906114f3565b60405180910390f35b610520610a1c565b60405161052d9190611527565b60405180910390f35b61053e610a22565b60405161054b9190611527565b60405180910390f35b61055c610a28565b6040516105699190611527565b60405180910390f35b61057a610a2e565b6040516105879190611527565b60405180910390f35b610598610a34565b6040516105a59190611527565b60405180910390f35b6105b6610a3a565b6040516105c391906114f3565b60405180910390f35b6105d4610a52565b6040516105e19190611563565b60405180910390f35b61060460048036038101906105ff9190611617565b610a78565b6040516106119190611527565b60405180910390f35b610622610a90565b60405161062f9190611527565b60405180910390f35b610640610a96565b60405161064d91906114f3565b60405180910390f35b610670600480360381019061066b91906115be565b610aae565b60405161067d9190611527565b60405180910390f35b61068e610e5d565b60405161069b9190611527565b60405180910390f35b6106be60048036038101906106b991906115be565b610e63565b6040516106cb9190611527565b60405180910390f35b6106dc611212565b6040516106e99190611563565b60405180910390f35b6106fa611236565b60405161070791906114f3565b60405180910390f35b61071861124e565b60405161072591906114f3565b60405180910390f35b7f000000000000000000000000000000000000000000000000000000000000000081565b737a250d5630b4cf539739df2c5dacb4c659f2488d81565b60095481565b73c2e9f25be6257c210d7adf0d4cd6e3e881ba25f881565b736b175474e89094c44da98b954eedeac495271d0f81565b73a478c2975ab1ea89e8196811f51a7b7ade33eb1181565b60065481565b73d9e1ce17f2641f24ae83637ab66a2cca9c378b9f81565b60125481565b60115481565b600160009054906101000a900473ffffffffffffffffffffffffffffffffffffffff1681565b600080826008546108199190611673565b9050600081600f5461082b91906116f8565b90508060075461083b9190611729565b92506007548314156108565782806108529061175d565b9350505b600754831061089a576040517f08c379a0000000000000000000000000000000000000000000000000000000008152600401610891906117e4565b60405180910390fd5b5050919050565b73c02aaa39b223fe8d0a0e5c4f27ead9083c756cc281565b600f5481565b7f000000000000000000000000000000000000000000000000000000000000000081565b734d734eaf2102407825f45571d51fc7c4dae86ff881565b600c5481565b600080826005546109129190611673565b9050600081600e5461092491906116f8565b9050806006546109349190611729565b925060065483141561094f57828061094b9061175d565b9350505b6006548310610993576040517f08c379a000000000000000000000000000000000000000000000000000000000815260040161098a906117e4565b60405180910390fd5b5050919050565b732e8135be71230c6b1b4045696d41c09db041422681565b600260009054906101000a900473ffffffffffffffffffffffffffffffffffffffff1681565b60085481565b600460009054906101000a900473ffffffffffffffffffffffffffffffffffffffff1681565b730d4a11d5eeaac28ec3f61d100daf4d40471f185281565b60105481565b600d5481565b60075481565b60055481565b600b5481565b7317c1ae82d99379240059940093762c5e4539aba581565b600360009054906101000a900473ffffffffffffffffffffffffffffffffffffffff1681565b60136020528060005260406000206000915090505481565b600e5481565b73a0b86991c6218b36c1d19d4a2e9eb0ce3606eb4881565b600080600267ffffffffffffffff811115610acc57610acb611804565b5b604051908082528060200260200182016040528015610afa5781602001602082028036833780820191505090505b50905073c02aaa39b223fe8d0a0e5c4f27ead9083c756cc281600081518110610b2657610b25611833565b5b602002602001019073ffffffffffffffffffffffffffffffffffffffff16908173ffffffffffffffffffffffffffffffffffffffff1681525050736b175474e89094c44da98b954eedeac495271d0f81600181518110610b8957610b88611833565b5b602002602001019073ffffffffffffffffffffffffffffffffffffffff16908173ffffffffffffffffffffffffffffffffffffffff168152505073c02aaa39b223fe8d0a0e5c4f27ead9083c756cc273ffffffffffffffffffffffffffffffffffffffff166323b872dd3330866040518463ffffffff1660e01b8152600401610c1493929190611862565b602060405180830381600087803b158015610c2e57600080fd5b505af1158015610c42573d6000803e3d6000fd5b505050506040513d601f19601f82011682018060405250810190610c6691906118d1565b50610c7381846000611266565b736b175474e89094c44da98b954eedeac495271d0f73ffffffffffffffffffffffffffffffffffffffff166370a08231306040518263ffffffff1660e01b8152600401610cc091906114f3565b60206040518083038186803b158015610cd857600080fd5b505afa158015610cec573d6000803e3d6000fd5b505050506040513d601f19601f82011682018060405250810190610d109190611913565b91508260086000828254610d249190611673565b925050819055508160076000828254610d3d9190611729565b92505081905550736b175474e89094c44da98b954eedeac495271d0f73ffffffffffffffffffffffffffffffffffffffff1663a9059cbb33846040518363ffffffff1660e01b8152600401610d93929190611940565b602060405180830381600087803b158015610dad57600080fd5b505af1158015610dc1573d6000803e3d6000fd5b505050506040513d601f19601f82011682018060405250810190610de591906118d1565b507f31c309ecd457dce7604a286d63a4b470e321337fb9877ce63c1109e1003c89f63373c02aaa39b223fe8d0a0e5c4f27ead9083c756cc285736b175474e89094c44da98b954eedeac495271d0f8660075460085442604051610e4f989796959493929190611969565b60405180910390a150919050565b600a5481565b600080600267ffffffffffffffff811115610e8157610e80611804565b5b604051908082528060200260200182016040528015610eaf5781602001602082028036833780820191505090505b509050736b175474e89094c44da98b954eedeac495271d0f81600081518110610edb57610eda611833565b5b602002602001019073ffffffffffffffffffffffffffffffffffffffff16908173ffffffffffffffffffffffffffffffffffffffff168152505073c02aaa39b223fe8d0a0e5c4f27ead9083c756cc281600181518110610f3e57610f3d611833565b5b602002602001019073ffffffffffffffffffffffffffffffffffffffff16908173ffffffffffffffffffffffffffffffffffffffff1681525050736b175474e89094c44da98b954eedeac495271d0f73ffffffffffffffffffffffffffffffffffffffff166323b872dd3330866040518463ffffffff1660e01b8152600401610fc993929190611862565b602060405180830381600087803b158015610fe357600080fd5b505af1158015610ff7573d6000803e3d6000fd5b505050506040513d601f19601f8201168201806040525081019061101b91906118d1565b5061102881846000611266565b73c02aaa39b223fe8d0a0e5c4f27ead9083c756cc273ffffffffffffffffffffffffffffffffffffffff166370a08231306040518263ffffffff1660e01b815260040161107591906114f3565b60206040518083038186803b15801561108d57600080fd5b505afa1580156110a1573d6000803e3d6000fd5b505050506040513d601f19601f820116820180604052508101906110c59190611913565b915082600560008282546110d99190611673565b9250508190555081600660008282546110f29190611729565b9250508190555073c02aaa39b223fe8d0a0e5c4f27ead9083c756cc273ffffffffffffffffffffffffffffffffffffffff1663a9059cbb33846040518363ffffffff1660e01b8152600401611148929190611940565b602060405180830381600087803b15801561116257600080fd5b505af1158015611176573d6000803e3d6000fd5b505050506040513d601f19601f8201168201806040525081019061119a91906118d1565b507f31c309ecd457dce7604a286d63a4b470e321337fb9877ce63c1109e1003c89f633736b175474e89094c44da98b954eedeac495271d0f8573c02aaa39b223fe8d0a0e5c4f27ead9083c756cc28660055460065442604051611204989796959493929190611969565b60405180910390a150919050565b60008054906101000a900473ffffffffffffffffffffffffffffffffffffffff1681565b736ff62bfb8c12109e8000935a6de54dad83a4f39f81565b73dac17f958d2ee523a2206206994597c13d831ec781565b8260008151811061127a57611279611833565b5b602002602001015173ffffffffffffffffffffffffffffffffffffffff1663095ea7b37f0000000000000000000000000000000000000000000000000000000000000000846040518363ffffffff1660e01b81526004016112dc929190611940565b602060405180830381600087803b1580156112f657600080fd5b505af115801561130a573d6000803e3d6000fd5b505050506040513d601f19601f8201168201806040525081019061132e91906118d1565b61136d576040517f08c379a000000000000000000000000000000000000000000000000000000000815260040161136490611a33565b60405180910390fd5b7f000000000000000000000000000000000000000000000000000000000000000073ffffffffffffffffffffffffffffffffffffffff166338ed1739838386306104b0426113bb9190611673565b6040518663ffffffff1660e01b81526004016113db959493929190611b11565b600060405180830381600087803b1580156113f557600080fd5b505af1158015611409573d6000803e3d6000fd5b505050506040513d6000823e3d601f19601f820116820180604052508101906114329190611c95565b50505050565b600073ffffffffffffffffffffffffffffffffffffffff82169050919050565b6000819050919050565b600061147d61147861147384611438565b611458565b611438565b9050919050565b600061148f82611462565b9050919050565b60006114a182611484565b9050919050565b6114b181611496565b82525050565b60006020820190506114cc60008301846114a8565b92915050565b60006114dd82611438565b9050919050565b6114ed816114d2565b82525050565b600060208201905061150860008301846114e4565b92915050565b6000819050919050565b6115218161150e565b82525050565b600060208201905061153c6000830184611518565b92915050565b600061154d82611484565b9050919050565b61155d81611542565b82525050565b60006020820190506115786000830184611554565b92915050565b6000604051905090565b600080fd5b600080fd5b61159b8161150e565b81146115a657600080fd5b50565b6000813590506115b881611592565b92915050565b6000602082840312156115d4576115d3611588565b5b60006115e2848285016115a9565b91505092915050565b6115f4816114d2565b81146115ff57600080fd5b50565b600081359050611611816115eb565b92915050565b60006020828403121561162d5761162c611588565b5b600061163b84828501611602565b91505092915050565b7f4e487b7100000000000000000000000000000000000000000000000000000000600052601160045260246000fd5b600061167e8261150e565b91506116898361150e565b9250827fffffffffffffffffffffffffffffffffffffffffffffffffffffffffffffffff038211156116be576116bd611644565b5b828201905092915050565b7f4e487b7100000000000000000000000000000000000000000000000000000000600052601260045260246000fd5b60006117038261150e565b915061170e8361150e565b92508261171e5761171d6116c9565b5b828204905092915050565b60006117348261150e565b915061173f8361150e565b92508282101561175257611751611644565b5b828203905092915050565b60006117688261150e565b9150600082141561177c5761177b611644565b5b600182039050919050565b600082825260208201905092915050565b7f7377617020616d6f756e7420746f6f206c617267650000000000000000000000600082015250565b60006117ce601583611787565b91506117d982611798565b602082019050919050565b600060208201905081810360008301526117fd816117c1565b9050919050565b7f4e487b7100000000000000000000000000000000000000000000000000000000600052604160045260246000fd5b7f4e487b7100000000000000000000000000000000000000000000000000000000600052603260045260246000fd5b600060608201905061187760008301866114e4565b61188460208301856114e4565b6118916040830184611518565b949350505050565b60008115159050919050565b6118ae81611899565b81146118b957600080fd5b50565b6000815190506118cb816118a5565b92915050565b6000602082840312156118e7576118e6611588565b5b60006118f5848285016118bc565b91505092915050565b60008151905061190d81611592565b92915050565b60006020828403121561192957611928611588565b5b6000611937848285016118fe565b91505092915050565b600060408201905061195560008301856114e4565b6119626020830184611518565b9392505050565b60006101008201905061197f600083018b6114e4565b61198c602083018a6114e4565b6119996040830189611518565b6119a660608301886114e4565b6119b36080830187611518565b6119c060a0830186611518565b6119cd60c0830185611518565b6119da60e0830184611518565b9998505050505050505050565b7f556e697377617020617070726f76616c206661696c65642e0000000000000000600082015250565b6000611a1d601883611787565b9150611a28826119e7565b602082019050919050565b60006020820190508181036000830152611a4c81611a10565b9050919050565b600081519050919050565b600082825260208201905092915050565b6000819050602082019050919050565b611a88816114d2565b82525050565b6000611a9a8383611a7f565b60208301905092915050565b6000602082019050919050565b6000611abe82611a53565b611ac88185611a5e565b9350611ad383611a6f565b8060005b83811015611b04578151611aeb8882611a8e565b9750611af683611aa6565b925050600181019050611ad7565b5085935050505092915050565b600060a082019050611b266000830188611518565b611b336020830187611518565b8181036040830152611b458186611ab3565b9050611b5460608301856114e4565b611b616080830184611518565b9695505050505050565b600080fd5b6000601f19601f8301169050919050565b611b8a82611b70565b810181811067ffffffffffffffff82111715611ba957611ba8611804565b5b80604052505050565b6000611bbc61157e565b9050611bc88282611b81565b919050565b600067ffffffffffffffff821115611be857611be7611804565b5b602082029050602081019050919050565b600080fd5b6000611c11611c0c84611bcd565b611bb2565b90508083825260208201905060208402830185811115611c3457611c33611bf9565b5b835b81811015611c5d5780611c4988826118fe565b845260208401935050602081019050611c36565b5050509392505050565b600082601f830112611c7c57611c7b611b6b565b5b8151611c8c848260208601611bfe565b91505092915050565b600060208284031215611cab57611caa611588565b5b600082015167ffffffffffffffff811115611cc957611cc861158d565b5b611cd584828501611c67565b9150509291505056fea26469706673582212202a3b76055bc84efa4f967ab539b8581e2c061d2dec05bc2e8569df34f2debfb464736f6c63430008090033",
  "linkReferences": {},
  "deployedLinkReferences": {}
}