{
  "_format": "hh-sol-artifact-1",
  "contractName": "Aggregator",
  "sourceName": "contracts/Aggregator.sol",
  "abi": [
    {
      "inputs": [],
      "stateMutability": "nonpayable",
      "type": "constructor"
    },
    {
      "anonymous": false,
      "inputs": [
        {
          "indexed": false,
          "internalType": "address",
          "name": "user",
          "type": "address"
        },
        {
          "indexed": false,
          "internalType": "address",
          "name": "tokenGive",
          "type": "address"
        },
        {
          "indexed": false,
          "internalType": "uint256",
          "name": "tokenGiveAmount",
          "type": "uint256"
        },
        {
          "indexed": false,
          "internalType": "address",
          "name": "tokenGet",
          "type": "address"
        },
        {
          "indexed": false,
          "internalType": "uint256",
          "name": "tokenGetAmount",
          "type": "uint256"
        },
        {
          "indexed": false,
          "internalType": "uint256",
          "name": "token1Balance",
          "type": "uint256"
        },
        {
          "indexed": false,
          "internalType": "uint256",
          "name": "token2Balance",
          "type": "uint256"
        },
        {
          "indexed": false,
          "internalType": "uint256",
          "name": "timestamp",
          "type": "uint256"
        }
      ],
      "name": "Swap",
      "type": "event"
    },
    {
      "inputs": [],
      "name": "K",
      "outputs": [
        {
          "internalType": "uint256",
          "name": "",
          "type": "uint256"
        }
      ],
      "stateMutability": "view",
      "type": "function"
    },
    {
      "inputs": [],
      "name": "K1",
      "outputs": [
        {
          "internalType": "uint256",
          "name": "",
          "type": "uint256"
        }
      ],
      "stateMutability": "view",
      "type": "function"
    },
    {
      "inputs": [],
      "name": "K2",
      "outputs": [
        {
          "internalType": "uint256",
          "name": "",
          "type": "uint256"
        }
      ],
      "stateMutability": "view",
      "type": "function"
    },
    {
      "inputs": [],
      "name": "K3",
      "outputs": [
        {
          "internalType": "uint256",
          "name": "",
          "type": "uint256"
        }
      ],
      "stateMutability": "view",
      "type": "function"
    },
    {
      "inputs": [],
      "name": "K4",
      "outputs": [
        {
          "internalType": "uint256",
          "name": "",
          "type": "uint256"
        }
      ],
      "stateMutability": "view",
      "type": "function"
    },
    {
      "inputs": [],
      "name": "USDC",
      "outputs": [
        {
          "internalType": "contract IWETH",
          "name": "",
          "type": "address"
        }
      ],
      "stateMutability": "view",
      "type": "function"
    },
    {
      "inputs": [],
      "name": "USDCAddress",
      "outputs": [
        {
          "internalType": "address",
          "name": "",
          "type": "address"
        }
      ],
      "stateMutability": "view",
      "type": "function"
    },
    {
      "inputs": [],
      "name": "USDT",
      "outputs": [
        {
          "internalType": "contract IWETH",
          "name": "",
          "type": "address"
        }
      ],
      "stateMutability": "view",
      "type": "function"
    },
    {
      "inputs": [],
      "name": "USDTAddress",
      "outputs": [
        {
          "internalType": "address",
          "name": "",
          "type": "address"
        }
      ],
      "stateMutability": "view",
      "type": "function"
    },
    {
      "inputs": [
        {
          "internalType": "uint256",
          "name": "_token1Amount",
          "type": "uint256"
        }
      ],
      "name": "calculateDaiSwap",
      "outputs": [
        {
          "internalType": "uint256",
          "name": "token2Amount",
          "type": "uint256"
        }
      ],
      "stateMutability": "view",
      "type": "function"
    },
    {
      "inputs": [
        {
          "internalType": "uint256",
          "name": "_token2Amount",
          "type": "uint256"
        }
      ],
      "name": "calculateWethSwap",
      "outputs": [
        {
          "internalType": "uint256",
          "name": "token1Amount",
          "type": "uint256"
        }
      ],
      "stateMutability": "view",
      "type": "function"
    },
    {
      "inputs": [],
      "name": "dai",
      "outputs": [
        {
          "internalType": "contract IWETH",
          "name": "",
          "type": "address"
        }
      ],
      "stateMutability": "view",
      "type": "function"
    },
    {
      "inputs": [],
      "name": "daiAddress",
      "outputs": [
        {
          "internalType": "address",
          "name": "",
          "type": "address"
        }
      ],
      "stateMutability": "view",
      "type": "function"
    },
    {
      "inputs": [],
      "name": "daiWETHpool",
      "outputs": [
        {
          "internalType": "address",
          "name": "",
          "type": "address"
        }
      ],
      "stateMutability": "view",
      "type": "function"
    },
    {
      "inputs": [],
      "name": "daiWETHpool2",
      "outputs": [
        {
          "internalType": "address",
          "name": "",
          "type": "address"
        }
      ],
      "stateMutability": "view",
      "type": "function"
    },
    {
      "inputs": [],
      "name": "owner",
      "outputs": [
        {
          "internalType": "address",
          "name": "",
          "type": "address"
        }
      ],
      "stateMutability": "view",
      "type": "function"
    },
    {
      "inputs": [],
      "name": "pool1daiBalance",
      "outputs": [
        {
          "internalType": "uint256",
          "name": "",
          "type": "uint256"
        }
      ],
      "stateMutability": "view",
      "type": "function"
    },
    {
      "inputs": [],
      "name": "pool1wethBalance",
      "outputs": [
        {
          "internalType": "uint256",
          "name": "",
          "type": "uint256"
        }
      ],
      "stateMutability": "view",
      "type": "function"
    },
    {
      "inputs": [],
      "name": "pool2daiBalance",
      "outputs": [
        {
          "internalType": "uint256",
          "name": "",
          "type": "uint256"
        }
      ],
      "stateMutability": "view",
      "type": "function"
    },
    {
      "inputs": [],
      "name": "pool2wethBalance",
      "outputs": [
        {
          "internalType": "uint256",
          "name": "",
          "type": "uint256"
        }
      ],
      "stateMutability": "view",
      "type": "function"
    },
    {
      "inputs": [],
      "name": "pool3daiBalance",
      "outputs": [
        {
          "internalType": "uint256",
          "name": "",
          "type": "uint256"
        }
      ],
      "stateMutability": "view",
      "type": "function"
    },
    {
      "inputs": [],
      "name": "pool3wethBalance",
      "outputs": [
        {
          "internalType": "uint256",
          "name": "",
          "type": "uint256"
        }
      ],
      "stateMutability": "view",
      "type": "function"
    },
    {
      "inputs": [],
      "name": "pool4daiBalance",
      "outputs": [
        {
          "internalType": "uint256",
          "name": "",
          "type": "uint256"
        }
      ],
      "stateMutability": "view",
      "type": "function"
    },
    {
      "inputs": [],
      "name": "pool4wethBalance",
      "outputs": [
        {
          "internalType": "uint256",
          "name": "",
          "type": "uint256"
        }
      ],
      "stateMutability": "view",
      "type": "function"
    },
    {
      "inputs": [],
      "name": "sRouter",
      "outputs": [
        {
          "internalType": "contract IUniswapV2Router02",
          "name": "",
          "type": "address"
        }
      ],
      "stateMutability": "view",
      "type": "function"
    },
    {
      "inputs": [
        {
          "internalType": "address",
          "name": "",
          "type": "address"
        }
      ],
      "name": "shares",
      "outputs": [
        {
          "internalType": "uint256",
          "name": "",
          "type": "uint256"
        }
      ],
      "stateMutability": "view",
      "type": "function"
    },
    {
      "inputs": [],
      "name": "sushiDaiWethPool",
      "outputs": [
        {
          "internalType": "address",
          "name": "",
          "type": "address"
        }
      ],
      "stateMutability": "view",
      "type": "function"
    },
    {
      "inputs": [
        {
          "internalType": "uint256",
          "name": "_token1Amount",
          "type": "uint256"
        }
      ],
      "name": "sushiswap1",
      "outputs": [
        {
          "internalType": "uint256",
          "name": "token2Amount",
          "type": "uint256"
        }
      ],
      "stateMutability": "nonpayable",
      "type": "function"
    },
    {
      "inputs": [
        {
          "internalType": "uint256",
          "name": "_token2Amount",
          "type": "uint256"
        }
      ],
      "name": "sushiswap2",
      "outputs": [
        {
          "internalType": "uint256",
          "name": "token1Amount",
          "type": "uint256"
        }
      ],
      "stateMutability": "nonpayable",
      "type": "function"
    },
    {
      "inputs": [],
      "name": "sushiswapV2Router",
      "outputs": [
        {
          "internalType": "address",
          "name": "",
          "type": "address"
        }
      ],
      "stateMutability": "view",
      "type": "function"
    },
    {
      "inputs": [],
      "name": "totalShares",
      "outputs": [
        {
          "internalType": "uint256",
          "name": "",
          "type": "uint256"
        }
      ],
      "stateMutability": "view",
      "type": "function"
    },
    {
      "inputs": [],
      "name": "uRouter",
      "outputs": [
        {
          "internalType": "contract IUniswapV2Router02",
          "name": "",
          "type": "address"
        }
      ],
      "stateMutability": "view",
      "type": "function"
    },
    {
      "inputs": [
        {
          "internalType": "uint256",
          "name": "_token1Amount",
          "type": "uint256"
        }
      ],
      "name": "uniswap1",
      "outputs": [
        {
          "internalType": "uint256",
          "name": "token2Amount",
          "type": "uint256"
        }
      ],
      "stateMutability": "nonpayable",
      "type": "function"
    },
    {
      "inputs": [
        {
          "internalType": "uint256",
          "name": "_token2Amount",
          "type": "uint256"
        }
      ],
      "name": "uniswap2",
      "outputs": [
        {
          "internalType": "uint256",
          "name": "token1Amount",
          "type": "uint256"
        }
      ],
      "stateMutability": "nonpayable",
      "type": "function"
    },
    {
      "inputs": [],
      "name": "uniswapV2Router",
      "outputs": [
        {
          "internalType": "address",
          "name": "",
          "type": "address"
        }
      ],
      "stateMutability": "view",
      "type": "function"
    },
    {
      "inputs": [],
      "name": "weth",
      "outputs": [
        {
          "internalType": "contract IWETH",
          "name": "",
          "type": "address"
        }
      ],
      "stateMutability": "view",
      "type": "function"
    },
    {
      "inputs": [],
      "name": "wethAddress",
      "outputs": [
        {
          "internalType": "address",
          "name": "",
          "type": "address"
        }
      ],
      "stateMutability": "view",
      "type": "function"
    },
    {
      "inputs": [],
      "name": "wethDAIpool",
      "outputs": [
        {
          "internalType": "address",
          "name": "",
          "type": "address"
        }
      ],
      "stateMutability": "view",
      "type": "function"
    }
  ],
  "bytecode": "0x60c06040523480156200001157600080fd5b50736b175474e89094c44da98b954eedeac495271d0f73ffffffffffffffffffffffffffffffffffffffff166370a0823173c2e9f25be6257c210d7adf0d4cd6e3e881ba25f86040518263ffffffff1660e01b815260040162000075919062000776565b60206040518083038186803b1580156200008e57600080fd5b505afa158015620000a3573d6000803e3d6000fd5b505050506040513d601f19601f82011682018060405250810190620000c99190620007d3565b60058190555073c02aaa39b223fe8d0a0e5c4f27ead9083c756cc273ffffffffffffffffffffffffffffffffffffffff166370a0823173c2e9f25be6257c210d7adf0d4cd6e3e881ba25f86040518263ffffffff1660e01b815260040162000132919062000776565b60206040518083038186803b1580156200014b57600080fd5b505afa15801562000160573d6000803e3d6000fd5b505050506040513d601f19601f82011682018060405250810190620001869190620007d3565b600681905550736b175474e89094c44da98b954eedeac495271d0f73ffffffffffffffffffffffffffffffffffffffff166370a0823173a478c2975ab1ea89e8196811f51a7b7ade33eb116040518263ffffffff1660e01b8152600401620001ef919062000776565b60206040518083038186803b1580156200020857600080fd5b505afa1580156200021d573d6000803e3d6000fd5b505050506040513d601f19601f82011682018060405250810190620002439190620007d3565b60078190555073c02aaa39b223fe8d0a0e5c4f27ead9083c756cc273ffffffffffffffffffffffffffffffffffffffff166370a0823173a478c2975ab1ea89e8196811f51a7b7ade33eb116040518263ffffffff1660e01b8152600401620002ac919062000776565b60206040518083038186803b158015620002c557600080fd5b505afa158015620002da573d6000803e3d6000fd5b505050506040513d601f19601f82011682018060405250810190620003009190620007d3565b60088190555060065460055462000318919062000834565b600e8190555060085460075462000330919062000834565b600f81905550736b175474e89094c44da98b954eedeac495271d0f73ffffffffffffffffffffffffffffffffffffffff166370a0823173c3d03e4f041fd4cd388c549ee2a29a9e5075882f6040518263ffffffff1660e01b815260040162000399919062000776565b60206040518083038186803b158015620003b257600080fd5b505afa158015620003c7573d6000803e3d6000fd5b505050506040513d601f19601f82011682018060405250810190620003ed9190620007d3565b60098190555073c02aaa39b223fe8d0a0e5c4f27ead9083c756cc273ffffffffffffffffffffffffffffffffffffffff166370a0823173c3d03e4f041fd4cd388c549ee2a29a9e5075882f6040518263ffffffff1660e01b815260040162000456919062000776565b60206040518083038186803b1580156200046f57600080fd5b505afa15801562000484573d6000803e3d6000fd5b505050506040513d601f19601f82011682018060405250810190620004aa9190620007d3565b600a81905550736b175474e89094c44da98b954eedeac495271d0f73ffffffffffffffffffffffffffffffffffffffff166370a0823173c3d03e4f041fd4cd388c549ee2a29a9e5075882f6040518263ffffffff1660e01b815260040162000513919062000776565b60206040518083038186803b1580156200052c57600080fd5b505afa15801562000541573d6000803e3d6000fd5b505050506040513d601f19601f82011682018060405250810190620005679190620007d3565b600b8190555073c02aaa39b223fe8d0a0e5c4f27ead9083c756cc273ffffffffffffffffffffffffffffffffffffffff166370a0823173c3d03e4f041fd4cd388c549ee2a29a9e5075882f6040518263ffffffff1660e01b8152600401620005d0919062000776565b60206040518083038186803b158015620005e957600080fd5b505afa158015620005fe573d6000803e3d6000fd5b505050506040513d601f19601f82011682018060405250810190620006249190620007d3565b600c81905550600a546009546200063c919062000834565b601081905550600c54600b5462000654919062000834565b60118190555033600460006101000a81548173ffffffffffffffffffffffffffffffffffffffff021916908373ffffffffffffffffffffffffffffffffffffffff160217905550737a250d5630b4cf539739df2c5dacb4c659f2488d73ffffffffffffffffffffffffffffffffffffffff1660808173ffffffffffffffffffffffffffffffffffffffff168152505073d9e1ce17f2641f24ae83637ab66a2cca9c378b9f73ffffffffffffffffffffffffffffffffffffffff1660a08173ffffffffffffffffffffffffffffffffffffffff168152505062000895565b600073ffffffffffffffffffffffffffffffffffffffff82169050919050565b60006200075e8262000731565b9050919050565b620007708162000751565b82525050565b60006020820190506200078d600083018462000765565b92915050565b600080fd5b6000819050919050565b620007ad8162000798565b8114620007b957600080fd5b50565b600081519050620007cd81620007a2565b92915050565b600060208284031215620007ec57620007eb62000793565b5b6000620007fc84828501620007bc565b91505092915050565b7f4e487b7100000000000000000000000000000000000000000000000000000000600052601160045260246000fd5b6000620008418262000798565b91506200084e8362000798565b9250817fffffffffffffffffffffffffffffffffffffffffffffffffffffffffffffffff04831182151516156200088a576200088962000805565b5b828202905092915050565b60805160a051612663620008d76000396000818161072b015281816119b00152611a80015260008181610c8301528181611b820152611c5201526126636000f3fe608060405234801561001057600080fd5b50600436106102325760003560e01c80636703f80a11610130578063bd4c4c1c116100b8578063ef5a814e1161007c578063ef5a814e1461066f578063f1f6acf31461069f578063f2c815c7146106bd578063f4b9fa75146106ed578063ff920c741461070b57610232565b8063bd4c4c1c146105c7578063c54e44eb146105e5578063ce7c2ac214610603578063e89f8be714610633578063e93032091461065157610232565b8063a3ec761d116100ff578063a3ec761d1461051f578063a932492f1461053d578063b36c6aab1461055b578063b8540eb314610579578063bc13fbc7146105a957610232565b80636703f80a1461049557806389a30271146104c55780638a01ece9146104e35780638da5cb5b1461050157610232565b80633aded128116101be5780634f0e0ef3116101825780634f0e0ef3146103ff5780635b3b06ae1461041d5780635cf390491461043b5780635e05ba171461045957806361b473351461047757610232565b80633aded128146103455780633f32118f146103755780633fc8cef3146103935780634328bfa2146103b157806343e3b5b9146103e157610232565b80632c387275116102055780632c387275146102af5780632cd7edad146102cd578063382d37df146102eb57806338c6cdd5146103095780633a98ef391461032757610232565b8063017c64b0146102375780631694505e146102555780631ca7d4b91461027357806326a6a06614610291575b600080fd5b61023f610729565b60405161024c9190611d9a565b60405180910390f35b61025d61074d565b60405161026a9190611dd6565b60405180910390f35b61027b610765565b6040516102889190611e0a565b60405180910390f35b61029961076b565b6040516102a69190611dd6565b60405180910390f35b6102b7610783565b6040516102c49190611dd6565b60405180910390f35b6102d561079b565b6040516102e29190611dd6565b60405180910390f35b6102f36107b3565b6040516103009190611e0a565b60405180910390f35b6103116107b9565b60405161031e9190611dd6565b60405180910390f35b61032f6107d1565b60405161033c9190611e0a565b60405180910390f35b61035f600480360381019061035a9190611e65565b6107d7565b60405161036c9190611e0a565b60405180910390f35b61037d610b86565b60405161038a9190611e0a565b60405180910390f35b61039b610b8c565b6040516103a89190611eb3565b60405180910390f35b6103cb60048036038101906103c69190611e65565b610bb2565b6040516103d89190611e0a565b60405180910390f35b6103e9610c4b565b6040516103f69190611dd6565b60405180910390f35b610407610c63565b6040516104149190611dd6565b60405180910390f35b610425610c7b565b6040516104329190611e0a565b60405180910390f35b610443610c81565b6040516104509190611d9a565b60405180910390f35b610461610ca5565b60405161046e9190611dd6565b60405180910390f35b61047f610cbd565b60405161048c9190611e0a565b60405180910390f35b6104af60048036038101906104aa9190611e65565b610cc3565b6040516104bc9190611e0a565b60405180910390f35b6104cd610d5c565b6040516104da9190611eb3565b60405180910390f35b6104eb610d82565b6040516104f89190611e0a565b60405180910390f35b610509610d88565b6040516105169190611dd6565b60405180910390f35b610527610dae565b6040516105349190611e0a565b60405180910390f35b610545610db4565b6040516105529190611e0a565b60405180910390f35b610563610dba565b6040516105709190611e0a565b60405180910390f35b610593600480360381019061058e9190611e65565b610dc0565b6040516105a09190611e0a565b60405180910390f35b6105b161116f565b6040516105be9190611e0a565b60405180910390f35b6105cf611175565b6040516105dc9190611e0a565b60405180910390f35b6105ed61117b565b6040516105fa9190611eb3565b60405180910390f35b61061d60048036038101906106189190611efa565b6111a1565b60405161062a9190611e0a565b60405180910390f35b61063b6111b9565b6040516106489190611e0a565b60405180910390f35b6106596111bf565b6040516106669190611dd6565b60405180910390f35b61068960048036038101906106849190611e65565b6111d7565b6040516106969190611e0a565b60405180910390f35b6106a7611586565b6040516106b49190611e0a565b60405180910390f35b6106d760048036038101906106d29190611e65565b61158c565b6040516106e49190611e0a565b60405180910390f35b6106f561193b565b6040516107029190611eb3565b60405180910390f35b61071361195f565b6040516107209190611dd6565b60405180910390f35b7f000000000000000000000000000000000000000000000000000000000000000081565b737a250d5630b4cf539739df2c5dacb4c659f2488d81565b60095481565b73c2e9f25be6257c210d7adf0d4cd6e3e881ba25f881565b736b175474e89094c44da98b954eedeac495271d0f81565b73a478c2975ab1ea89e8196811f51a7b7ade33eb1181565b60065481565b73d9e1ce17f2641f24ae83637ab66a2cca9c378b9f81565b60125481565b600080600267ffffffffffffffff8111156107f5576107f4611f27565b5b6040519080825280602002602001820160405280156108235781602001602082028036833780820191505090505b509050736b175474e89094c44da98b954eedeac495271d0f8160008151811061084f5761084e611f56565b5b602002602001019073ffffffffffffffffffffffffffffffffffffffff16908173ffffffffffffffffffffffffffffffffffffffff168152505073c02aaa39b223fe8d0a0e5c4f27ead9083c756cc2816001815181106108b2576108b1611f56565b5b602002602001019073ffffffffffffffffffffffffffffffffffffffff16908173ffffffffffffffffffffffffffffffffffffffff1681525050736b175474e89094c44da98b954eedeac495271d0f73ffffffffffffffffffffffffffffffffffffffff166323b872dd3330866040518463ffffffff1660e01b815260040161093d93929190611f85565b602060405180830381600087803b15801561095757600080fd5b505af115801561096b573d6000803e3d6000fd5b505050506040513d601f19601f8201168201806040525081019061098f9190611ff4565b5061099c81846000611977565b73c02aaa39b223fe8d0a0e5c4f27ead9083c756cc273ffffffffffffffffffffffffffffffffffffffff166370a08231306040518263ffffffff1660e01b81526004016109e99190611dd6565b60206040518083038186803b158015610a0157600080fd5b505afa158015610a15573d6000803e3d6000fd5b505050506040513d601f19601f82011682018060405250810190610a399190612036565b91508260096000828254610a4d9190612092565b9250508190555081600a6000828254610a6691906120e8565b9250508190555073c02aaa39b223fe8d0a0e5c4f27ead9083c756cc273ffffffffffffffffffffffffffffffffffffffff1663a9059cbb33846040518363ffffffff1660e01b8152600401610abc92919061211c565b602060405180830381600087803b158015610ad657600080fd5b505af1158015610aea573d6000803e3d6000fd5b505050506040513d601f19601f82011682018060405250810190610b0e9190611ff4565b507f31c309ecd457dce7604a286d63a4b470e321337fb9877ce63c1109e1003c89f633736b175474e89094c44da98b954eedeac495271d0f8573c02aaa39b223fe8d0a0e5c4f27ead9083c756cc28660055460065442604051610b78989796959493929190612145565b60405180910390a150919050565b60115481565b600160009054906101000a900473ffffffffffffffffffffffffffffffffffffffff1681565b60008082600854610bc39190612092565b9050600081600f54610bd591906121f2565b905080600754610be591906120e8565b9250600754831415610c00578280610bfc90612223565b9350505b6007548310610c44576040517f08c379a0000000000000000000000000000000000000000000000000000000008152600401610c3b906122aa565b60405180910390fd5b5050919050565b7360594a405d53811d3bc4766596efd80fd545a27081565b73c02aaa39b223fe8d0a0e5c4f27ead9083c756cc281565b600f5481565b7f000000000000000000000000000000000000000000000000000000000000000081565b73c3d03e4f041fd4cd388c549ee2a29a9e5075882f81565b600c5481565b60008082600554610cd49190612092565b9050600081600e54610ce691906121f2565b905080600654610cf691906120e8565b9250600654831415610d11578280610d0d90612223565b9350505b6006548310610d55576040517f08c379a0000000000000000000000000000000000000000000000000000000008152600401610d4c906122aa565b60405180910390fd5b5050919050565b600260009054906101000a900473ffffffffffffffffffffffffffffffffffffffff1681565b60085481565b600460009054906101000a900473ffffffffffffffffffffffffffffffffffffffff1681565b60105481565b600d5481565b60075481565b600080600267ffffffffffffffff811115610dde57610ddd611f27565b5b604051908082528060200260200182016040528015610e0c5781602001602082028036833780820191505090505b50905073c02aaa39b223fe8d0a0e5c4f27ead9083c756cc281600081518110610e3857610e37611f56565b5b602002602001019073ffffffffffffffffffffffffffffffffffffffff16908173ffffffffffffffffffffffffffffffffffffffff1681525050736b175474e89094c44da98b954eedeac495271d0f81600181518110610e9b57610e9a611f56565b5b602002602001019073ffffffffffffffffffffffffffffffffffffffff16908173ffffffffffffffffffffffffffffffffffffffff168152505073c02aaa39b223fe8d0a0e5c4f27ead9083c756cc273ffffffffffffffffffffffffffffffffffffffff166323b872dd3330866040518463ffffffff1660e01b8152600401610f2693929190611f85565b602060405180830381600087803b158015610f4057600080fd5b505af1158015610f54573d6000803e3d6000fd5b505050506040513d601f19601f82011682018060405250810190610f789190611ff4565b50610f8581846000611977565b736b175474e89094c44da98b954eedeac495271d0f73ffffffffffffffffffffffffffffffffffffffff166370a08231306040518263ffffffff1660e01b8152600401610fd29190611dd6565b60206040518083038186803b158015610fea57600080fd5b505afa158015610ffe573d6000803e3d6000fd5b505050506040513d601f19601f820116820180604052508101906110229190612036565b915082600a60008282546110369190612092565b92505081905550816009600082825461104f91906120e8565b92505081905550736b175474e89094c44da98b954eedeac495271d0f73ffffffffffffffffffffffffffffffffffffffff1663a9059cbb33846040518363ffffffff1660e01b81526004016110a592919061211c565b602060405180830381600087803b1580156110bf57600080fd5b505af11580156110d3573d6000803e3d6000fd5b505050506040513d601f19601f820116820180604052508101906110f79190611ff4565b507f31c309ecd457dce7604a286d63a4b470e321337fb9877ce63c1109e1003c89f63373c02aaa39b223fe8d0a0e5c4f27ead9083c756cc285736b175474e89094c44da98b954eedeac495271d0f8660075460085442604051611161989796959493929190612145565b60405180910390a150919050565b60055481565b600b5481565b600360009054906101000a900473ffffffffffffffffffffffffffffffffffffffff1681565b60136020528060005260406000206000915090505481565b600e5481565b73a0b86991c6218b36c1d19d4a2e9eb0ce3606eb4881565b600080600267ffffffffffffffff8111156111f5576111f4611f27565b5b6040519080825280602002602001820160405280156112235781602001602082028036833780820191505090505b50905073c02aaa39b223fe8d0a0e5c4f27ead9083c756cc28160008151811061124f5761124e611f56565b5b602002602001019073ffffffffffffffffffffffffffffffffffffffff16908173ffffffffffffffffffffffffffffffffffffffff1681525050736b175474e89094c44da98b954eedeac495271d0f816001815181106112b2576112b1611f56565b5b602002602001019073ffffffffffffffffffffffffffffffffffffffff16908173ffffffffffffffffffffffffffffffffffffffff168152505073c02aaa39b223fe8d0a0e5c4f27ead9083c756cc273ffffffffffffffffffffffffffffffffffffffff166323b872dd3330866040518463ffffffff1660e01b815260040161133d93929190611f85565b602060405180830381600087803b15801561135757600080fd5b505af115801561136b573d6000803e3d6000fd5b505050506040513d601f19601f8201168201806040525081019061138f9190611ff4565b5061139c81846000611b49565b736b175474e89094c44da98b954eedeac495271d0f73ffffffffffffffffffffffffffffffffffffffff166370a08231306040518263ffffffff1660e01b81526004016113e99190611dd6565b60206040518083038186803b15801561140157600080fd5b505afa158015611415573d6000803e3d6000fd5b505050506040513d601f19601f820116820180604052508101906114399190612036565b9150826008600082825461144d9190612092565b92505081905550816007600082825461146691906120e8565b92505081905550736b175474e89094c44da98b954eedeac495271d0f73ffffffffffffffffffffffffffffffffffffffff1663a9059cbb33846040518363ffffffff1660e01b81526004016114bc92919061211c565b602060405180830381600087803b1580156114d657600080fd5b505af11580156114ea573d6000803e3d6000fd5b505050506040513d601f19601f8201168201806040525081019061150e9190611ff4565b507f31c309ecd457dce7604a286d63a4b470e321337fb9877ce63c1109e1003c89f63373c02aaa39b223fe8d0a0e5c4f27ead9083c756cc285736b175474e89094c44da98b954eedeac495271d0f8660075460085442604051611578989796959493929190612145565b60405180910390a150919050565b600a5481565b600080600267ffffffffffffffff8111156115aa576115a9611f27565b5b6040519080825280602002602001820160405280156115d85781602001602082028036833780820191505090505b509050736b175474e89094c44da98b954eedeac495271d0f8160008151811061160457611603611f56565b5b602002602001019073ffffffffffffffffffffffffffffffffffffffff16908173ffffffffffffffffffffffffffffffffffffffff168152505073c02aaa39b223fe8d0a0e5c4f27ead9083c756cc28160018151811061166757611666611f56565b5b602002602001019073ffffffffffffffffffffffffffffffffffffffff16908173ffffffffffffffffffffffffffffffffffffffff1681525050736b175474e89094c44da98b954eedeac495271d0f73ffffffffffffffffffffffffffffffffffffffff166323b872dd3330866040518463ffffffff1660e01b81526004016116f293929190611f85565b602060405180830381600087803b15801561170c57600080fd5b505af1158015611720573d6000803e3d6000fd5b505050506040513d601f19601f820116820180604052508101906117449190611ff4565b5061175181846000611b49565b73c02aaa39b223fe8d0a0e5c4f27ead9083c756cc273ffffffffffffffffffffffffffffffffffffffff166370a08231306040518263ffffffff1660e01b815260040161179e9190611dd6565b60206040518083038186803b1580156117b657600080fd5b505afa1580156117ca573d6000803e3d6000fd5b505050506040513d601f19601f820116820180604052508101906117ee9190612036565b915082600560008282546118029190612092565b92505081905550816006600082825461181b91906120e8565b9250508190555073c02aaa39b223fe8d0a0e5c4f27ead9083c756cc273ffffffffffffffffffffffffffffffffffffffff1663a9059cbb33846040518363ffffffff1660e01b815260040161187192919061211c565b602060405180830381600087803b15801561188b57600080fd5b505af115801561189f573d6000803e3d6000fd5b505050506040513d601f19601f820116820180604052508101906118c39190611ff4565b507f31c309ecd457dce7604a286d63a4b470e321337fb9877ce63c1109e1003c89f633736b175474e89094c44da98b954eedeac495271d0f8573c02aaa39b223fe8d0a0e5c4f27ead9083c756cc2866005546006544260405161192d989796959493929190612145565b60405180910390a150919050565b60008054906101000a900473ffffffffffffffffffffffffffffffffffffffff1681565b73dac17f958d2ee523a2206206994597c13d831ec781565b8260008151811061198b5761198a611f56565b5b602002602001015173ffffffffffffffffffffffffffffffffffffffff1663095ea7b37f0000000000000000000000000000000000000000000000000000000000000000846040518363ffffffff1660e01b81526004016119ed92919061211c565b602060405180830381600087803b158015611a0757600080fd5b505af1158015611a1b573d6000803e3d6000fd5b505050506040513d601f19601f82011682018060405250810190611a3f9190611ff4565b611a7e576040517f08c379a0000000000000000000000000000000000000000000000000000000008152600401611a7590612316565b60405180910390fd5b7f000000000000000000000000000000000000000000000000000000000000000073ffffffffffffffffffffffffffffffffffffffff166338ed1739838386306104b042611acc9190612092565b6040518663ffffffff1660e01b8152600401611aec9594939291906123f4565b600060405180830381600087803b158015611b0657600080fd5b505af1158015611b1a573d6000803e3d6000fd5b505050506040513d6000823e3d601f19601f82011682018060405250810190611b439190612578565b50505050565b82600081518110611b5d57611b5c611f56565b5b602002602001015173ffffffffffffffffffffffffffffffffffffffff1663095ea7b37f0000000000000000000000000000000000000000000000000000000000000000846040518363ffffffff1660e01b8152600401611bbf92919061211c565b602060405180830381600087803b158015611bd957600080fd5b505af1158015611bed573d6000803e3d6000fd5b505050506040513d601f19601f82011682018060405250810190611c119190611ff4565b611c50576040517f08c379a0000000000000000000000000000000000000000000000000000000008152600401611c479061260d565b60405180910390fd5b7f000000000000000000000000000000000000000000000000000000000000000073ffffffffffffffffffffffffffffffffffffffff166338ed1739838386306104b042611c9e9190612092565b6040518663ffffffff1660e01b8152600401611cbe9594939291906123f4565b600060405180830381600087803b158015611cd857600080fd5b505af1158015611cec573d6000803e3d6000fd5b505050506040513d6000823e3d601f19601f82011682018060405250810190611d159190612578565b50505050565b600073ffffffffffffffffffffffffffffffffffffffff82169050919050565b6000819050919050565b6000611d60611d5b611d5684611d1b565b611d3b565b611d1b565b9050919050565b6000611d7282611d45565b9050919050565b6000611d8482611d67565b9050919050565b611d9481611d79565b82525050565b6000602082019050611daf6000830184611d8b565b92915050565b6000611dc082611d1b565b9050919050565b611dd081611db5565b82525050565b6000602082019050611deb6000830184611dc7565b92915050565b6000819050919050565b611e0481611df1565b82525050565b6000602082019050611e1f6000830184611dfb565b92915050565b6000604051905090565b600080fd5b600080fd5b611e4281611df1565b8114611e4d57600080fd5b50565b600081359050611e5f81611e39565b92915050565b600060208284031215611e7b57611e7a611e2f565b5b6000611e8984828501611e50565b91505092915050565b6000611e9d82611d67565b9050919050565b611ead81611e92565b82525050565b6000602082019050611ec86000830184611ea4565b92915050565b611ed781611db5565b8114611ee257600080fd5b50565b600081359050611ef481611ece565b92915050565b600060208284031215611f1057611f0f611e2f565b5b6000611f1e84828501611ee5565b91505092915050565b7f4e487b7100000000000000000000000000000000000000000000000000000000600052604160045260246000fd5b7f4e487b7100000000000000000000000000000000000000000000000000000000600052603260045260246000fd5b6000606082019050611f9a6000830186611dc7565b611fa76020830185611dc7565b611fb46040830184611dfb565b949350505050565b60008115159050919050565b611fd181611fbc565b8114611fdc57600080fd5b50565b600081519050611fee81611fc8565b92915050565b60006020828403121561200a57612009611e2f565b5b600061201884828501611fdf565b91505092915050565b60008151905061203081611e39565b92915050565b60006020828403121561204c5761204b611e2f565b5b600061205a84828501612021565b91505092915050565b7f4e487b7100000000000000000000000000000000000000000000000000000000600052601160045260246000fd5b600061209d82611df1565b91506120a883611df1565b9250827fffffffffffffffffffffffffffffffffffffffffffffffffffffffffffffffff038211156120dd576120dc612063565b5b828201905092915050565b60006120f382611df1565b91506120fe83611df1565b92508282101561211157612110612063565b5b828203905092915050565b60006040820190506121316000830185611dc7565b61213e6020830184611dfb565b9392505050565b60006101008201905061215b600083018b611dc7565b612168602083018a611dc7565b6121756040830189611dfb565b6121826060830188611dc7565b61218f6080830187611dfb565b61219c60a0830186611dfb565b6121a960c0830185611dfb565b6121b660e0830184611dfb565b9998505050505050505050565b7f4e487b7100000000000000000000000000000000000000000000000000000000600052601260045260246000fd5b60006121fd82611df1565b915061220883611df1565b925082612218576122176121c3565b5b828204905092915050565b600061222e82611df1565b9150600082141561224257612241612063565b5b600182039050919050565b600082825260208201905092915050565b7f7377617020616d6f756e7420746f6f206c617267650000000000000000000000600082015250565b600061229460158361224d565b915061229f8261225e565b602082019050919050565b600060208201905081810360008301526122c381612287565b9050919050565b7f53757368697377617020617070726f76616c206661696c65642e000000000000600082015250565b6000612300601a8361224d565b915061230b826122ca565b602082019050919050565b6000602082019050818103600083015261232f816122f3565b9050919050565b600081519050919050565b600082825260208201905092915050565b6000819050602082019050919050565b61236b81611db5565b82525050565b600061237d8383612362565b60208301905092915050565b6000602082019050919050565b60006123a182612336565b6123ab8185612341565b93506123b683612352565b8060005b838110156123e75781516123ce8882612371565b97506123d983612389565b9250506001810190506123ba565b5085935050505092915050565b600060a0820190506124096000830188611dfb565b6124166020830187611dfb565b81810360408301526124288186612396565b90506124376060830185611dc7565b6124446080830184611dfb565b9695505050505050565b600080fd5b6000601f19601f8301169050919050565b61246d82612453565b810181811067ffffffffffffffff8211171561248c5761248b611f27565b5b80604052505050565b600061249f611e25565b90506124ab8282612464565b919050565b600067ffffffffffffffff8211156124cb576124ca611f27565b5b602082029050602081019050919050565b600080fd5b60006124f46124ef846124b0565b612495565b90508083825260208201905060208402830185811115612517576125166124dc565b5b835b81811015612540578061252c8882612021565b845260208401935050602081019050612519565b5050509392505050565b600082601f83011261255f5761255e61244e565b5b815161256f8482602086016124e1565b91505092915050565b60006020828403121561258e5761258d611e2f565b5b600082015167ffffffffffffffff8111156125ac576125ab611e34565b5b6125b88482850161254a565b91505092915050565b7f556e697377617020617070726f76616c206661696c65642e0000000000000000600082015250565b60006125f760188361224d565b9150612602826125c1565b602082019050919050565b60006020820190508181036000830152612626816125ea565b905091905056fea2646970667358221220c3397f01e0f7626d984a5b8f3e5a55833b1f44769a0d382ba0784ec1c6532e4f64736f6c63430008090033",
  "linkReferences": {},
  "deployedLinkReferences": {}
}