{
  "_format": "hh-sol-artifact-1",
  "contractName": "Aggregator",
  "sourceName": "contracts/Aggregator.sol",
  "abi": [
    {
      "inputs": [],
      "stateMutability": "nonpayable",
      "type": "constructor"
    },
    {
      "anonymous": false,
      "inputs": [
        {
          "indexed": false,
          "internalType": "address",
          "name": "user",
          "type": "address"
        },
        {
          "indexed": false,
          "internalType": "address",
          "name": "tokenGive",
          "type": "address"
        },
        {
          "indexed": false,
          "internalType": "uint256",
          "name": "tokenGiveAmount",
          "type": "uint256"
        },
        {
          "indexed": false,
          "internalType": "address",
          "name": "tokenGet",
          "type": "address"
        },
        {
          "indexed": false,
          "internalType": "uint256",
          "name": "tokenGetAmount",
          "type": "uint256"
        },
        {
          "indexed": false,
          "internalType": "uint256",
          "name": "token1Balance",
          "type": "uint256"
        },
        {
          "indexed": false,
          "internalType": "uint256",
          "name": "token2Balance",
          "type": "uint256"
        },
        {
          "indexed": false,
          "internalType": "uint256",
          "name": "timestamp",
          "type": "uint256"
        }
      ],
      "name": "Swap",
      "type": "event"
    },
    {
      "inputs": [],
      "name": "K",
      "outputs": [
        {
          "internalType": "uint256",
          "name": "",
          "type": "uint256"
        }
      ],
      "stateMutability": "view",
      "type": "function"
    },
    {
      "inputs": [],
      "name": "K1",
      "outputs": [
        {
          "internalType": "uint256",
          "name": "",
          "type": "uint256"
        }
      ],
      "stateMutability": "view",
      "type": "function"
    },
    {
      "inputs": [],
      "name": "K2",
      "outputs": [
        {
          "internalType": "uint256",
          "name": "",
          "type": "uint256"
        }
      ],
      "stateMutability": "view",
      "type": "function"
    },
    {
      "inputs": [
        {
          "internalType": "uint256",
          "name": "_token1Amount",
          "type": "uint256"
        }
      ],
      "name": "calculateDaiSwap",
      "outputs": [
        {
          "internalType": "uint256",
          "name": "token2Amount",
          "type": "uint256"
        }
      ],
      "stateMutability": "view",
      "type": "function"
    },
    {
      "inputs": [
        {
          "internalType": "uint256",
          "name": "_token2Amount",
          "type": "uint256"
        }
      ],
      "name": "calculateWethSwap",
      "outputs": [
        {
          "internalType": "uint256",
          "name": "token1Amount",
          "type": "uint256"
        }
      ],
      "stateMutability": "view",
      "type": "function"
    },
    {
      "inputs": [],
      "name": "dai",
      "outputs": [
        {
          "internalType": "contract IWETH",
          "name": "",
          "type": "address"
        }
      ],
      "stateMutability": "view",
      "type": "function"
    },
    {
      "inputs": [],
      "name": "daiAddress",
      "outputs": [
        {
          "internalType": "address",
          "name": "",
          "type": "address"
        }
      ],
      "stateMutability": "view",
      "type": "function"
    },
    {
      "inputs": [],
      "name": "daiWETHpool",
      "outputs": [
        {
          "internalType": "address",
          "name": "",
          "type": "address"
        }
      ],
      "stateMutability": "view",
      "type": "function"
    },
    {
      "inputs": [],
      "name": "owner",
      "outputs": [
        {
          "internalType": "address",
          "name": "",
          "type": "address"
        }
      ],
      "stateMutability": "view",
      "type": "function"
    },
    {
      "inputs": [],
      "name": "pool1daiBalance",
      "outputs": [
        {
          "internalType": "uint256",
          "name": "",
          "type": "uint256"
        }
      ],
      "stateMutability": "view",
      "type": "function"
    },
    {
      "inputs": [],
      "name": "pool1wethBalance",
      "outputs": [
        {
          "internalType": "uint256",
          "name": "",
          "type": "uint256"
        }
      ],
      "stateMutability": "view",
      "type": "function"
    },
    {
      "inputs": [],
      "name": "pool2daiBalance",
      "outputs": [
        {
          "internalType": "uint256",
          "name": "",
          "type": "uint256"
        }
      ],
      "stateMutability": "view",
      "type": "function"
    },
    {
      "inputs": [],
      "name": "pool2wethBalance",
      "outputs": [
        {
          "internalType": "uint256",
          "name": "",
          "type": "uint256"
        }
      ],
      "stateMutability": "view",
      "type": "function"
    },
    {
      "inputs": [
        {
          "internalType": "address",
          "name": "",
          "type": "address"
        }
      ],
      "name": "shares",
      "outputs": [
        {
          "internalType": "uint256",
          "name": "",
          "type": "uint256"
        }
      ],
      "stateMutability": "view",
      "type": "function"
    },
    {
      "inputs": [],
      "name": "totalShares",
      "outputs": [
        {
          "internalType": "uint256",
          "name": "",
          "type": "uint256"
        }
      ],
      "stateMutability": "view",
      "type": "function"
    },
    {
      "inputs": [],
      "name": "uRouter",
      "outputs": [
        {
          "internalType": "contract IUniswapV2Router02",
          "name": "",
          "type": "address"
        }
      ],
      "stateMutability": "view",
      "type": "function"
    },
    {
      "inputs": [
        {
          "internalType": "uint256",
          "name": "_token1Amount",
          "type": "uint256"
        }
      ],
      "name": "uniswap1",
      "outputs": [
        {
          "internalType": "uint256",
          "name": "token2Amount",
          "type": "uint256"
        }
      ],
      "stateMutability": "nonpayable",
      "type": "function"
    },
    {
      "inputs": [
        {
          "internalType": "uint256",
          "name": "_token2Amount",
          "type": "uint256"
        }
      ],
      "name": "uniswap2",
      "outputs": [
        {
          "internalType": "uint256",
          "name": "token1Amount",
          "type": "uint256"
        }
      ],
      "stateMutability": "nonpayable",
      "type": "function"
    },
    {
      "inputs": [],
      "name": "uniswapV2Router",
      "outputs": [
        {
          "internalType": "address",
          "name": "",
          "type": "address"
        }
      ],
      "stateMutability": "view",
      "type": "function"
    },
    {
      "inputs": [],
      "name": "weth",
      "outputs": [
        {
          "internalType": "contract IWETH",
          "name": "",
          "type": "address"
        }
      ],
      "stateMutability": "view",
      "type": "function"
    },
    {
      "inputs": [],
      "name": "wethAddress",
      "outputs": [
        {
          "internalType": "address",
          "name": "",
          "type": "address"
        }
      ],
      "stateMutability": "view",
      "type": "function"
    },
    {
      "inputs": [],
      "name": "wethDAIpool",
      "outputs": [
        {
          "internalType": "address",
          "name": "",
          "type": "address"
        }
      ],
      "stateMutability": "view",
      "type": "function"
    }
  ],
  "bytecode": "0x60a06040523480156200001157600080fd5b50736b175474e89094c44da98b954eedeac495271d0f73ffffffffffffffffffffffffffffffffffffffff166370a0823173c2e9f25be6257c210d7adf0d4cd6e3e881ba25f86040518263ffffffff1660e01b81526004016200007591906200040a565b60206040518083038186803b1580156200008e57600080fd5b505afa158015620000a3573d6000803e3d6000fd5b505050506040513d601f19601f82011682018060405250810190620000c9919062000467565b60038190555073c02aaa39b223fe8d0a0e5c4f27ead9083c756cc273ffffffffffffffffffffffffffffffffffffffff166370a0823173c2e9f25be6257c210d7adf0d4cd6e3e881ba25f86040518263ffffffff1660e01b81526004016200013291906200040a565b60206040518083038186803b1580156200014b57600080fd5b505afa15801562000160573d6000803e3d6000fd5b505050506040513d601f19601f8201168201806040525081019062000186919062000467565b600481905550736b175474e89094c44da98b954eedeac495271d0f73ffffffffffffffffffffffffffffffffffffffff166370a0823173a478c2975ab1ea89e8196811f51a7b7ade33eb116040518263ffffffff1660e01b8152600401620001ef91906200040a565b60206040518083038186803b1580156200020857600080fd5b505afa1580156200021d573d6000803e3d6000fd5b505050506040513d601f19601f8201168201806040525081019062000243919062000467565b60058190555073c02aaa39b223fe8d0a0e5c4f27ead9083c756cc273ffffffffffffffffffffffffffffffffffffffff166370a0823173a478c2975ab1ea89e8196811f51a7b7ade33eb116040518263ffffffff1660e01b8152600401620002ac91906200040a565b60206040518083038186803b158015620002c557600080fd5b505afa158015620002da573d6000803e3d6000fd5b505050506040513d601f19601f8201168201806040525081019062000300919062000467565b600681905550600454600354620003189190620004c8565b600881905550600654600554620003309190620004c8565b60098190555033600260006101000a81548173ffffffffffffffffffffffffffffffffffffffff021916908373ffffffffffffffffffffffffffffffffffffffff160217905550737a250d5630b4cf539739df2c5dacb4c659f2488d73ffffffffffffffffffffffffffffffffffffffff1660808173ffffffffffffffffffffffffffffffffffffffff168152505062000529565b600073ffffffffffffffffffffffffffffffffffffffff82169050919050565b6000620003f282620003c5565b9050919050565b6200040481620003e5565b82525050565b6000602082019050620004216000830184620003f9565b92915050565b600080fd5b6000819050919050565b62000441816200042c565b81146200044d57600080fd5b50565b600081519050620004618162000436565b92915050565b60006020828403121562000480576200047f62000427565b5b6000620004908482850162000450565b91505092915050565b7f4e487b7100000000000000000000000000000000000000000000000000000000600052601160045260246000fd5b6000620004d5826200042c565b9150620004e2836200042c565b9250817fffffffffffffffffffffffffffffffffffffffffffffffffffffffffffffffff04831182151516156200051e576200051d62000499565b5b828202905092915050565b6080516118c7620005536000396000818161058001528181610e520152610f2201526118c76000f3fe608060405234801561001057600080fd5b50600436106101425760003560e01c80636703f80a116100b8578063bc13fbc71161007c578063bc13fbc71461034b578063ce7c2ac214610369578063e89f8be714610399578063ef5a814e146103b7578063f2c815c7146103e7578063f4b9fa751461041757610142565b80636703f80a146102a35780638a01ece9146102d35780638da5cb5b146102f1578063a932492f1461030f578063b36c6aab1461032d57610142565b80633a98ef391161010a5780633a98ef39146101dd5780633fc8cef3146101fb5780634328bfa2146102195780634f0e0ef3146102495780635b3b06ae146102675780635cf390491461028557610142565b80631694505e1461014757806326a6a066146101655780632c387275146101835780632cd7edad146101a1578063382d37df146101bf575b600080fd5b61014f610435565b60405161015c919061102c565b60405180910390f35b61016d61044d565b60405161017a919061102c565b60405180910390f35b61018b610465565b604051610198919061102c565b60405180910390f35b6101a961047d565b6040516101b6919061102c565b60405180910390f35b6101c7610495565b6040516101d49190611060565b60405180910390f35b6101e561049b565b6040516101f29190611060565b60405180910390f35b6102036104a1565b60405161021091906110da565b60405180910390f35b610233600480360381019061022e9190611135565b6104c7565b6040516102409190611060565b60405180910390f35b610251610560565b60405161025e919061102c565b60405180910390f35b61026f610578565b60405161027c9190611060565b60405180910390f35b61028d61057e565b60405161029a9190611183565b60405180910390f35b6102bd60048036038101906102b89190611135565b6105a2565b6040516102ca9190611060565b60405180910390f35b6102db61063b565b6040516102e89190611060565b60405180910390f35b6102f9610641565b604051610306919061102c565b60405180910390f35b610317610667565b6040516103249190611060565b60405180910390f35b61033561066d565b6040516103429190611060565b60405180910390f35b610353610673565b6040516103609190611060565b60405180910390f35b610383600480360381019061037e91906111ca565b610679565b6040516103909190611060565b60405180910390f35b6103a1610691565b6040516103ae9190611060565b60405180910390f35b6103d160048036038101906103cc9190611135565b610697565b6040516103de9190611060565b60405180910390f35b61040160048036038101906103fc9190611135565b610a46565b60405161040e9190611060565b60405180910390f35b61041f610df5565b60405161042c91906110da565b60405180910390f35b737a250d5630b4cf539739df2c5dacb4c659f2488d81565b73c2e9f25be6257c210d7adf0d4cd6e3e881ba25f881565b736b175474e89094c44da98b954eedeac495271d0f81565b73a478c2975ab1ea89e8196811f51a7b7ade33eb1181565b60045481565b600a5481565b600160009054906101000a900473ffffffffffffffffffffffffffffffffffffffff1681565b600080826006546104d89190611226565b90506000816009546104ea91906112ab565b9050806005546104fa91906112dc565b925060055483141561051557828061051190611310565b9350505b6005548310610559576040517f08c379a000000000000000000000000000000000000000000000000000000000815260040161055090611397565b60405180910390fd5b5050919050565b73c02aaa39b223fe8d0a0e5c4f27ead9083c756cc281565b60095481565b7f000000000000000000000000000000000000000000000000000000000000000081565b600080826003546105b39190611226565b90506000816008546105c591906112ab565b9050806004546105d591906112dc565b92506004548314156105f05782806105ec90611310565b9350505b6004548310610634576040517f08c379a000000000000000000000000000000000000000000000000000000000815260040161062b90611397565b60405180910390fd5b5050919050565b60065481565b600260009054906101000a900473ffffffffffffffffffffffffffffffffffffffff1681565b60075481565b60055481565b60035481565b600b6020528060005260406000206000915090505481565b60085481565b600080600267ffffffffffffffff8111156106b5576106b46113b7565b5b6040519080825280602002602001820160405280156106e35781602001602082028036833780820191505090505b50905073c02aaa39b223fe8d0a0e5c4f27ead9083c756cc28160008151811061070f5761070e6113e6565b5b602002602001019073ffffffffffffffffffffffffffffffffffffffff16908173ffffffffffffffffffffffffffffffffffffffff1681525050736b175474e89094c44da98b954eedeac495271d0f81600181518110610772576107716113e6565b5b602002602001019073ffffffffffffffffffffffffffffffffffffffff16908173ffffffffffffffffffffffffffffffffffffffff168152505073c02aaa39b223fe8d0a0e5c4f27ead9083c756cc273ffffffffffffffffffffffffffffffffffffffff166323b872dd3330866040518463ffffffff1660e01b81526004016107fd93929190611415565b602060405180830381600087803b15801561081757600080fd5b505af115801561082b573d6000803e3d6000fd5b505050506040513d601f19601f8201168201806040525081019061084f9190611484565b5061085c81846000610e19565b736b175474e89094c44da98b954eedeac495271d0f73ffffffffffffffffffffffffffffffffffffffff166370a08231306040518263ffffffff1660e01b81526004016108a9919061102c565b60206040518083038186803b1580156108c157600080fd5b505afa1580156108d5573d6000803e3d6000fd5b505050506040513d601f19601f820116820180604052508101906108f991906114c6565b9150826006600082825461090d9190611226565b92505081905550816005600082825461092691906112dc565b92505081905550736b175474e89094c44da98b954eedeac495271d0f73ffffffffffffffffffffffffffffffffffffffff1663a9059cbb33846040518363ffffffff1660e01b815260040161097c9291906114f3565b602060405180830381600087803b15801561099657600080fd5b505af11580156109aa573d6000803e3d6000fd5b505050506040513d601f19601f820116820180604052508101906109ce9190611484565b507f31c309ecd457dce7604a286d63a4b470e321337fb9877ce63c1109e1003c89f63373c02aaa39b223fe8d0a0e5c4f27ead9083c756cc285736b175474e89094c44da98b954eedeac495271d0f8660055460065442604051610a3898979695949392919061151c565b60405180910390a150919050565b600080600267ffffffffffffffff811115610a6457610a636113b7565b5b604051908082528060200260200182016040528015610a925781602001602082028036833780820191505090505b509050736b175474e89094c44da98b954eedeac495271d0f81600081518110610abe57610abd6113e6565b5b602002602001019073ffffffffffffffffffffffffffffffffffffffff16908173ffffffffffffffffffffffffffffffffffffffff168152505073c02aaa39b223fe8d0a0e5c4f27ead9083c756cc281600181518110610b2157610b206113e6565b5b602002602001019073ffffffffffffffffffffffffffffffffffffffff16908173ffffffffffffffffffffffffffffffffffffffff1681525050736b175474e89094c44da98b954eedeac495271d0f73ffffffffffffffffffffffffffffffffffffffff166323b872dd3330866040518463ffffffff1660e01b8152600401610bac93929190611415565b602060405180830381600087803b158015610bc657600080fd5b505af1158015610bda573d6000803e3d6000fd5b505050506040513d601f19601f82011682018060405250810190610bfe9190611484565b50610c0b81846000610e19565b73c02aaa39b223fe8d0a0e5c4f27ead9083c756cc273ffffffffffffffffffffffffffffffffffffffff166370a08231306040518263ffffffff1660e01b8152600401610c58919061102c565b60206040518083038186803b158015610c7057600080fd5b505afa158015610c84573d6000803e3d6000fd5b505050506040513d601f19601f82011682018060405250810190610ca891906114c6565b91508260036000828254610cbc9190611226565b925050819055508160046000828254610cd591906112dc565b9250508190555073c02aaa39b223fe8d0a0e5c4f27ead9083c756cc273ffffffffffffffffffffffffffffffffffffffff1663a9059cbb33846040518363ffffffff1660e01b8152600401610d2b9291906114f3565b602060405180830381600087803b158015610d4557600080fd5b505af1158015610d59573d6000803e3d6000fd5b505050506040513d601f19601f82011682018060405250810190610d7d9190611484565b507f31c309ecd457dce7604a286d63a4b470e321337fb9877ce63c1109e1003c89f633736b175474e89094c44da98b954eedeac495271d0f8573c02aaa39b223fe8d0a0e5c4f27ead9083c756cc28660035460045442604051610de798979695949392919061151c565b60405180910390a150919050565b60008054906101000a900473ffffffffffffffffffffffffffffffffffffffff1681565b82600081518110610e2d57610e2c6113e6565b5b602002602001015173ffffffffffffffffffffffffffffffffffffffff1663095ea7b37f0000000000000000000000000000000000000000000000000000000000000000846040518363ffffffff1660e01b8152600401610e8f9291906114f3565b602060405180830381600087803b158015610ea957600080fd5b505af1158015610ebd573d6000803e3d6000fd5b505050506040513d601f19601f82011682018060405250810190610ee19190611484565b610f20576040517f08c379a0000000000000000000000000000000000000000000000000000000008152600401610f17906115e6565b60405180910390fd5b7f000000000000000000000000000000000000000000000000000000000000000073ffffffffffffffffffffffffffffffffffffffff166338ed1739838386306104b042610f6e9190611226565b6040518663ffffffff1660e01b8152600401610f8e9594939291906116c4565b600060405180830381600087803b158015610fa857600080fd5b505af1158015610fbc573d6000803e3d6000fd5b505050506040513d6000823e3d601f19601f82011682018060405250810190610fe59190611848565b50505050565b600073ffffffffffffffffffffffffffffffffffffffff82169050919050565b600061101682610feb565b9050919050565b6110268161100b565b82525050565b6000602082019050611041600083018461101d565b92915050565b6000819050919050565b61105a81611047565b82525050565b60006020820190506110756000830184611051565b92915050565b6000819050919050565b60006110a061109b61109684610feb565b61107b565b610feb565b9050919050565b60006110b282611085565b9050919050565b60006110c4826110a7565b9050919050565b6110d4816110b9565b82525050565b60006020820190506110ef60008301846110cb565b92915050565b6000604051905090565b600080fd5b600080fd5b61111281611047565b811461111d57600080fd5b50565b60008135905061112f81611109565b92915050565b60006020828403121561114b5761114a6110ff565b5b600061115984828501611120565b91505092915050565b600061116d826110a7565b9050919050565b61117d81611162565b82525050565b60006020820190506111986000830184611174565b92915050565b6111a78161100b565b81146111b257600080fd5b50565b6000813590506111c48161119e565b92915050565b6000602082840312156111e0576111df6110ff565b5b60006111ee848285016111b5565b91505092915050565b7f4e487b7100000000000000000000000000000000000000000000000000000000600052601160045260246000fd5b600061123182611047565b915061123c83611047565b9250827fffffffffffffffffffffffffffffffffffffffffffffffffffffffffffffffff03821115611271576112706111f7565b5b828201905092915050565b7f4e487b7100000000000000000000000000000000000000000000000000000000600052601260045260246000fd5b60006112b682611047565b91506112c183611047565b9250826112d1576112d061127c565b5b828204905092915050565b60006112e782611047565b91506112f283611047565b925082821015611305576113046111f7565b5b828203905092915050565b600061131b82611047565b9150600082141561132f5761132e6111f7565b5b600182039050919050565b600082825260208201905092915050565b7f7377617020616d6f756e7420746f6f206c617267650000000000000000000000600082015250565b600061138160158361133a565b915061138c8261134b565b602082019050919050565b600060208201905081810360008301526113b081611374565b9050919050565b7f4e487b7100000000000000000000000000000000000000000000000000000000600052604160045260246000fd5b7f4e487b7100000000000000000000000000000000000000000000000000000000600052603260045260246000fd5b600060608201905061142a600083018661101d565b611437602083018561101d565b6114446040830184611051565b949350505050565b60008115159050919050565b6114618161144c565b811461146c57600080fd5b50565b60008151905061147e81611458565b92915050565b60006020828403121561149a576114996110ff565b5b60006114a88482850161146f565b91505092915050565b6000815190506114c081611109565b92915050565b6000602082840312156114dc576114db6110ff565b5b60006114ea848285016114b1565b91505092915050565b6000604082019050611508600083018561101d565b6115156020830184611051565b9392505050565b600061010082019050611532600083018b61101d565b61153f602083018a61101d565b61154c6040830189611051565b611559606083018861101d565b6115666080830187611051565b61157360a0830186611051565b61158060c0830185611051565b61158d60e0830184611051565b9998505050505050505050565b7f556e697377617020617070726f76616c206661696c65642e0000000000000000600082015250565b60006115d060188361133a565b91506115db8261159a565b602082019050919050565b600060208201905081810360008301526115ff816115c3565b9050919050565b600081519050919050565b600082825260208201905092915050565b6000819050602082019050919050565b61163b8161100b565b82525050565b600061164d8383611632565b60208301905092915050565b6000602082019050919050565b600061167182611606565b61167b8185611611565b935061168683611622565b8060005b838110156116b757815161169e8882611641565b97506116a983611659565b92505060018101905061168a565b5085935050505092915050565b600060a0820190506116d96000830188611051565b6116e66020830187611051565b81810360408301526116f88186611666565b9050611707606083018561101d565b6117146080830184611051565b9695505050505050565b600080fd5b6000601f19601f8301169050919050565b61173d82611723565b810181811067ffffffffffffffff8211171561175c5761175b6113b7565b5b80604052505050565b600061176f6110f5565b905061177b8282611734565b919050565b600067ffffffffffffffff82111561179b5761179a6113b7565b5b602082029050602081019050919050565b600080fd5b60006117c46117bf84611780565b611765565b905080838252602082019050602084028301858111156117e7576117e66117ac565b5b835b8181101561181057806117fc88826114b1565b8452602084019350506020810190506117e9565b5050509392505050565b600082601f83011261182f5761182e61171e565b5b815161183f8482602086016117b1565b91505092915050565b60006020828403121561185e5761185d6110ff565b5b600082015167ffffffffffffffff81111561187c5761187b611104565b5b6118888482850161181a565b9150509291505056fea264697066735822122058a0dec9cb479565280d49334cdf88feba3149499f2118148a1a5c0e528c182164736f6c63430008090033",
  "linkReferences": {},
  "deployedLinkReferences": {}
}