{
  "_format": "hh-sol-artifact-1",
  "contractName": "Aggregator",
  "sourceName": "contracts/Aggregator.sol",
  "abi": [
    {
      "inputs": [
        {
          "internalType": "contract Token",
          "name": "_token1",
          "type": "address"
        },
        {
          "internalType": "contract Token",
          "name": "_token2",
          "type": "address"
        }
      ],
      "stateMutability": "nonpayable",
      "type": "constructor"
    },
    {
      "anonymous": false,
      "inputs": [
        {
          "indexed": false,
          "internalType": "address",
          "name": "user",
          "type": "address"
        },
        {
          "indexed": false,
          "internalType": "address",
          "name": "tokenGive",
          "type": "address"
        },
        {
          "indexed": false,
          "internalType": "uint256",
          "name": "tokenGiveAmount",
          "type": "uint256"
        },
        {
          "indexed": false,
          "internalType": "address",
          "name": "tokenGet",
          "type": "address"
        },
        {
          "indexed": false,
          "internalType": "uint256",
          "name": "tokenGetAmount",
          "type": "uint256"
        },
        {
          "indexed": false,
          "internalType": "uint256",
          "name": "token1Balance",
          "type": "uint256"
        },
        {
          "indexed": false,
          "internalType": "uint256",
          "name": "token2Balance",
          "type": "uint256"
        },
        {
          "indexed": false,
          "internalType": "uint256",
          "name": "timestamp",
          "type": "uint256"
        }
      ],
      "name": "Swap",
      "type": "event"
    },
    {
      "inputs": [],
      "name": "K",
      "outputs": [
        {
          "internalType": "uint256",
          "name": "",
          "type": "uint256"
        }
      ],
      "stateMutability": "view",
      "type": "function"
    },
    {
      "inputs": [
        {
          "internalType": "address",
          "name": "_newDEX",
          "type": "address"
        }
      ],
      "name": "addDEXList",
      "outputs": [],
      "stateMutability": "nonpayable",
      "type": "function"
    },
    {
      "inputs": [
        {
          "internalType": "uint256",
          "name": "_token1Amount",
          "type": "uint256"
        },
        {
          "internalType": "uint256",
          "name": "_token2Amount",
          "type": "uint256"
        }
      ],
      "name": "addLiquidity",
      "outputs": [],
      "stateMutability": "nonpayable",
      "type": "function"
    },
    {
      "inputs": [
        {
          "internalType": "uint256",
          "name": "_token2Amount",
          "type": "uint256"
        }
      ],
      "name": "calculateToken1Deposit",
      "outputs": [
        {
          "internalType": "uint256",
          "name": "token1Amount",
          "type": "uint256"
        }
      ],
      "stateMutability": "view",
      "type": "function"
    },
    {
      "inputs": [
        {
          "internalType": "uint256",
          "name": "_token1Amount",
          "type": "uint256"
        }
      ],
      "name": "calculateToken1Swap",
      "outputs": [
        {
          "internalType": "uint256",
          "name": "token2Amount",
          "type": "uint256"
        }
      ],
      "stateMutability": "view",
      "type": "function"
    },
    {
      "inputs": [
        {
          "internalType": "uint256",
          "name": "_token1Amount",
          "type": "uint256"
        }
      ],
      "name": "calculateToken2Deposit",
      "outputs": [
        {
          "internalType": "uint256",
          "name": "token2Amount",
          "type": "uint256"
        }
      ],
      "stateMutability": "view",
      "type": "function"
    },
    {
      "inputs": [
        {
          "internalType": "uint256",
          "name": "_token2Amount",
          "type": "uint256"
        }
      ],
      "name": "calculateToken2Swap",
      "outputs": [
        {
          "internalType": "uint256",
          "name": "token1Amount",
          "type": "uint256"
        }
      ],
      "stateMutability": "view",
      "type": "function"
    },
    {
      "inputs": [
        {
          "internalType": "uint256",
          "name": "_share",
          "type": "uint256"
        }
      ],
      "name": "calculateWithdrawAmount",
      "outputs": [
        {
          "internalType": "uint256",
          "name": "token1Amount",
          "type": "uint256"
        },
        {
          "internalType": "uint256",
          "name": "token2Amount",
          "type": "uint256"
        }
      ],
      "stateMutability": "view",
      "type": "function"
    },
    {
      "inputs": [
        {
          "internalType": "uint256",
          "name": "",
          "type": "uint256"
        }
      ],
      "name": "dexlist",
      "outputs": [
        {
          "internalType": "address",
          "name": "",
          "type": "address"
        }
      ],
      "stateMutability": "view",
      "type": "function"
    },
    {
      "inputs": [
        {
          "internalType": "uint256",
          "name": "_dexListing",
          "type": "uint256"
        }
      ],
      "name": "fetchT1Balance",
      "outputs": [
        {
          "internalType": "uint256",
          "name": "dexToken1Balance",
          "type": "uint256"
        }
      ],
      "stateMutability": "view",
      "type": "function"
    },
    {
      "inputs": [
        {
          "internalType": "uint256",
          "name": "_dexListing",
          "type": "uint256"
        }
      ],
      "name": "fetchT2Balance",
      "outputs": [
        {
          "internalType": "uint256",
          "name": "dexToken2Balance",
          "type": "uint256"
        }
      ],
      "stateMutability": "view",
      "type": "function"
    },
    {
      "inputs": [],
      "name": "listCount",
      "outputs": [
        {
          "internalType": "uint256",
          "name": "",
          "type": "uint256"
        }
      ],
      "stateMutability": "view",
      "type": "function"
    },
    {
      "inputs": [
        {
          "internalType": "uint256",
          "name": "_share",
          "type": "uint256"
        }
      ],
      "name": "removeLiquidity",
      "outputs": [
        {
          "internalType": "uint256",
          "name": "token1Amount",
          "type": "uint256"
        },
        {
          "internalType": "uint256",
          "name": "token2Amount",
          "type": "uint256"
        }
      ],
      "stateMutability": "nonpayable",
      "type": "function"
    },
    {
      "inputs": [
        {
          "internalType": "address",
          "name": "",
          "type": "address"
        }
      ],
      "name": "shares",
      "outputs": [
        {
          "internalType": "uint256",
          "name": "",
          "type": "uint256"
        }
      ],
      "stateMutability": "view",
      "type": "function"
    },
    {
      "inputs": [
        {
          "internalType": "uint256",
          "name": "_token1Amount",
          "type": "uint256"
        }
      ],
      "name": "swapToken1",
      "outputs": [
        {
          "internalType": "uint256",
          "name": "token2Amount",
          "type": "uint256"
        }
      ],
      "stateMutability": "nonpayable",
      "type": "function"
    },
    {
      "inputs": [
        {
          "internalType": "uint256",
          "name": "_token2Amount",
          "type": "uint256"
        }
      ],
      "name": "swapToken2",
      "outputs": [
        {
          "internalType": "uint256",
          "name": "token1Amount",
          "type": "uint256"
        }
      ],
      "stateMutability": "nonpayable",
      "type": "function"
    },
    {
      "inputs": [],
      "name": "token1",
      "outputs": [
        {
          "internalType": "contract Token",
          "name": "",
          "type": "address"
        }
      ],
      "stateMutability": "view",
      "type": "function"
    },
    {
      "inputs": [],
      "name": "token1Balance",
      "outputs": [
        {
          "internalType": "uint256",
          "name": "",
          "type": "uint256"
        }
      ],
      "stateMutability": "view",
      "type": "function"
    },
    {
      "inputs": [],
      "name": "token2",
      "outputs": [
        {
          "internalType": "contract Token",
          "name": "",
          "type": "address"
        }
      ],
      "stateMutability": "view",
      "type": "function"
    },
    {
      "inputs": [],
      "name": "token2Balance",
      "outputs": [
        {
          "internalType": "uint256",
          "name": "",
          "type": "uint256"
        }
      ],
      "stateMutability": "view",
      "type": "function"
    },
    {
      "inputs": [],
      "name": "totalShares",
      "outputs": [
        {
          "internalType": "uint256",
          "name": "",
          "type": "uint256"
        }
      ],
      "stateMutability": "view",
      "type": "function"
    }
  ],
  "bytecode": "0x60806040523480156200001157600080fd5b5060405162001e0f38038062001e0f833981810160405281019062000037919062000146565b816000806101000a81548173ffffffffffffffffffffffffffffffffffffffff021916908373ffffffffffffffffffffffffffffffffffffffff16021790555080600160006101000a81548173ffffffffffffffffffffffffffffffffffffffff021916908373ffffffffffffffffffffffffffffffffffffffff160217905550600160058190555050506200018d565b600080fd5b600073ffffffffffffffffffffffffffffffffffffffff82169050919050565b6000620000fa82620000cd565b9050919050565b60006200010e82620000ed565b9050919050565b620001208162000101565b81146200012c57600080fd5b50565b600081519050620001408162000115565b92915050565b6000806040838503121562000160576200015f620000c8565b5b600062000170858286016200012f565b925050602062000183858286016200012f565b9150509250929050565b611c72806200019d6000396000f3fe608060405234801561001057600080fd5b50600436106101375760003560e01c8063a932492f116100b8578063ce7c2ac21161007c578063ce7c2ac214610379578063d21220a7146103a9578063de1b6d2a146103c7578063e682ca69146103f7578063f4cb34d414610427578063fde6c9fb1461045757610137565b8063a932492f146102c1578063ac272770146102df578063b2f9820b1461030f578063b9ffa6a81461032b578063c5b38c051461034957610137565b806389c2c55f116100ff57806389c2c55f146101e4578063980d69d3146102145780639a5c77a8146102445780639c8f9f23146102745780639cd441da146102a557610137565b80631b68d10d1461013c57806325be124e1461015a5780633a98ef39146101785780635d4f167e1461019657806368a455f1146101c6575b600080fd5b610144610488565b6040516101519190611401565b60405180910390f35b61016261048e565b60405161016f919061149b565b60405180910390f35b6101806104b4565b60405161018d9190611401565b60405180910390f35b6101b060048036038101906101ab91906114e7565b6104ba565b6040516101bd9190611535565b60405180910390f35b6101ce6104ed565b6040516101db9190611401565b60405180910390f35b6101fe60048036038101906101f991906114e7565b6104f3565b60405161020b9190611401565b60405180910390f35b61022e600480360381019061022991906114e7565b6105da565b60405161023b9190611401565b60405180910390f35b61025e600480360381019061025991906114e7565b610809565b60405161026b9190611401565b60405180910390f35b61028e600480360381019061028991906114e7565b61082d565b60405161029c929190611550565b60405180910390f35b6102bf60048036038101906102ba9190611579565b610add565b005b6102c9610e3f565b6040516102d69190611401565b60405180910390f35b6102f960048036038101906102f491906114e7565b610e45565b6040516103069190611401565b60405180910390f35b610329600480360381019061032491906115e5565b610f2b565b005b610333610f9a565b6040516103409190611401565b60405180910390f35b610363600480360381019061035e91906114e7565b610fa0565b6040516103709190611401565b60405180910390f35b610393600480360381019061038e91906115e5565b611039565b6040516103a09190611401565b60405180910390f35b6103b1611051565b6040516103be919061149b565b60405180910390f35b6103e160048036038101906103dc91906114e7565b611075565b6040516103ee9190611401565b60405180910390f35b610411600480360381019061040c91906114e7565b611099565b60405161041e9190611401565b60405180910390f35b610441600480360381019061043c91906114e7565b611132565b60405161044e9190611401565b60405180910390f35b610471600480360381019061046c91906114e7565b611361565b60405161047f929190611550565b60405180910390f35b60055481565b600160009054906101000a900473ffffffffffffffffffffffffffffffffffffffff1681565b60065481565b60086020528060005260406000206000915054906101000a900473ffffffffffffffffffffffffffffffffffffffff1681565b60035481565b6000600160009054906101000a900473ffffffffffffffffffffffffffffffffffffffff1673ffffffffffffffffffffffffffffffffffffffff166370a082316008600085815260200190815260200160002060009054906101000a900473ffffffffffffffffffffffffffffffffffffffff166040518263ffffffff1660e01b81526004016105839190611535565b60206040518083038186803b15801561059b57600080fd5b505afa1580156105af573d6000803e3d6000fd5b505050506040513d601f19601f820116820180604052508101906105d39190611627565b9050919050565b60006105e582610fa0565b9050600160009054906101000a900473ffffffffffffffffffffffffffffffffffffffff1673ffffffffffffffffffffffffffffffffffffffff166323b872dd3330856040518463ffffffff1660e01b815260040161064693929190611654565b602060405180830381600087803b15801561066057600080fd5b505af1158015610674573d6000803e3d6000fd5b505050506040513d601f19601f8201168201806040525081019061069891906116c3565b5081600360008282546106ab919061171f565b9250508190555080600260008282546106c49190611775565b9250508190555060008054906101000a900473ffffffffffffffffffffffffffffffffffffffff1673ffffffffffffffffffffffffffffffffffffffff1663a9059cbb33836040518363ffffffff1660e01b81526004016107269291906117a9565b602060405180830381600087803b15801561074057600080fd5b505af1158015610754573d6000803e3d6000fd5b505050506040513d601f19601f8201168201806040525081019061077891906116c3565b507f31c309ecd457dce7604a286d63a4b470e321337fb9877ce63c1109e1003c89f633600160009054906101000a900473ffffffffffffffffffffffffffffffffffffffff168460008054906101000a900473ffffffffffffffffffffffffffffffffffffffff1685600254600354426040516107fc9897969594939291906117d2565b60405180910390a1919050565b60006002548260035461081c9190611850565b61082691906118d9565b9050919050565b600080600760003373ffffffffffffffffffffffffffffffffffffffff1673ffffffffffffffffffffffffffffffffffffffff168152602001908152602001600020548311156108b2576040517f08c379a00000000000000000000000000000000000000000000000000000000081526004016108a99061198d565b60405180910390fd5b6108bb83611361565b809250819350505082600760003373ffffffffffffffffffffffffffffffffffffffff1673ffffffffffffffffffffffffffffffffffffffff16815260200190815260200160002060008282546109129190611775565b92505081905550826006600082825461092b9190611775565b9250508190555081600260008282546109449190611775565b92505081905550806003600082825461095d9190611775565b925050819055506003546002546109749190611850565b60048190555060008054906101000a900473ffffffffffffffffffffffffffffffffffffffff1673ffffffffffffffffffffffffffffffffffffffff1663a9059cbb33846040518363ffffffff1660e01b81526004016109d59291906117a9565b602060405180830381600087803b1580156109ef57600080fd5b505af1158015610a03573d6000803e3d6000fd5b505050506040513d601f19601f82011682018060405250810190610a2791906116c3565b50600160009054906101000a900473ffffffffffffffffffffffffffffffffffffffff1673ffffffffffffffffffffffffffffffffffffffff1663a9059cbb33836040518363ffffffff1660e01b8152600401610a859291906117a9565b602060405180830381600087803b158015610a9f57600080fd5b505af1158015610ab3573d6000803e3d6000fd5b505050506040513d601f19601f82011682018060405250810190610ad791906116c3565b50915091565b60008054906101000a900473ffffffffffffffffffffffffffffffffffffffff1673ffffffffffffffffffffffffffffffffffffffff166323b872dd3330856040518463ffffffff1660e01b8152600401610b3a93929190611654565b602060405180830381600087803b158015610b5457600080fd5b505af1158015610b68573d6000803e3d6000fd5b505050506040513d601f19601f82011682018060405250810190610b8c91906116c3565b610bcb576040517f08c379a0000000000000000000000000000000000000000000000000000000008152600401610bc2906119f9565b60405180910390fd5b600160009054906101000a900473ffffffffffffffffffffffffffffffffffffffff1673ffffffffffffffffffffffffffffffffffffffff166323b872dd3330846040518463ffffffff1660e01b8152600401610c2a93929190611654565b602060405180830381600087803b158015610c4457600080fd5b505af1158015610c58573d6000803e3d6000fd5b505050506040513d601f19601f82011682018060405250810190610c7c91906116c3565b610cbb576040517f08c379a0000000000000000000000000000000000000000000000000000000008152600401610cb290611a65565b60405180910390fd5b6000806006541415610ce357670de0b6b3a76400006064610cdc9190611850565b9050610d83565b600060025484600654610cf69190611850565b610d0091906118d9565b9050600060035484600654610d159190611850565b610d1f91906118d9565b90506103e881610d2f91906118d9565b6103e883610d3d91906118d9565b14610d7d576040517f08c379a0000000000000000000000000000000000000000000000000000000008152600401610d7490611ad1565b60405180910390fd5b81925050505b8260026000828254610d95919061171f565b925050819055508160036000828254610dae919061171f565b92505081905550600354600254610dc59190611850565b6004819055508060066000828254610ddd919061171f565b9250508190555080600760003373ffffffffffffffffffffffffffffffffffffffff1673ffffffffffffffffffffffffffffffffffffffff1681526020019081526020016000206000828254610e33919061171f565b92505081905550505050565b60045481565b60008060009054906101000a900473ffffffffffffffffffffffffffffffffffffffff1673ffffffffffffffffffffffffffffffffffffffff166370a082316008600085815260200190815260200160002060009054906101000a900473ffffffffffffffffffffffffffffffffffffffff166040518263ffffffff1660e01b8152600401610ed49190611535565b60206040518083038186803b158015610eec57600080fd5b505afa158015610f00573d6000803e3d6000fd5b505050506040513d601f19601f82011682018060405250810190610f249190611627565b9050919050565b8060086000600554815260200190815260200160002060006101000a81548173ffffffffffffffffffffffffffffffffffffffff021916908373ffffffffffffffffffffffffffffffffffffffff16021790555060056000815480929190610f9290611af1565b919050555050565b60025481565b60008082600354610fb1919061171f565b9050600081600454610fc391906118d9565b905080600254610fd39190611775565b9250600254831415610fee578280610fea90611b3a565b9350505b6002548310611032576040517f08c379a000000000000000000000000000000000000000000000000000000000815260040161102990611bb0565b60405180910390fd5b5050919050565b60076020528060005260406000206000915090505481565b60008054906101000a900473ffffffffffffffffffffffffffffffffffffffff1681565b6000600354826002546110889190611850565b61109291906118d9565b9050919050565b600080826002546110aa919061171f565b90506000816004546110bc91906118d9565b9050806003546110cc9190611775565b92506003548314156110e75782806110e390611b3a565b9350505b600354831061112b576040517f08c379a000000000000000000000000000000000000000000000000000000000815260040161112290611bb0565b60405180910390fd5b5050919050565b600061113d82611099565b905060008054906101000a900473ffffffffffffffffffffffffffffffffffffffff1673ffffffffffffffffffffffffffffffffffffffff166323b872dd3330856040518463ffffffff1660e01b815260040161119c93929190611654565b602060405180830381600087803b1580156111b657600080fd5b505af11580156111ca573d6000803e3d6000fd5b505050506040513d601f19601f820116820180604052508101906111ee91906116c3565b508160026000828254611201919061171f565b92505081905550806003600082825461121a9190611775565b92505081905550600160009054906101000a900473ffffffffffffffffffffffffffffffffffffffff1673ffffffffffffffffffffffffffffffffffffffff1663a9059cbb33836040518363ffffffff1660e01b815260040161127e9291906117a9565b602060405180830381600087803b15801561129857600080fd5b505af11580156112ac573d6000803e3d6000fd5b505050506040513d601f19601f820116820180604052508101906112d091906116c3565b507f31c309ecd457dce7604a286d63a4b470e321337fb9877ce63c1109e1003c89f63360008054906101000a900473ffffffffffffffffffffffffffffffffffffffff1684600160009054906101000a900473ffffffffffffffffffffffffffffffffffffffff1685600254600354426040516113549897969594939291906117d2565b60405180910390a1919050565b6000806006548311156113a9576040517f08c379a00000000000000000000000000000000000000000000000000000000081526004016113a090611c1c565b60405180910390fd5b600654600254846113ba9190611850565b6113c491906118d9565b9150600654600354846113d79190611850565b6113e191906118d9565b9050915091565b6000819050919050565b6113fb816113e8565b82525050565b600060208201905061141660008301846113f2565b92915050565b600073ffffffffffffffffffffffffffffffffffffffff82169050919050565b6000819050919050565b600061146161145c6114578461141c565b61143c565b61141c565b9050919050565b600061147382611446565b9050919050565b600061148582611468565b9050919050565b6114958161147a565b82525050565b60006020820190506114b0600083018461148c565b92915050565b600080fd5b6114c4816113e8565b81146114cf57600080fd5b50565b6000813590506114e1816114bb565b92915050565b6000602082840312156114fd576114fc6114b6565b5b600061150b848285016114d2565b91505092915050565b600061151f8261141c565b9050919050565b61152f81611514565b82525050565b600060208201905061154a6000830184611526565b92915050565b600060408201905061156560008301856113f2565b61157260208301846113f2565b9392505050565b600080604083850312156115905761158f6114b6565b5b600061159e858286016114d2565b92505060206115af858286016114d2565b9150509250929050565b6115c281611514565b81146115cd57600080fd5b50565b6000813590506115df816115b9565b92915050565b6000602082840312156115fb576115fa6114b6565b5b6000611609848285016115d0565b91505092915050565b600081519050611621816114bb565b92915050565b60006020828403121561163d5761163c6114b6565b5b600061164b84828501611612565b91505092915050565b60006060820190506116696000830186611526565b6116766020830185611526565b61168360408301846113f2565b949350505050565b60008115159050919050565b6116a08161168b565b81146116ab57600080fd5b50565b6000815190506116bd81611697565b92915050565b6000602082840312156116d9576116d86114b6565b5b60006116e7848285016116ae565b91505092915050565b7f4e487b7100000000000000000000000000000000000000000000000000000000600052601160045260246000fd5b600061172a826113e8565b9150611735836113e8565b9250827fffffffffffffffffffffffffffffffffffffffffffffffffffffffffffffffff0382111561176a576117696116f0565b5b828201905092915050565b6000611780826113e8565b915061178b836113e8565b92508282101561179e5761179d6116f0565b5b828203905092915050565b60006040820190506117be6000830185611526565b6117cb60208301846113f2565b9392505050565b6000610100820190506117e8600083018b611526565b6117f5602083018a611526565b61180260408301896113f2565b61180f6060830188611526565b61181c60808301876113f2565b61182960a08301866113f2565b61183660c08301856113f2565b61184360e08301846113f2565b9998505050505050505050565b600061185b826113e8565b9150611866836113e8565b9250817fffffffffffffffffffffffffffffffffffffffffffffffffffffffffffffffff048311821515161561189f5761189e6116f0565b5b828202905092915050565b7f4e487b7100000000000000000000000000000000000000000000000000000000600052601260045260246000fd5b60006118e4826113e8565b91506118ef836113e8565b9250826118ff576118fe6118aa565b5b828204905092915050565b600082825260208201905092915050565b7f63616e6e6f74207769746864726177206d6f726520736861726573207468616e60008201527f20796f7520686176650000000000000000000000000000000000000000000000602082015250565b600061197760298361190a565b91506119828261191b565b604082019050919050565b600060208201905081810360008301526119a68161196a565b9050919050565b7f6661696c656420746f207472616e7366657220746f6b656e2031000000000000600082015250565b60006119e3601a8361190a565b91506119ee826119ad565b602082019050919050565b60006020820190508181036000830152611a12816119d6565b9050919050565b7f6661696c656420746f207472616e7366657220746f6b656e2032000000000000600082015250565b6000611a4f601a8361190a565b9150611a5a82611a19565b602082019050919050565b60006020820190508181036000830152611a7e81611a42565b9050919050565b7f6d7573742070726f7669646520657175616c20746f6b656e20616d6f756e7473600082015250565b6000611abb60208361190a565b9150611ac682611a85565b602082019050919050565b60006020820190508181036000830152611aea81611aae565b9050919050565b6000611afc826113e8565b91507fffffffffffffffffffffffffffffffffffffffffffffffffffffffffffffffff821415611b2f57611b2e6116f0565b5b600182019050919050565b6000611b45826113e8565b91506000821415611b5957611b586116f0565b5b600182039050919050565b7f7377617020616d6f756e7420746f206c61726765000000000000000000000000600082015250565b6000611b9a60148361190a565b9150611ba582611b64565b602082019050919050565b60006020820190508181036000830152611bc981611b8d565b9050919050565b7f6d757374206265206c657373207468616e20746f74616c207368617265730000600082015250565b6000611c06601e8361190a565b9150611c1182611bd0565b602082019050919050565b60006020820190508181036000830152611c3581611bf9565b905091905056fea26469706673582212209a8ad22b9371727edc2d0d8b2e839b83c536a0ddc4d342b6b98ec33772316f1064736f6c63430008090033",
  "linkReferences": {},
  "deployedLinkReferences": {}
}