{
  "_format": "hh-sol-artifact-1",
  "contractName": "AMM",
  "sourceName": "contracts/AMM.sol",
  "abi": [
    {
      "inputs": [
        {
          "internalType": "contract Token",
          "name": "_token1",
          "type": "address"
        },
        {
          "internalType": "contract Token",
          "name": "_token2",
          "type": "address"
        }
      ],
      "stateMutability": "nonpayable",
      "type": "constructor"
    },
    {
      "anonymous": false,
      "inputs": [
        {
          "indexed": false,
          "internalType": "address",
          "name": "user",
          "type": "address"
        },
        {
          "indexed": false,
          "internalType": "address",
          "name": "tokenGive",
          "type": "address"
        },
        {
          "indexed": false,
          "internalType": "uint256",
          "name": "tokenGiveAmount",
          "type": "uint256"
        },
        {
          "indexed": false,
          "internalType": "address",
          "name": "tokenGet",
          "type": "address"
        },
        {
          "indexed": false,
          "internalType": "uint256",
          "name": "tokenGetAmount",
          "type": "uint256"
        },
        {
          "indexed": false,
          "internalType": "uint256",
          "name": "token1Balance",
          "type": "uint256"
        },
        {
          "indexed": false,
          "internalType": "uint256",
          "name": "token2Balance",
          "type": "uint256"
        },
        {
          "indexed": false,
          "internalType": "uint256",
          "name": "timestamp",
          "type": "uint256"
        }
      ],
      "name": "Swap",
      "type": "event"
    },
    {
      "inputs": [],
      "name": "K",
      "outputs": [
        {
          "internalType": "uint256",
          "name": "",
          "type": "uint256"
        }
      ],
      "stateMutability": "view",
      "type": "function"
    },
    {
      "inputs": [],
      "name": "K1",
      "outputs": [
        {
          "internalType": "uint256",
          "name": "",
          "type": "uint256"
        }
      ],
      "stateMutability": "view",
      "type": "function"
    },
    {
      "inputs": [
        {
          "internalType": "address",
          "name": "_newDEX",
          "type": "address"
        }
      ],
      "name": "addDEXList",
      "outputs": [],
      "stateMutability": "nonpayable",
      "type": "function"
    },
    {
      "inputs": [
        {
          "internalType": "uint256",
          "name": "_token1Amount",
          "type": "uint256"
        },
        {
          "internalType": "uint256",
          "name": "_token2Amount",
          "type": "uint256"
        }
      ],
      "name": "addLiquidity",
      "outputs": [],
      "stateMutability": "nonpayable",
      "type": "function"
    },
    {
      "inputs": [
        {
          "internalType": "uint256",
          "name": "_token1Amount",
          "type": "uint256"
        }
      ],
      "name": "calculateDaiSwap",
      "outputs": [
        {
          "internalType": "uint256",
          "name": "token2Amount",
          "type": "uint256"
        }
      ],
      "stateMutability": "view",
      "type": "function"
    },
    {
      "inputs": [
        {
          "internalType": "uint256",
          "name": "_token2Amount",
          "type": "uint256"
        }
      ],
      "name": "calculateToken1Deposit",
      "outputs": [
        {
          "internalType": "uint256",
          "name": "token1Amount",
          "type": "uint256"
        }
      ],
      "stateMutability": "view",
      "type": "function"
    },
    {
      "inputs": [
        {
          "internalType": "uint256",
          "name": "_token1Amount",
          "type": "uint256"
        }
      ],
      "name": "calculateToken1Swap",
      "outputs": [
        {
          "internalType": "uint256",
          "name": "token2Amount",
          "type": "uint256"
        }
      ],
      "stateMutability": "view",
      "type": "function"
    },
    {
      "inputs": [
        {
          "internalType": "uint256",
          "name": "_token1Amount",
          "type": "uint256"
        }
      ],
      "name": "calculateToken2Deposit",
      "outputs": [
        {
          "internalType": "uint256",
          "name": "token2Amount",
          "type": "uint256"
        }
      ],
      "stateMutability": "view",
      "type": "function"
    },
    {
      "inputs": [
        {
          "internalType": "uint256",
          "name": "_token2Amount",
          "type": "uint256"
        }
      ],
      "name": "calculateToken2Swap",
      "outputs": [
        {
          "internalType": "uint256",
          "name": "token1Amount",
          "type": "uint256"
        }
      ],
      "stateMutability": "view",
      "type": "function"
    },
    {
      "inputs": [
        {
          "internalType": "uint256",
          "name": "_token2Amount",
          "type": "uint256"
        }
      ],
      "name": "calculateWethSwap",
      "outputs": [
        {
          "internalType": "uint256",
          "name": "token1Amount",
          "type": "uint256"
        }
      ],
      "stateMutability": "view",
      "type": "function"
    },
    {
      "inputs": [
        {
          "internalType": "uint256",
          "name": "_share",
          "type": "uint256"
        }
      ],
      "name": "calculateWithdrawAmount",
      "outputs": [
        {
          "internalType": "uint256",
          "name": "token1Amount",
          "type": "uint256"
        },
        {
          "internalType": "uint256",
          "name": "token2Amount",
          "type": "uint256"
        }
      ],
      "stateMutability": "view",
      "type": "function"
    },
    {
      "inputs": [],
      "name": "dai",
      "outputs": [
        {
          "internalType": "contract IWETH",
          "name": "",
          "type": "address"
        }
      ],
      "stateMutability": "view",
      "type": "function"
    },
    {
      "inputs": [],
      "name": "daiAddress",
      "outputs": [
        {
          "internalType": "address",
          "name": "",
          "type": "address"
        }
      ],
      "stateMutability": "view",
      "type": "function"
    },
    {
      "inputs": [],
      "name": "daiWETHpool",
      "outputs": [
        {
          "internalType": "address",
          "name": "",
          "type": "address"
        }
      ],
      "stateMutability": "view",
      "type": "function"
    },
    {
      "inputs": [
        {
          "internalType": "uint256",
          "name": "",
          "type": "uint256"
        }
      ],
      "name": "dexlist",
      "outputs": [
        {
          "internalType": "address",
          "name": "",
          "type": "address"
        }
      ],
      "stateMutability": "view",
      "type": "function"
    },
    {
      "inputs": [],
      "name": "listCount",
      "outputs": [
        {
          "internalType": "uint256",
          "name": "",
          "type": "uint256"
        }
      ],
      "stateMutability": "view",
      "type": "function"
    },
    {
      "inputs": [],
      "name": "owner",
      "outputs": [
        {
          "internalType": "address",
          "name": "",
          "type": "address"
        }
      ],
      "stateMutability": "view",
      "type": "function"
    },
    {
      "inputs": [],
      "name": "poolDAIbalance",
      "outputs": [
        {
          "internalType": "uint256",
          "name": "",
          "type": "uint256"
        }
      ],
      "stateMutability": "view",
      "type": "function"
    },
    {
      "inputs": [],
      "name": "poolWETHbalance",
      "outputs": [
        {
          "internalType": "uint256",
          "name": "",
          "type": "uint256"
        }
      ],
      "stateMutability": "view",
      "type": "function"
    },
    {
      "inputs": [
        {
          "internalType": "uint256",
          "name": "_share",
          "type": "uint256"
        }
      ],
      "name": "removeLiquidity",
      "outputs": [
        {
          "internalType": "uint256",
          "name": "token1Amount",
          "type": "uint256"
        },
        {
          "internalType": "uint256",
          "name": "token2Amount",
          "type": "uint256"
        }
      ],
      "stateMutability": "nonpayable",
      "type": "function"
    },
    {
      "inputs": [
        {
          "internalType": "address",
          "name": "",
          "type": "address"
        }
      ],
      "name": "shares",
      "outputs": [
        {
          "internalType": "uint256",
          "name": "",
          "type": "uint256"
        }
      ],
      "stateMutability": "view",
      "type": "function"
    },
    {
      "inputs": [
        {
          "internalType": "uint256",
          "name": "_token1Amount",
          "type": "uint256"
        }
      ],
      "name": "swapToken1",
      "outputs": [
        {
          "internalType": "uint256",
          "name": "token2Amount",
          "type": "uint256"
        }
      ],
      "stateMutability": "nonpayable",
      "type": "function"
    },
    {
      "inputs": [
        {
          "internalType": "uint256",
          "name": "_token2Amount",
          "type": "uint256"
        }
      ],
      "name": "swapToken2",
      "outputs": [
        {
          "internalType": "uint256",
          "name": "token1Amount",
          "type": "uint256"
        }
      ],
      "stateMutability": "nonpayable",
      "type": "function"
    },
    {
      "inputs": [],
      "name": "token1",
      "outputs": [
        {
          "internalType": "contract Token",
          "name": "",
          "type": "address"
        }
      ],
      "stateMutability": "view",
      "type": "function"
    },
    {
      "inputs": [],
      "name": "token1Balance",
      "outputs": [
        {
          "internalType": "uint256",
          "name": "",
          "type": "uint256"
        }
      ],
      "stateMutability": "view",
      "type": "function"
    },
    {
      "inputs": [],
      "name": "token2",
      "outputs": [
        {
          "internalType": "contract Token",
          "name": "",
          "type": "address"
        }
      ],
      "stateMutability": "view",
      "type": "function"
    },
    {
      "inputs": [],
      "name": "token2Balance",
      "outputs": [
        {
          "internalType": "uint256",
          "name": "",
          "type": "uint256"
        }
      ],
      "stateMutability": "view",
      "type": "function"
    },
    {
      "inputs": [],
      "name": "totalShares",
      "outputs": [
        {
          "internalType": "uint256",
          "name": "",
          "type": "uint256"
        }
      ],
      "stateMutability": "view",
      "type": "function"
    },
    {
      "inputs": [],
      "name": "uRouter",
      "outputs": [
        {
          "internalType": "contract IUniswapV2Router02",
          "name": "",
          "type": "address"
        }
      ],
      "stateMutability": "view",
      "type": "function"
    },
    {
      "inputs": [
        {
          "internalType": "uint256",
          "name": "_token1Amount",
          "type": "uint256"
        }
      ],
      "name": "uniswap1",
      "outputs": [
        {
          "internalType": "uint256",
          "name": "token2Amount",
          "type": "uint256"
        }
      ],
      "stateMutability": "nonpayable",
      "type": "function"
    },
    {
      "inputs": [
        {
          "internalType": "uint256",
          "name": "_token2Amount",
          "type": "uint256"
        }
      ],
      "name": "uniswap2",
      "outputs": [
        {
          "internalType": "uint256",
          "name": "token1Amount",
          "type": "uint256"
        }
      ],
      "stateMutability": "nonpayable",
      "type": "function"
    },
    {
      "inputs": [],
      "name": "uniswapV2Router",
      "outputs": [
        {
          "internalType": "address",
          "name": "",
          "type": "address"
        }
      ],
      "stateMutability": "view",
      "type": "function"
    },
    {
      "inputs": [],
      "name": "weth",
      "outputs": [
        {
          "internalType": "contract IWETH",
          "name": "",
          "type": "address"
        }
      ],
      "stateMutability": "view",
      "type": "function"
    },
    {
      "inputs": [],
      "name": "wethAddress",
      "outputs": [
        {
          "internalType": "address",
          "name": "",
          "type": "address"
        }
      ],
      "stateMutability": "view",
      "type": "function"
    }
  ],
  "bytecode": "0x60a06040523480156200001157600080fd5b50604051620032e4380380620032e4833981810160405281019062000037919062000361565b816000806101000a81548173ffffffffffffffffffffffffffffffffffffffff021916908373ffffffffffffffffffffffffffffffffffffffff16021790555080600160006101000a81548173ffffffffffffffffffffffffffffffffffffffff021916908373ffffffffffffffffffffffffffffffffffffffff1602179055506000600b81905550736b175474e89094c44da98b954eedeac495271d0f73ffffffffffffffffffffffffffffffffffffffff166370a0823173c2e9f25be6257c210d7adf0d4cd6e3e881ba25f86040518263ffffffff1660e01b8152600401620001239190620003b9565b60206040518083038186803b1580156200013c57600080fd5b505afa15801562000151573d6000803e3d6000fd5b505050506040513d601f19601f8201168201806040525081019062000177919062000411565b60048190555073c02aaa39b223fe8d0a0e5c4f27ead9083c756cc273ffffffffffffffffffffffffffffffffffffffff166370a0823173c2e9f25be6257c210d7adf0d4cd6e3e881ba25f86040518263ffffffff1660e01b8152600401620001e09190620003b9565b60206040518083038186803b158015620001f957600080fd5b505afa1580156200020e573d6000803e3d6000fd5b505050506040513d601f19601f8201168201806040525081019062000234919062000411565b6005819055506005546004546200024c919062000472565b600a8190555033600660006101000a81548173ffffffffffffffffffffffffffffffffffffffff021916908373ffffffffffffffffffffffffffffffffffffffff160217905550737a250d5630b4cf539739df2c5dacb4c659f2488d73ffffffffffffffffffffffffffffffffffffffff1660808173ffffffffffffffffffffffffffffffffffffffff16815250505050620004d3565b600080fd5b600073ffffffffffffffffffffffffffffffffffffffff82169050919050565b60006200031582620002e8565b9050919050565b6000620003298262000308565b9050919050565b6200033b816200031c565b81146200034757600080fd5b50565b6000815190506200035b8162000330565b92915050565b600080604083850312156200037b576200037a620002e3565b5b60006200038b858286016200034a565b92505060206200039e858286016200034a565b9150509250929050565b620003b38162000308565b82525050565b6000602082019050620003d06000830184620003a8565b92915050565b6000819050919050565b620003eb81620003d6565b8114620003f757600080fd5b50565b6000815190506200040b81620003e0565b92915050565b6000602082840312156200042a5762000429620002e3565b5b60006200043a84828501620003fa565b91505092915050565b7f4e487b7100000000000000000000000000000000000000000000000000000000600052601160045260246000fd5b60006200047f82620003d6565b91506200048c83620003d6565b9250817fffffffffffffffffffffffffffffffffffffffffffffffffffffffffffffffff0483118215151615620004c857620004c762000443565b5b828202905092915050565b608051612dd96200050b6000396000818161085a01528181611431015281816118b10152818161200701526120d70152612dd96000f3fe608060405234801561001057600080fd5b50600436106102065760003560e01c80639c8f9f231161011a578063de1b6d2a116100ad578063ef5a814e1161007c578063ef5a814e14610622578063f2c815c714610652578063f4b9fa7514610682578063f4cb34d4146106a0578063fde6c9fb146106d057610206565b8063de1b6d2a14610586578063e2ccefba146105b6578063e682ca69146105d4578063e89f8be71461060457610206565b8063b9ffa6a8116100e9578063b9ffa6a8146104ea578063c5b38c0514610508578063ce7c2ac214610538578063d21220a71461056857610206565b80639c8f9f23146104635780639cd441da14610494578063a932492f146104b0578063b2f9820b146104ce57610206565b80634328bfa21161019d5780636703f80a1161016c5780636703f80a1461039757806368a455f1146103c75780638da5cb5b146103e5578063980d69d3146104035780639a5c77a81461043357610206565b80634328bfa2146102fb5780634f0e0ef31461032b5780635cf39049146103495780635d4f167e1461036757610206565b80632ac7c3c5116101d95780632ac7c3c5146102835780632c387275146102a15780633a98ef39146102bf5780633fc8cef3146102dd57610206565b80631694505e1461020b5780631b68d10d1461022957806325be124e1461024757806326a6a06614610265575b600080fd5b610213610701565b60405161022091906121e1565b60405180910390f35b610231610719565b60405161023e9190612215565b60405180910390f35b61024f61071f565b60405161025c919061228f565b60405180910390f35b61026d610745565b60405161027a91906121e1565b60405180910390f35b61028b61075d565b6040516102989190612215565b60405180910390f35b6102a9610763565b6040516102b691906121e1565b60405180910390f35b6102c761077b565b6040516102d49190612215565b60405180910390f35b6102e5610781565b6040516102f291906122cb565b60405180910390f35b61031560048036038101906103109190612326565b6107a7565b6040516103229190612215565b60405180910390f35b610333610840565b60405161034091906121e1565b60405180910390f35b610351610858565b60405161035e9190612374565b60405180910390f35b610381600480360381019061037c9190612326565b61087c565b60405161038e91906121e1565b60405180910390f35b6103b160048036038101906103ac9190612326565b6108af565b6040516103be9190612215565b60405180910390f35b6103cf610948565b6040516103dc9190612215565b60405180910390f35b6103ed61094e565b6040516103fa91906121e1565b60405180910390f35b61041d60048036038101906104189190612326565b610974565b60405161042a9190612215565b60405180910390f35b61044d60048036038101906104489190612326565b610ba3565b60405161045a9190612215565b60405180910390f35b61047d60048036038101906104789190612326565b610bc7565b60405161048b92919061238f565b60405180910390f35b6104ae60048036038101906104a991906123b8565b610e77565b005b6104b86111d9565b6040516104c59190612215565b60405180910390f35b6104e860048036038101906104e39190612424565b6111df565b005b6104f261124e565b6040516104ff9190612215565b60405180910390f35b610522600480360381019061051d9190612326565b611254565b60405161052f9190612215565b60405180910390f35b610552600480360381019061054d9190612424565b6112ed565b60405161055f9190612215565b60405180910390f35b610570611305565b60405161057d919061228f565b60405180910390f35b6105a0600480360381019061059b9190612326565b611329565b6040516105ad9190612215565b60405180910390f35b6105be61134d565b6040516105cb9190612215565b60405180910390f35b6105ee60048036038101906105e99190612326565b611353565b6040516105fb9190612215565b60405180910390f35b61060c6113ec565b6040516106199190612215565b60405180910390f35b61063c60048036038101906106379190612326565b6113f2565b6040516106499190612215565b60405180910390f35b61066c60048036038101906106679190612326565b611872565b6040516106799190612215565b60405180910390f35b61068a611cf2565b60405161069791906122cb565b60405180910390f35b6106ba60048036038101906106b59190612326565b611d18565b6040516106c79190612215565b60405180910390f35b6106ea60048036038101906106e59190612326565b611f47565b6040516106f892919061238f565b60405180910390f35b737a250d5630b4cf539739df2c5dacb4c659f2488d81565b600b5481565b600160009054906101000a900473ffffffffffffffffffffffffffffffffffffffff1681565b73c2e9f25be6257c210d7adf0d4cd6e3e881ba25f881565b60045481565b736b175474e89094c44da98b954eedeac495271d0f81565b600c5481565b600360009054906101000a900473ffffffffffffffffffffffffffffffffffffffff1681565b600080826005546107b89190612480565b9050600081600a546107ca9190612505565b9050806004546107da9190612536565b92506004548314156107f55782806107f19061256a565b9350505b6004548310610839576040517f08c379a0000000000000000000000000000000000000000000000000000000008152600401610830906125f1565b60405180910390fd5b5050919050565b73c02aaa39b223fe8d0a0e5c4f27ead9083c756cc281565b7f000000000000000000000000000000000000000000000000000000000000000081565b600e6020528060005260406000206000915054906101000a900473ffffffffffffffffffffffffffffffffffffffff1681565b600080826004546108c09190612480565b9050600081600a546108d29190612505565b9050806005546108e29190612536565b92506005548314156108fd5782806108f99061256a565b9350505b6005548310610941576040517f08c379a0000000000000000000000000000000000000000000000000000000008152600401610938906125f1565b60405180910390fd5b5050919050565b60085481565b600660009054906101000a900473ffffffffffffffffffffffffffffffffffffffff1681565b600061097f82611254565b9050600160009054906101000a900473ffffffffffffffffffffffffffffffffffffffff1673ffffffffffffffffffffffffffffffffffffffff166323b872dd3330856040518463ffffffff1660e01b81526004016109e093929190612611565b602060405180830381600087803b1580156109fa57600080fd5b505af1158015610a0e573d6000803e3d6000fd5b505050506040513d601f19601f82011682018060405250810190610a329190612680565b508160086000828254610a459190612480565b925050819055508060076000828254610a5e9190612536565b9250508190555060008054906101000a900473ffffffffffffffffffffffffffffffffffffffff1673ffffffffffffffffffffffffffffffffffffffff1663a9059cbb33836040518363ffffffff1660e01b8152600401610ac09291906126ad565b602060405180830381600087803b158015610ada57600080fd5b505af1158015610aee573d6000803e3d6000fd5b505050506040513d601f19601f82011682018060405250810190610b129190612680565b507f31c309ecd457dce7604a286d63a4b470e321337fb9877ce63c1109e1003c89f633600160009054906101000a900473ffffffffffffffffffffffffffffffffffffffff168460008054906101000a900473ffffffffffffffffffffffffffffffffffffffff168560075460085442604051610b969897969594939291906126d6565b60405180910390a1919050565b600060075482600854610bb69190612754565b610bc09190612505565b9050919050565b600080600d60003373ffffffffffffffffffffffffffffffffffffffff1673ffffffffffffffffffffffffffffffffffffffff16815260200190815260200160002054831115610c4c576040517f08c379a0000000000000000000000000000000000000000000000000000000008152600401610c4390612820565b60405180910390fd5b610c5583611f47565b809250819350505082600d60003373ffffffffffffffffffffffffffffffffffffffff1673ffffffffffffffffffffffffffffffffffffffff1681526020019081526020016000206000828254610cac9190612536565b9250508190555082600c6000828254610cc59190612536565b925050819055508160076000828254610cde9190612536565b925050819055508060086000828254610cf79190612536565b92505081905550600854600754610d0e9190612754565b60098190555060008054906101000a900473ffffffffffffffffffffffffffffffffffffffff1673ffffffffffffffffffffffffffffffffffffffff1663a9059cbb33846040518363ffffffff1660e01b8152600401610d6f9291906126ad565b602060405180830381600087803b158015610d8957600080fd5b505af1158015610d9d573d6000803e3d6000fd5b505050506040513d601f19601f82011682018060405250810190610dc19190612680565b50600160009054906101000a900473ffffffffffffffffffffffffffffffffffffffff1673ffffffffffffffffffffffffffffffffffffffff1663a9059cbb33836040518363ffffffff1660e01b8152600401610e1f9291906126ad565b602060405180830381600087803b158015610e3957600080fd5b505af1158015610e4d573d6000803e3d6000fd5b505050506040513d601f19601f82011682018060405250810190610e719190612680565b50915091565b60008054906101000a900473ffffffffffffffffffffffffffffffffffffffff1673ffffffffffffffffffffffffffffffffffffffff166323b872dd3330856040518463ffffffff1660e01b8152600401610ed493929190612611565b602060405180830381600087803b158015610eee57600080fd5b505af1158015610f02573d6000803e3d6000fd5b505050506040513d601f19601f82011682018060405250810190610f269190612680565b610f65576040517f08c379a0000000000000000000000000000000000000000000000000000000008152600401610f5c9061288c565b60405180910390fd5b600160009054906101000a900473ffffffffffffffffffffffffffffffffffffffff1673ffffffffffffffffffffffffffffffffffffffff166323b872dd3330846040518463ffffffff1660e01b8152600401610fc493929190612611565b602060405180830381600087803b158015610fde57600080fd5b505af1158015610ff2573d6000803e3d6000fd5b505050506040513d601f19601f820116820180604052508101906110169190612680565b611055576040517f08c379a000000000000000000000000000000000000000000000000000000000815260040161104c906128f8565b60405180910390fd5b600080600c54141561107d57670de0b6b3a764000060646110769190612754565b905061111d565b600060075484600c546110909190612754565b61109a9190612505565b9050600060085484600c546110af9190612754565b6110b99190612505565b90506103e8816110c99190612505565b6103e8836110d79190612505565b14611117576040517f08c379a000000000000000000000000000000000000000000000000000000000815260040161110e90612964565b60405180910390fd5b81925050505b826007600082825461112f9190612480565b9250508190555081600860008282546111489190612480565b9250508190555060085460075461115f9190612754565b60098190555080600c60008282546111779190612480565b9250508190555080600d60003373ffffffffffffffffffffffffffffffffffffffff1673ffffffffffffffffffffffffffffffffffffffff16815260200190815260200160002060008282546111cd9190612480565b92505081905550505050565b60095481565b80600e6000600b54815260200190815260200160002060006101000a81548173ffffffffffffffffffffffffffffffffffffffff021916908373ffffffffffffffffffffffffffffffffffffffff160217905550600b600081548092919061124690612984565b919050555050565b60075481565b600080826008546112659190612480565b90506000816009546112779190612505565b9050806007546112879190612536565b92506007548314156112a257828061129e9061256a565b9350505b60075483106112e6576040517f08c379a00000000000000000000000000000000000000000000000000000000081526004016112dd906125f1565b60405180910390fd5b5050919050565b600d6020528060005260406000206000915090505481565b60008054906101000a900473ffffffffffffffffffffffffffffffffffffffff1681565b60006008548260075461133c9190612754565b6113469190612505565b9050919050565b60055481565b600080826007546113649190612480565b90506000816009546113769190612505565b9050806008546113869190612536565b92506008548314156113a157828061139d9061256a565b9350505b60085483106113e5576040517f08c379a00000000000000000000000000000000000000000000000000000000081526004016113dc906125f1565b60405180910390fd5b5050919050565b600a5481565b60006113fd826107a7565b905073c02aaa39b223fe8d0a0e5c4f27ead9083c756cc273ffffffffffffffffffffffffffffffffffffffff1663095ea7b37f0000000000000000000000000000000000000000000000000000000000000000846040518363ffffffff1660e01b815260040161146e9291906126ad565b602060405180830381600087803b15801561148857600080fd5b505af115801561149c573d6000803e3d6000fd5b505050506040513d601f19601f820116820180604052508101906114c09190612680565b5073c02aaa39b223fe8d0a0e5c4f27ead9083c756cc273ffffffffffffffffffffffffffffffffffffffff1663095ea7b330846040518363ffffffff1660e01b81526004016115109291906126ad565b602060405180830381600087803b15801561152a57600080fd5b505af115801561153e573d6000803e3d6000fd5b505050506040513d601f19601f820116820180604052508101906115629190612680565b506000600267ffffffffffffffff8111156115805761157f6129cd565b5b6040519080825280602002602001820160405280156115ae5781602001602082028036833780820191505090505b50905073c02aaa39b223fe8d0a0e5c4f27ead9083c756cc2816000815181106115da576115d96129fc565b5b602002602001019073ffffffffffffffffffffffffffffffffffffffff16908173ffffffffffffffffffffffffffffffffffffffff1681525050736b175474e89094c44da98b954eedeac495271d0f8160018151811061163d5761163c6129fc565b5b602002602001019073ffffffffffffffffffffffffffffffffffffffff16908173ffffffffffffffffffffffffffffffffffffffff168152505073c02aaa39b223fe8d0a0e5c4f27ead9083c756cc273ffffffffffffffffffffffffffffffffffffffff166323b872dd3330866040518463ffffffff1660e01b81526004016116c893929190612611565b602060405180830381600087803b1580156116e257600080fd5b505af11580156116f6573d6000803e3d6000fd5b505050506040513d601f19601f8201168201806040525081019061171a9190612680565b5061172781846000611fce565b736b175474e89094c44da98b954eedeac495271d0f73ffffffffffffffffffffffffffffffffffffffff1663a9059cbb33846040518363ffffffff1660e01b81526004016117769291906126ad565b602060405180830381600087803b15801561179057600080fd5b505af11580156117a4573d6000803e3d6000fd5b505050506040513d601f19601f820116820180604052508101906117c89190612680565b5082600560008282546117db9190612480565b9250508190555081600460008282546117f49190612536565b925050819055507f31c309ecd457dce7604a286d63a4b470e321337fb9877ce63c1109e1003c89f633736b175474e89094c44da98b954eedeac495271d0f8473c02aaa39b223fe8d0a0e5c4f27ead9083c756cc287600454600554426040516118649897969594939291906126d6565b60405180910390a150919050565b600061187d826108af565b9050736b175474e89094c44da98b954eedeac495271d0f73ffffffffffffffffffffffffffffffffffffffff1663095ea7b37f0000000000000000000000000000000000000000000000000000000000000000846040518363ffffffff1660e01b81526004016118ee9291906126ad565b602060405180830381600087803b15801561190857600080fd5b505af115801561191c573d6000803e3d6000fd5b505050506040513d601f19601f820116820180604052508101906119409190612680565b50736b175474e89094c44da98b954eedeac495271d0f73ffffffffffffffffffffffffffffffffffffffff1663095ea7b330846040518363ffffffff1660e01b81526004016119909291906126ad565b602060405180830381600087803b1580156119aa57600080fd5b505af11580156119be573d6000803e3d6000fd5b505050506040513d601f19601f820116820180604052508101906119e29190612680565b506000600267ffffffffffffffff811115611a00576119ff6129cd565b5b604051908082528060200260200182016040528015611a2e5781602001602082028036833780820191505090505b509050736b175474e89094c44da98b954eedeac495271d0f81600081518110611a5a57611a596129fc565b5b602002602001019073ffffffffffffffffffffffffffffffffffffffff16908173ffffffffffffffffffffffffffffffffffffffff168152505073c02aaa39b223fe8d0a0e5c4f27ead9083c756cc281600181518110611abd57611abc6129fc565b5b602002602001019073ffffffffffffffffffffffffffffffffffffffff16908173ffffffffffffffffffffffffffffffffffffffff1681525050736b175474e89094c44da98b954eedeac495271d0f73ffffffffffffffffffffffffffffffffffffffff166323b872dd3330866040518463ffffffff1660e01b8152600401611b4893929190612611565b602060405180830381600087803b158015611b6257600080fd5b505af1158015611b76573d6000803e3d6000fd5b505050506040513d601f19601f82011682018060405250810190611b9a9190612680565b50611ba781846000611fce565b73c02aaa39b223fe8d0a0e5c4f27ead9083c756cc273ffffffffffffffffffffffffffffffffffffffff1663a9059cbb33846040518363ffffffff1660e01b8152600401611bf69291906126ad565b602060405180830381600087803b158015611c1057600080fd5b505af1158015611c24573d6000803e3d6000fd5b505050506040513d601f19601f82011682018060405250810190611c489190612680565b508260046000828254611c5b9190612480565b925050819055508160056000828254611c749190612536565b925050819055507f31c309ecd457dce7604a286d63a4b470e321337fb9877ce63c1109e1003c89f633736b175474e89094c44da98b954eedeac495271d0f8573c02aaa39b223fe8d0a0e5c4f27ead9083c756cc28660045460055442604051611ce49897969594939291906126d6565b60405180910390a150919050565b600260009054906101000a900473ffffffffffffffffffffffffffffffffffffffff1681565b6000611d2382611353565b905060008054906101000a900473ffffffffffffffffffffffffffffffffffffffff1673ffffffffffffffffffffffffffffffffffffffff166323b872dd3330856040518463ffffffff1660e01b8152600401611d8293929190612611565b602060405180830381600087803b158015611d9c57600080fd5b505af1158015611db0573d6000803e3d6000fd5b505050506040513d601f19601f82011682018060405250810190611dd49190612680565b508160076000828254611de79190612480565b925050819055508060086000828254611e009190612536565b92505081905550600160009054906101000a900473ffffffffffffffffffffffffffffffffffffffff1673ffffffffffffffffffffffffffffffffffffffff1663a9059cbb33836040518363ffffffff1660e01b8152600401611e649291906126ad565b602060405180830381600087803b158015611e7e57600080fd5b505af1158015611e92573d6000803e3d6000fd5b505050506040513d601f19601f82011682018060405250810190611eb69190612680565b507f31c309ecd457dce7604a286d63a4b470e321337fb9877ce63c1109e1003c89f63360008054906101000a900473ffffffffffffffffffffffffffffffffffffffff1684600160009054906101000a900473ffffffffffffffffffffffffffffffffffffffff168560075460085442604051611f3a9897969594939291906126d6565b60405180910390a1919050565b600080600c54831115611f8f576040517f08c379a0000000000000000000000000000000000000000000000000000000008152600401611f8690612a77565b60405180910390fd5b600c5460075484611fa09190612754565b611faa9190612505565b9150600c5460085484611fbd9190612754565b611fc79190612505565b9050915091565b82600081518110611fe257611fe16129fc565b5b602002602001015173ffffffffffffffffffffffffffffffffffffffff1663095ea7b37f0000000000000000000000000000000000000000000000000000000000000000846040518363ffffffff1660e01b81526004016120449291906126ad565b602060405180830381600087803b15801561205e57600080fd5b505af1158015612072573d6000803e3d6000fd5b505050506040513d601f19601f820116820180604052508101906120969190612680565b6120d5576040517f08c379a00000000000000000000000000000000000000000000000000000000081526004016120cc90612ae3565b60405180910390fd5b7f000000000000000000000000000000000000000000000000000000000000000073ffffffffffffffffffffffffffffffffffffffff166338ed1739838386306104b0426121239190612480565b6040518663ffffffff1660e01b8152600401612143959493929190612bc1565b600060405180830381600087803b15801561215d57600080fd5b505af1158015612171573d6000803e3d6000fd5b505050506040513d6000823e3d601f19601f8201168201806040525081019061219a9190612d5a565b50505050565b600073ffffffffffffffffffffffffffffffffffffffff82169050919050565b60006121cb826121a0565b9050919050565b6121db816121c0565b82525050565b60006020820190506121f660008301846121d2565b92915050565b6000819050919050565b61220f816121fc565b82525050565b600060208201905061222a6000830184612206565b92915050565b6000819050919050565b600061225561225061224b846121a0565b612230565b6121a0565b9050919050565b60006122678261223a565b9050919050565b60006122798261225c565b9050919050565b6122898161226e565b82525050565b60006020820190506122a46000830184612280565b92915050565b60006122b58261225c565b9050919050565b6122c5816122aa565b82525050565b60006020820190506122e060008301846122bc565b92915050565b6000604051905090565b600080fd5b600080fd5b612303816121fc565b811461230e57600080fd5b50565b600081359050612320816122fa565b92915050565b60006020828403121561233c5761233b6122f0565b5b600061234a84828501612311565b91505092915050565b600061235e8261225c565b9050919050565b61236e81612353565b82525050565b60006020820190506123896000830184612365565b92915050565b60006040820190506123a46000830185612206565b6123b16020830184612206565b9392505050565b600080604083850312156123cf576123ce6122f0565b5b60006123dd85828601612311565b92505060206123ee85828601612311565b9150509250929050565b612401816121c0565b811461240c57600080fd5b50565b60008135905061241e816123f8565b92915050565b60006020828403121561243a576124396122f0565b5b60006124488482850161240f565b91505092915050565b7f4e487b7100000000000000000000000000000000000000000000000000000000600052601160045260246000fd5b600061248b826121fc565b9150612496836121fc565b9250827fffffffffffffffffffffffffffffffffffffffffffffffffffffffffffffffff038211156124cb576124ca612451565b5b828201905092915050565b7f4e487b7100000000000000000000000000000000000000000000000000000000600052601260045260246000fd5b6000612510826121fc565b915061251b836121fc565b92508261252b5761252a6124d6565b5b828204905092915050565b6000612541826121fc565b915061254c836121fc565b92508282101561255f5761255e612451565b5b828203905092915050565b6000612575826121fc565b9150600082141561258957612588612451565b5b600182039050919050565b600082825260208201905092915050565b7f7377617020616d6f756e7420746f6f206c617267650000000000000000000000600082015250565b60006125db601583612594565b91506125e6826125a5565b602082019050919050565b6000602082019050818103600083015261260a816125ce565b9050919050565b600060608201905061262660008301866121d2565b61263360208301856121d2565b6126406040830184612206565b949350505050565b60008115159050919050565b61265d81612648565b811461266857600080fd5b50565b60008151905061267a81612654565b92915050565b600060208284031215612696576126956122f0565b5b60006126a48482850161266b565b91505092915050565b60006040820190506126c260008301856121d2565b6126cf6020830184612206565b9392505050565b6000610100820190506126ec600083018b6121d2565b6126f9602083018a6121d2565b6127066040830189612206565b61271360608301886121d2565b6127206080830187612206565b61272d60a0830186612206565b61273a60c0830185612206565b61274760e0830184612206565b9998505050505050505050565b600061275f826121fc565b915061276a836121fc565b9250817fffffffffffffffffffffffffffffffffffffffffffffffffffffffffffffffff04831182151516156127a3576127a2612451565b5b828202905092915050565b7f63616e6e6f74207769746864726177206d6f726520736861726573207468616e60008201527f20796f7520686176650000000000000000000000000000000000000000000000602082015250565b600061280a602983612594565b9150612815826127ae565b604082019050919050565b60006020820190508181036000830152612839816127fd565b9050919050565b7f6661696c656420746f207472616e7366657220746f6b656e2031000000000000600082015250565b6000612876601a83612594565b915061288182612840565b602082019050919050565b600060208201905081810360008301526128a581612869565b9050919050565b7f6661696c656420746f207472616e7366657220746f6b656e2032000000000000600082015250565b60006128e2601a83612594565b91506128ed826128ac565b602082019050919050565b60006020820190508181036000830152612911816128d5565b9050919050565b7f6d7573742070726f7669646520657175616c20746f6b656e20616d6f756e7473600082015250565b600061294e602083612594565b915061295982612918565b602082019050919050565b6000602082019050818103600083015261297d81612941565b9050919050565b600061298f826121fc565b91507fffffffffffffffffffffffffffffffffffffffffffffffffffffffffffffffff8214156129c2576129c1612451565b5b600182019050919050565b7f4e487b7100000000000000000000000000000000000000000000000000000000600052604160045260246000fd5b7f4e487b7100000000000000000000000000000000000000000000000000000000600052603260045260246000fd5b7f6d757374206265206c657373207468616e20746f74616c207368617265730000600082015250565b6000612a61601e83612594565b9150612a6c82612a2b565b602082019050919050565b60006020820190508181036000830152612a9081612a54565b9050919050565b7f556e697377617020617070726f76616c206661696c65642e0000000000000000600082015250565b6000612acd601883612594565b9150612ad882612a97565b602082019050919050565b60006020820190508181036000830152612afc81612ac0565b9050919050565b600081519050919050565b600082825260208201905092915050565b6000819050602082019050919050565b612b38816121c0565b82525050565b6000612b4a8383612b2f565b60208301905092915050565b6000602082019050919050565b6000612b6e82612b03565b612b788185612b0e565b9350612b8383612b1f565b8060005b83811015612bb4578151612b9b8882612b3e565b9750612ba683612b56565b925050600181019050612b87565b5085935050505092915050565b600060a082019050612bd66000830188612206565b612be36020830187612206565b8181036040830152612bf58186612b63565b9050612c0460608301856121d2565b612c116080830184612206565b9695505050505050565b600080fd5b6000601f19601f8301169050919050565b612c3a82612c20565b810181811067ffffffffffffffff82111715612c5957612c586129cd565b5b80604052505050565b6000612c6c6122e6565b9050612c788282612c31565b919050565b600067ffffffffffffffff821115612c9857612c976129cd565b5b602082029050602081019050919050565b600080fd5b600081519050612cbd816122fa565b92915050565b6000612cd6612cd184612c7d565b612c62565b90508083825260208201905060208402830185811115612cf957612cf8612ca9565b5b835b81811015612d225780612d0e8882612cae565b845260208401935050602081019050612cfb565b5050509392505050565b600082601f830112612d4157612d40612c1b565b5b8151612d51848260208601612cc3565b91505092915050565b600060208284031215612d7057612d6f6122f0565b5b600082015167ffffffffffffffff811115612d8e57612d8d6122f5565b5b612d9a84828501612d2c565b9150509291505056fea2646970667358221220e5c29b55a54684c50a6fcf7f738d34b155e13cabc378c88b6d2326047a72671a64736f6c63430008090033",
  "linkReferences": {},
  "deployedLinkReferences": {}
}