{
  "_format": "hh-sol-artifact-1",
  "contractName": "AMM",
  "sourceName": "contracts/AMM.sol",
  "abi": [
    {
      "inputs": [
        {
          "internalType": "contract Token",
          "name": "_token1",
          "type": "address"
        },
        {
          "internalType": "contract Token",
          "name": "_token2",
          "type": "address"
        }
      ],
      "stateMutability": "nonpayable",
      "type": "constructor"
    },
    {
      "anonymous": false,
      "inputs": [
        {
          "indexed": false,
          "internalType": "address",
          "name": "user",
          "type": "address"
        },
        {
          "indexed": false,
          "internalType": "address",
          "name": "tokenGive",
          "type": "address"
        },
        {
          "indexed": false,
          "internalType": "uint256",
          "name": "tokenGiveAmount",
          "type": "uint256"
        },
        {
          "indexed": false,
          "internalType": "address",
          "name": "tokenGet",
          "type": "address"
        },
        {
          "indexed": false,
          "internalType": "uint256",
          "name": "tokenGetAmount",
          "type": "uint256"
        },
        {
          "indexed": false,
          "internalType": "uint256",
          "name": "token1Balance",
          "type": "uint256"
        },
        {
          "indexed": false,
          "internalType": "uint256",
          "name": "token2Balance",
          "type": "uint256"
        },
        {
          "indexed": false,
          "internalType": "uint256",
          "name": "timestamp",
          "type": "uint256"
        }
      ],
      "name": "Swap",
      "type": "event"
    },
    {
      "inputs": [],
      "name": "K",
      "outputs": [
        {
          "internalType": "uint256",
          "name": "",
          "type": "uint256"
        }
      ],
      "stateMutability": "view",
      "type": "function"
    },
    {
      "inputs": [],
      "name": "K1",
      "outputs": [
        {
          "internalType": "uint256",
          "name": "",
          "type": "uint256"
        }
      ],
      "stateMutability": "view",
      "type": "function"
    },
    {
      "inputs": [],
      "name": "K2",
      "outputs": [
        {
          "internalType": "uint256",
          "name": "",
          "type": "uint256"
        }
      ],
      "stateMutability": "view",
      "type": "function"
    },
    {
      "inputs": [
        {
          "internalType": "uint256",
          "name": "_token1Amount",
          "type": "uint256"
        },
        {
          "internalType": "uint256",
          "name": "_token2Amount",
          "type": "uint256"
        }
      ],
      "name": "addLiquidity",
      "outputs": [],
      "stateMutability": "nonpayable",
      "type": "function"
    },
    {
      "inputs": [
        {
          "internalType": "uint256",
          "name": "_token2Amount",
          "type": "uint256"
        }
      ],
      "name": "calculateToken1Deposit",
      "outputs": [
        {
          "internalType": "uint256",
          "name": "token1Amount",
          "type": "uint256"
        }
      ],
      "stateMutability": "view",
      "type": "function"
    },
    {
      "inputs": [
        {
          "internalType": "uint256",
          "name": "_token1Amount",
          "type": "uint256"
        }
      ],
      "name": "calculateToken1Swap",
      "outputs": [
        {
          "internalType": "uint256",
          "name": "token2Amount",
          "type": "uint256"
        }
      ],
      "stateMutability": "view",
      "type": "function"
    },
    {
      "inputs": [
        {
          "internalType": "uint256",
          "name": "_token1Amount",
          "type": "uint256"
        }
      ],
      "name": "calculateToken2Deposit",
      "outputs": [
        {
          "internalType": "uint256",
          "name": "token2Amount",
          "type": "uint256"
        }
      ],
      "stateMutability": "view",
      "type": "function"
    },
    {
      "inputs": [
        {
          "internalType": "uint256",
          "name": "_token2Amount",
          "type": "uint256"
        }
      ],
      "name": "calculateToken2Swap",
      "outputs": [
        {
          "internalType": "uint256",
          "name": "token1Amount",
          "type": "uint256"
        }
      ],
      "stateMutability": "view",
      "type": "function"
    },
    {
      "inputs": [
        {
          "internalType": "uint256",
          "name": "_share",
          "type": "uint256"
        }
      ],
      "name": "calculateWithdrawAmount",
      "outputs": [
        {
          "internalType": "uint256",
          "name": "token1Amount",
          "type": "uint256"
        },
        {
          "internalType": "uint256",
          "name": "token2Amount",
          "type": "uint256"
        }
      ],
      "stateMutability": "view",
      "type": "function"
    },
    {
      "inputs": [],
      "name": "dai",
      "outputs": [
        {
          "internalType": "contract IWETH",
          "name": "",
          "type": "address"
        }
      ],
      "stateMutability": "view",
      "type": "function"
    },
    {
      "inputs": [],
      "name": "daiAddress",
      "outputs": [
        {
          "internalType": "address",
          "name": "",
          "type": "address"
        }
      ],
      "stateMutability": "view",
      "type": "function"
    },
    {
      "inputs": [],
      "name": "daiWETHpool",
      "outputs": [
        {
          "internalType": "address",
          "name": "",
          "type": "address"
        }
      ],
      "stateMutability": "view",
      "type": "function"
    },
    {
      "inputs": [],
      "name": "owner",
      "outputs": [
        {
          "internalType": "address",
          "name": "",
          "type": "address"
        }
      ],
      "stateMutability": "view",
      "type": "function"
    },
    {
      "inputs": [],
      "name": "pool1daiBalance",
      "outputs": [
        {
          "internalType": "uint256",
          "name": "",
          "type": "uint256"
        }
      ],
      "stateMutability": "view",
      "type": "function"
    },
    {
      "inputs": [],
      "name": "pool1wethBalance",
      "outputs": [
        {
          "internalType": "uint256",
          "name": "",
          "type": "uint256"
        }
      ],
      "stateMutability": "view",
      "type": "function"
    },
    {
      "inputs": [],
      "name": "pool2daiBalance",
      "outputs": [
        {
          "internalType": "uint256",
          "name": "",
          "type": "uint256"
        }
      ],
      "stateMutability": "view",
      "type": "function"
    },
    {
      "inputs": [],
      "name": "pool2wethBalance",
      "outputs": [
        {
          "internalType": "uint256",
          "name": "",
          "type": "uint256"
        }
      ],
      "stateMutability": "view",
      "type": "function"
    },
    {
      "inputs": [
        {
          "internalType": "uint256",
          "name": "_share",
          "type": "uint256"
        }
      ],
      "name": "removeLiquidity",
      "outputs": [
        {
          "internalType": "uint256",
          "name": "token1Amount",
          "type": "uint256"
        },
        {
          "internalType": "uint256",
          "name": "token2Amount",
          "type": "uint256"
        }
      ],
      "stateMutability": "nonpayable",
      "type": "function"
    },
    {
      "inputs": [
        {
          "internalType": "address",
          "name": "",
          "type": "address"
        }
      ],
      "name": "shares",
      "outputs": [
        {
          "internalType": "uint256",
          "name": "",
          "type": "uint256"
        }
      ],
      "stateMutability": "view",
      "type": "function"
    },
    {
      "inputs": [
        {
          "internalType": "uint256",
          "name": "_token1Amount",
          "type": "uint256"
        }
      ],
      "name": "swapToken1",
      "outputs": [
        {
          "internalType": "uint256",
          "name": "token2Amount",
          "type": "uint256"
        }
      ],
      "stateMutability": "nonpayable",
      "type": "function"
    },
    {
      "inputs": [
        {
          "internalType": "uint256",
          "name": "_token2Amount",
          "type": "uint256"
        }
      ],
      "name": "swapToken2",
      "outputs": [
        {
          "internalType": "uint256",
          "name": "token1Amount",
          "type": "uint256"
        }
      ],
      "stateMutability": "nonpayable",
      "type": "function"
    },
    {
      "inputs": [],
      "name": "token1",
      "outputs": [
        {
          "internalType": "contract Token",
          "name": "",
          "type": "address"
        }
      ],
      "stateMutability": "view",
      "type": "function"
    },
    {
      "inputs": [],
      "name": "token1Balance",
      "outputs": [
        {
          "internalType": "uint256",
          "name": "",
          "type": "uint256"
        }
      ],
      "stateMutability": "view",
      "type": "function"
    },
    {
      "inputs": [],
      "name": "token2",
      "outputs": [
        {
          "internalType": "contract Token",
          "name": "",
          "type": "address"
        }
      ],
      "stateMutability": "view",
      "type": "function"
    },
    {
      "inputs": [],
      "name": "token2Balance",
      "outputs": [
        {
          "internalType": "uint256",
          "name": "",
          "type": "uint256"
        }
      ],
      "stateMutability": "view",
      "type": "function"
    },
    {
      "inputs": [],
      "name": "totalShares",
      "outputs": [
        {
          "internalType": "uint256",
          "name": "",
          "type": "uint256"
        }
      ],
      "stateMutability": "view",
      "type": "function"
    },
    {
      "inputs": [],
      "name": "uRouter",
      "outputs": [
        {
          "internalType": "contract IUniswapV2Router02",
          "name": "",
          "type": "address"
        }
      ],
      "stateMutability": "view",
      "type": "function"
    },
    {
      "inputs": [],
      "name": "uniswapV2Router",
      "outputs": [
        {
          "internalType": "address",
          "name": "",
          "type": "address"
        }
      ],
      "stateMutability": "view",
      "type": "function"
    },
    {
      "inputs": [],
      "name": "weth",
      "outputs": [
        {
          "internalType": "contract IWETH",
          "name": "",
          "type": "address"
        }
      ],
      "stateMutability": "view",
      "type": "function"
    },
    {
      "inputs": [],
      "name": "wethAddress",
      "outputs": [
        {
          "internalType": "address",
          "name": "",
          "type": "address"
        }
      ],
      "stateMutability": "view",
      "type": "function"
    },
    {
      "inputs": [],
      "name": "wethDAIpool",
      "outputs": [
        {
          "internalType": "address",
          "name": "",
          "type": "address"
        }
      ],
      "stateMutability": "view",
      "type": "function"
    }
  ],
  "bytecode": "0x60a06040523480156200001157600080fd5b506040516200233b3803806200233b8339818101604052810190620000379190620004eb565b816000806101000a81548173ffffffffffffffffffffffffffffffffffffffff021916908373ffffffffffffffffffffffffffffffffffffffff16021790555080600160006101000a81548173ffffffffffffffffffffffffffffffffffffffff021916908373ffffffffffffffffffffffffffffffffffffffff160217905550736b175474e89094c44da98b954eedeac495271d0f73ffffffffffffffffffffffffffffffffffffffff166370a0823173c2e9f25be6257c210d7adf0d4cd6e3e881ba25f86040518263ffffffff1660e01b81526004016200011b919062000543565b60206040518083038186803b1580156200013457600080fd5b505afa15801562000149573d6000803e3d6000fd5b505050506040513d601f19601f820116820180604052508101906200016f91906200059b565b60078190555073c02aaa39b223fe8d0a0e5c4f27ead9083c756cc273ffffffffffffffffffffffffffffffffffffffff166370a0823173c2e9f25be6257c210d7adf0d4cd6e3e881ba25f86040518263ffffffff1660e01b8152600401620001d8919062000543565b60206040518083038186803b158015620001f157600080fd5b505afa15801562000206573d6000803e3d6000fd5b505050506040513d601f19601f820116820180604052508101906200022c91906200059b565b600881905550736b175474e89094c44da98b954eedeac495271d0f73ffffffffffffffffffffffffffffffffffffffff166370a0823173a478c2975ab1ea89e8196811f51a7b7ade33eb116040518263ffffffff1660e01b815260040162000295919062000543565b60206040518083038186803b158015620002ae57600080fd5b505afa158015620002c3573d6000803e3d6000fd5b505050506040513d601f19601f82011682018060405250810190620002e991906200059b565b60098190555073c02aaa39b223fe8d0a0e5c4f27ead9083c756cc273ffffffffffffffffffffffffffffffffffffffff166370a0823173a478c2975ab1ea89e8196811f51a7b7ade33eb116040518263ffffffff1660e01b815260040162000352919062000543565b60206040518083038186803b1580156200036b57600080fd5b505afa15801562000380573d6000803e3d6000fd5b505050506040513d601f19601f82011682018060405250810190620003a691906200059b565b600a81905550600854600754620003be9190620005fc565b600c81905550600a54600954620003d69190620005fc565b600d8190555033600460006101000a81548173ffffffffffffffffffffffffffffffffffffffff021916908373ffffffffffffffffffffffffffffffffffffffff160217905550737a250d5630b4cf539739df2c5dacb4c659f2488d73ffffffffffffffffffffffffffffffffffffffff1660808173ffffffffffffffffffffffffffffffffffffffff168152505050506200065d565b600080fd5b600073ffffffffffffffffffffffffffffffffffffffff82169050919050565b60006200049f8262000472565b9050919050565b6000620004b38262000492565b9050919050565b620004c581620004a6565b8114620004d157600080fd5b50565b600081519050620004e581620004ba565b92915050565b600080604083850312156200050557620005046200046d565b5b60006200051585828601620004d4565b92505060206200052885828601620004d4565b9150509250929050565b6200053d8162000492565b82525050565b60006020820190506200055a600083018462000532565b92915050565b6000819050919050565b620005758162000560565b81146200058157600080fd5b50565b60008151905062000595816200056a565b92915050565b600060208284031215620005b457620005b36200046d565b5b6000620005c48482850162000584565b91505092915050565b7f4e487b7100000000000000000000000000000000000000000000000000000000600052601160045260246000fd5b6000620006098262000560565b9150620006168362000560565b9250817fffffffffffffffffffffffffffffffffffffffffffffffffffffffffffffffff0483118215151615620006525762000651620005cd565b5b828202905092915050565b608051611cc26200067960003960006107060152611cc26000f3fe608060405234801561001057600080fd5b50600436106101e55760003560e01c80639a5c77a81161010f578063ce7c2ac2116100a2578063e89f8be711610071578063e89f8be714610591578063f4b9fa75146105af578063f4cb34d4146105cd578063fde6c9fb146105fd576101e5565b8063ce7c2ac2146104e3578063d21220a714610513578063de1b6d2a14610531578063e682ca6914610561576101e5565b8063b36c6aab116100de578063b36c6aab14610459578063b9ffa6a814610477578063bc13fbc714610495578063c5b38c05146104b3576101e5565b80639a5c77a8146103be5780639c8f9f23146103ee5780639cd441da1461041f578063a932492f1461043b576101e5565b80633fc8cef31161018757806368a455f11161015657806368a455f1146103345780638a01ece9146103525780638da5cb5b14610370578063980d69d31461038e576101e5565b80633fc8cef3146102bc5780634f0e0ef3146102da5780635b3b06ae146102f85780635cf3904914610316576101e5565b80632c387275116101c35780632c387275146102445780632cd7edad14610262578063382d37df146102805780633a98ef391461029e576101e5565b80631694505e146101ea57806325be124e1461020857806326a6a06614610226575b600080fd5b6101f261062e565b6040516101ff919061148c565b60405180910390f35b610210610646565b60405161021d9190611506565b60405180910390f35b61022e61066c565b60405161023b919061148c565b60405180910390f35b61024c610684565b604051610259919061148c565b60405180910390f35b61026a61069c565b604051610277919061148c565b60405180910390f35b6102886106b4565b604051610295919061153a565b60405180910390f35b6102a66106ba565b6040516102b3919061153a565b60405180910390f35b6102c46106c0565b6040516102d19190611576565b60405180910390f35b6102e26106e6565b6040516102ef919061148c565b60405180910390f35b6103006106fe565b60405161030d919061153a565b60405180910390f35b61031e610704565b60405161032b91906115b2565b60405180910390f35b61033c610728565b604051610349919061153a565b60405180910390f35b61035a61072e565b604051610367919061153a565b60405180910390f35b610378610734565b604051610385919061148c565b60405180910390f35b6103a860048036038101906103a391906115fe565b61075a565b6040516103b5919061153a565b60405180910390f35b6103d860048036038101906103d391906115fe565b610989565b6040516103e5919061153a565b60405180910390f35b610408600480360381019061040391906115fe565b6109ad565b60405161041692919061162b565b60405180910390f35b61043960048036038101906104349190611654565b610c5d565b005b610443610fbf565b604051610450919061153a565b60405180910390f35b610461610fc5565b60405161046e919061153a565b60405180910390f35b61047f610fcb565b60405161048c919061153a565b60405180910390f35b61049d610fd1565b6040516104aa919061153a565b60405180910390f35b6104cd60048036038101906104c891906115fe565b610fd7565b6040516104da919061153a565b60405180910390f35b6104fd60048036038101906104f891906116c0565b611070565b60405161050a919061153a565b60405180910390f35b61051b611088565b6040516105289190611506565b60405180910390f35b61054b600480360381019061054691906115fe565b6110ac565b604051610558919061153a565b60405180910390f35b61057b600480360381019061057691906115fe565b6110d0565b604051610588919061153a565b60405180910390f35b610599611169565b6040516105a6919061153a565b60405180910390f35b6105b761116f565b6040516105c49190611576565b60405180910390f35b6105e760048036038101906105e291906115fe565b611195565b6040516105f4919061153a565b60405180910390f35b610617600480360381019061061291906115fe565b6113c4565b60405161062592919061162b565b60405180910390f35b737a250d5630b4cf539739df2c5dacb4c659f2488d81565b600160009054906101000a900473ffffffffffffffffffffffffffffffffffffffff1681565b73c2e9f25be6257c210d7adf0d4cd6e3e881ba25f881565b736b175474e89094c44da98b954eedeac495271d0f81565b73a478c2975ab1ea89e8196811f51a7b7ade33eb1181565b60085481565b600e5481565b600360009054906101000a900473ffffffffffffffffffffffffffffffffffffffff1681565b73c02aaa39b223fe8d0a0e5c4f27ead9083c756cc281565b600d5481565b7f000000000000000000000000000000000000000000000000000000000000000081565b60065481565b600a5481565b600460009054906101000a900473ffffffffffffffffffffffffffffffffffffffff1681565b600061076582610fd7565b9050600160009054906101000a900473ffffffffffffffffffffffffffffffffffffffff1673ffffffffffffffffffffffffffffffffffffffff166323b872dd3330856040518463ffffffff1660e01b81526004016107c6939291906116ed565b602060405180830381600087803b1580156107e057600080fd5b505af11580156107f4573d6000803e3d6000fd5b505050506040513d601f19601f82011682018060405250810190610818919061175c565b50816006600082825461082b91906117b8565b925050819055508060056000828254610844919061180e565b9250508190555060008054906101000a900473ffffffffffffffffffffffffffffffffffffffff1673ffffffffffffffffffffffffffffffffffffffff1663a9059cbb33836040518363ffffffff1660e01b81526004016108a6929190611842565b602060405180830381600087803b1580156108c057600080fd5b505af11580156108d4573d6000803e3d6000fd5b505050506040513d601f19601f820116820180604052508101906108f8919061175c565b507f31c309ecd457dce7604a286d63a4b470e321337fb9877ce63c1109e1003c89f633600160009054906101000a900473ffffffffffffffffffffffffffffffffffffffff168460008054906101000a900473ffffffffffffffffffffffffffffffffffffffff16856005546006544260405161097c98979695949392919061186b565b60405180910390a1919050565b60006005548260065461099c91906118e9565b6109a69190611972565b9050919050565b600080600f60003373ffffffffffffffffffffffffffffffffffffffff1673ffffffffffffffffffffffffffffffffffffffff16815260200190815260200160002054831115610a32576040517f08c379a0000000000000000000000000000000000000000000000000000000008152600401610a2990611a26565b60405180910390fd5b610a3b836113c4565b809250819350505082600f60003373ffffffffffffffffffffffffffffffffffffffff1673ffffffffffffffffffffffffffffffffffffffff1681526020019081526020016000206000828254610a92919061180e565b9250508190555082600e6000828254610aab919061180e565b925050819055508160056000828254610ac4919061180e565b925050819055508060066000828254610add919061180e565b92505081905550600654600554610af491906118e9565b600b8190555060008054906101000a900473ffffffffffffffffffffffffffffffffffffffff1673ffffffffffffffffffffffffffffffffffffffff1663a9059cbb33846040518363ffffffff1660e01b8152600401610b55929190611842565b602060405180830381600087803b158015610b6f57600080fd5b505af1158015610b83573d6000803e3d6000fd5b505050506040513d601f19601f82011682018060405250810190610ba7919061175c565b50600160009054906101000a900473ffffffffffffffffffffffffffffffffffffffff1673ffffffffffffffffffffffffffffffffffffffff1663a9059cbb33836040518363ffffffff1660e01b8152600401610c05929190611842565b602060405180830381600087803b158015610c1f57600080fd5b505af1158015610c33573d6000803e3d6000fd5b505050506040513d601f19601f82011682018060405250810190610c57919061175c565b50915091565b60008054906101000a900473ffffffffffffffffffffffffffffffffffffffff1673ffffffffffffffffffffffffffffffffffffffff166323b872dd3330856040518463ffffffff1660e01b8152600401610cba939291906116ed565b602060405180830381600087803b158015610cd457600080fd5b505af1158015610ce8573d6000803e3d6000fd5b505050506040513d601f19601f82011682018060405250810190610d0c919061175c565b610d4b576040517f08c379a0000000000000000000000000000000000000000000000000000000008152600401610d4290611a92565b60405180910390fd5b600160009054906101000a900473ffffffffffffffffffffffffffffffffffffffff1673ffffffffffffffffffffffffffffffffffffffff166323b872dd3330846040518463ffffffff1660e01b8152600401610daa939291906116ed565b602060405180830381600087803b158015610dc457600080fd5b505af1158015610dd8573d6000803e3d6000fd5b505050506040513d601f19601f82011682018060405250810190610dfc919061175c565b610e3b576040517f08c379a0000000000000000000000000000000000000000000000000000000008152600401610e3290611afe565b60405180910390fd5b600080600e541415610e6357670de0b6b3a76400006064610e5c91906118e9565b9050610f03565b600060055484600e54610e7691906118e9565b610e809190611972565b9050600060065484600e54610e9591906118e9565b610e9f9190611972565b90506103e881610eaf9190611972565b6103e883610ebd9190611972565b14610efd576040517f08c379a0000000000000000000000000000000000000000000000000000000008152600401610ef490611b6a565b60405180910390fd5b81925050505b8260056000828254610f1591906117b8565b925050819055508160066000828254610f2e91906117b8565b92505081905550600654600554610f4591906118e9565b600b8190555080600e6000828254610f5d91906117b8565b9250508190555080600f60003373ffffffffffffffffffffffffffffffffffffffff1673ffffffffffffffffffffffffffffffffffffffff1681526020019081526020016000206000828254610fb391906117b8565b92505081905550505050565b600b5481565b60095481565b60055481565b60075481565b60008082600654610fe891906117b8565b9050600081600b54610ffa9190611972565b90508060055461100a919061180e565b925060055483141561102557828061102190611b8a565b9350505b6005548310611069576040517f08c379a000000000000000000000000000000000000000000000000000000000815260040161106090611c00565b60405180910390fd5b5050919050565b600f6020528060005260406000206000915090505481565b60008054906101000a900473ffffffffffffffffffffffffffffffffffffffff1681565b6000600654826005546110bf91906118e9565b6110c99190611972565b9050919050565b600080826005546110e191906117b8565b9050600081600b546110f39190611972565b905080600654611103919061180e565b925060065483141561111e57828061111a90611b8a565b9350505b6006548310611162576040517f08c379a000000000000000000000000000000000000000000000000000000000815260040161115990611c00565b60405180910390fd5b5050919050565b600c5481565b600260009054906101000a900473ffffffffffffffffffffffffffffffffffffffff1681565b60006111a0826110d0565b905060008054906101000a900473ffffffffffffffffffffffffffffffffffffffff1673ffffffffffffffffffffffffffffffffffffffff166323b872dd3330856040518463ffffffff1660e01b81526004016111ff939291906116ed565b602060405180830381600087803b15801561121957600080fd5b505af115801561122d573d6000803e3d6000fd5b505050506040513d601f19601f82011682018060405250810190611251919061175c565b50816005600082825461126491906117b8565b92505081905550806006600082825461127d919061180e565b92505081905550600160009054906101000a900473ffffffffffffffffffffffffffffffffffffffff1673ffffffffffffffffffffffffffffffffffffffff1663a9059cbb33836040518363ffffffff1660e01b81526004016112e1929190611842565b602060405180830381600087803b1580156112fb57600080fd5b505af115801561130f573d6000803e3d6000fd5b505050506040513d601f19601f82011682018060405250810190611333919061175c565b507f31c309ecd457dce7604a286d63a4b470e321337fb9877ce63c1109e1003c89f63360008054906101000a900473ffffffffffffffffffffffffffffffffffffffff1684600160009054906101000a900473ffffffffffffffffffffffffffffffffffffffff1685600554600654426040516113b798979695949392919061186b565b60405180910390a1919050565b600080600e5483111561140c576040517f08c379a000000000000000000000000000000000000000000000000000000000815260040161140390611c6c565b60405180910390fd5b600e546005548461141d91906118e9565b6114279190611972565b9150600e546006548461143a91906118e9565b6114449190611972565b9050915091565b600073ffffffffffffffffffffffffffffffffffffffff82169050919050565b60006114768261144b565b9050919050565b6114868161146b565b82525050565b60006020820190506114a1600083018461147d565b92915050565b6000819050919050565b60006114cc6114c76114c28461144b565b6114a7565b61144b565b9050919050565b60006114de826114b1565b9050919050565b60006114f0826114d3565b9050919050565b611500816114e5565b82525050565b600060208201905061151b60008301846114f7565b92915050565b6000819050919050565b61153481611521565b82525050565b600060208201905061154f600083018461152b565b92915050565b6000611560826114d3565b9050919050565b61157081611555565b82525050565b600060208201905061158b6000830184611567565b92915050565b600061159c826114d3565b9050919050565b6115ac81611591565b82525050565b60006020820190506115c760008301846115a3565b92915050565b600080fd5b6115db81611521565b81146115e657600080fd5b50565b6000813590506115f8816115d2565b92915050565b600060208284031215611614576116136115cd565b5b6000611622848285016115e9565b91505092915050565b6000604082019050611640600083018561152b565b61164d602083018461152b565b9392505050565b6000806040838503121561166b5761166a6115cd565b5b6000611679858286016115e9565b925050602061168a858286016115e9565b9150509250929050565b61169d8161146b565b81146116a857600080fd5b50565b6000813590506116ba81611694565b92915050565b6000602082840312156116d6576116d56115cd565b5b60006116e4848285016116ab565b91505092915050565b6000606082019050611702600083018661147d565b61170f602083018561147d565b61171c604083018461152b565b949350505050565b60008115159050919050565b61173981611724565b811461174457600080fd5b50565b60008151905061175681611730565b92915050565b600060208284031215611772576117716115cd565b5b600061178084828501611747565b91505092915050565b7f4e487b7100000000000000000000000000000000000000000000000000000000600052601160045260246000fd5b60006117c382611521565b91506117ce83611521565b9250827fffffffffffffffffffffffffffffffffffffffffffffffffffffffffffffffff0382111561180357611802611789565b5b828201905092915050565b600061181982611521565b915061182483611521565b92508282101561183757611836611789565b5b828203905092915050565b6000604082019050611857600083018561147d565b611864602083018461152b565b9392505050565b600061010082019050611881600083018b61147d565b61188e602083018a61147d565b61189b604083018961152b565b6118a8606083018861147d565b6118b5608083018761152b565b6118c260a083018661152b565b6118cf60c083018561152b565b6118dc60e083018461152b565b9998505050505050505050565b60006118f482611521565b91506118ff83611521565b9250817fffffffffffffffffffffffffffffffffffffffffffffffffffffffffffffffff048311821515161561193857611937611789565b5b828202905092915050565b7f4e487b7100000000000000000000000000000000000000000000000000000000600052601260045260246000fd5b600061197d82611521565b915061198883611521565b92508261199857611997611943565b5b828204905092915050565b600082825260208201905092915050565b7f63616e6e6f74207769746864726177206d6f726520736861726573207468616e60008201527f20796f7520686176650000000000000000000000000000000000000000000000602082015250565b6000611a106029836119a3565b9150611a1b826119b4565b604082019050919050565b60006020820190508181036000830152611a3f81611a03565b9050919050565b7f6661696c656420746f207472616e7366657220746f6b656e2031000000000000600082015250565b6000611a7c601a836119a3565b9150611a8782611a46565b602082019050919050565b60006020820190508181036000830152611aab81611a6f565b9050919050565b7f6661696c656420746f207472616e7366657220746f6b656e2032000000000000600082015250565b6000611ae8601a836119a3565b9150611af382611ab2565b602082019050919050565b60006020820190508181036000830152611b1781611adb565b9050919050565b7f6d7573742070726f7669646520657175616c20746f6b656e20616d6f756e7473600082015250565b6000611b546020836119a3565b9150611b5f82611b1e565b602082019050919050565b60006020820190508181036000830152611b8381611b47565b9050919050565b6000611b9582611521565b91506000821415611ba957611ba8611789565b5b600182039050919050565b7f7377617020616d6f756e7420746f6f206c617267650000000000000000000000600082015250565b6000611bea6015836119a3565b9150611bf582611bb4565b602082019050919050565b60006020820190508181036000830152611c1981611bdd565b9050919050565b7f6d757374206265206c657373207468616e20746f74616c207368617265730000600082015250565b6000611c56601e836119a3565b9150611c6182611c20565b602082019050919050565b60006020820190508181036000830152611c8581611c49565b905091905056fea2646970667358221220ebb3ec280f5254cbb62fca1fa031169c64ef97aaabcdfc0dea0080257835939464736f6c63430008090033",
  "linkReferences": {},
  "deployedLinkReferences": {}
}